:020000040800F2
:1000000098070020A101000841110008DD0E00083A
:100010003F110008270300086911000800000000D4
:100020000000000000000000000000004511000872
:1000300029030008000000004311000847110008D0
:10004000BB010008BB010008BB010008BB010008A0
:10005000BB010008BB010008BB010008BB01000890
:10006000BB010008BB010008BB010008BB01000880
:10007000BB010008BB010008BB010008BB01000870
:10008000BB010008BB010008BB010008BB01000860
:10009000BB010008BB010008BB010008BB01000850
:1000A000BB010008BB010008BB010008BB01000840
:1000B000BB010008BB010008BB010008BB01000830
:1000C000BB010008BB010008BB010008BB01000820
:1000D000BB010008BB010008BB010008BB01000810
:1000E000BB010008BB010008BB010008BB01000800
:1000F000BB010008BB010008BB010008BB010008F0
:10010000BB010008BB010008BB010008BB010008DF
:10011000BB010008BB010008BB010008BB010008CF
:10012000BB010008BB010008BB010008BB010008BF
:10013000BB010008BB010008BB010008BB010008AF
:10014000BB010008BB010008BB010008BB0100089F
:10015000BB010008BB010008BB010008BB0100088F
:10016000BB010008BB010008BB010008BB0100087F
:10017000BB010008BB010008BB0100080000000033
:10018000BB010008BB010008DFF810D000F08EF8BA
:1001900000F05CF80048004711270008980700208D
:1001A0000648804706480047FEE7FEE7FEE7FEE711
:1001B000FEE7FEE7FEE7FEE7FEE7FEE74D1100087B
:1001C000890100082DE9F05F0546002092469B4614
:1001D00088460646814640241BE02846414647465D
:1001E000224600F052F853465A46C01A914110D3A5
:1001F00011461846224600F039F82D1A67EB01081F
:100200004F4622460120002100F030F817EB00098C
:100210004E41201EA4F10104DFDC484631462A4647
:100220004346BDE8F09FD2B201E000F8012B491E21
:10023000FBD270470022F6E710B513460A46044683
:100240001946FFF7F0FF204610BD000070B5054CC1
:10025000054D03E0206820448047241DAC42F9D1BD
:1002600070BD00009C300008A0300008202A04DB8C
:10027000203A00FA02F1002070479140C2F12003B9
:1002800020FA03F3194390407047202A04DB203AF8
:1002900021FA02F00021704721FA02F3D040C2F1A6
:1002A000200291400843194670477047064C074D9D
:1002B00006E0E06840F0010394E807009847103436
:1002C000AC42F6D3FFF764FF7C3000089C30000896
:1002D00070B58C1810F8015B15F0070301D110F808
:1002E000013B2A1106D110F8012B03E010F8016B35
:1002F00001F8016B5B1EF9D12B0705D40023521EB8
:100300000DD401F8013BFAE710F8013BCB1A921C1F
:1003100003E013F8015B01F8015B521EF9D5A1421D
:10032000D8D3002070BDFEE77047000070B50446CA
:1003300000F0F6F80546601C02D00448007804443A
:1003400000F0EEF8401BA042FAD370BD84020020FA
:100350002DE9F84F00224FF0010803254FF00F0E52
:100360000B6808FA02F42340A3426ED14E68012EB6
:1003700005D0022E03D0112E01D0122E12D1866884
:100380004FEA420C05FA0CF7BE43CF6807FA0CF7A8
:10039000374387604668A6430C79C4F30014944041
:1003A00034434460C668570005FA07FC8C6826EAA7
:1003B0000C06BC403443C4604C68022C01D0122CA3
:1003C00013D1D40800EB8404A346D4F8209054073A
:1003D0004FEAD46A0EFA0AF629EA06090E6906FA05
:1003E0000AF646EA0906CBF8206006680C7926EA88
:1003F0000C0604F00304BC40344304604C68E40081
:1004000065D5364C266846F480462660246822F07E
:10041000030604F480440094314C3444A446D4F8D8
:1004200008489607370F0EFA07F6B4432D4EB04230
:1004300001D1002624E02C4EB04201D101261FE05C
:100440002A4EB04202D102261AE040E0284EB042C5
:1004500001D1032614E0274EB04201D104260FE05B
:10046000254EB04201D105260AE0244EB04201D10A
:10047000062605E0224EB04201D1072600E00826FC
:10048000BE402643CCF808681E4E34684F689C4333
:10049000FF0300D51C4334601A4C241D26684F68A6
:1004A0009E43BF0300D51E432660164E08363468AF
:1004B0004F689C43FF0200D51C433460114E0C363C
:1004C00034684F689C43BF0200D51C433460521C03
:1004D000102AFFF445AFBDE8F88F00004438024011
:1004E00000300140000002400004024000080240C9
:1004F000000C0240001002400014024000180240AC
:10050000001C0240003C0140426931EA020200D175
:100510000904816170470AB1816170470904FBE7F2
:1005200001488068704700008402002070B5040014
:1005300025D094F83D00002520B984F83C50204691
:1005400000F04EF9242084F83D002068016821F075
:10055000010101602068016841F4004101602068E8
:10056000016821F40041016000F0B6FA4D4A61686B
:10057000914201D84C4900E04C49884201D2012007
:1005800070BD4B492368B0FBF1F15E6826F03F0671
:100590000E435E606368934206D94FF496735943E5
:1005A0004FF47A73B1FBF3F12368491C1E6A26F0FD
:1005B0003F06314319626168914210D84900401EDC
:1005C000B0FBF1F2521CC2F30B02042A01D2042048
:1005D00022E0B0FBF1F0401CC0F30B001CE0A2686D
:1005E000F2B301EBC10303EB0116431EB3FBF6F3B9
:1005F0005B1C43F480431B0549D092B301EBC1025D
:1006000002EB0111401EB0FBF1F0401CC0F30B00E7
:1006100040F4804040F400402168CA694CF6FF7302
:100620009A431043C861D4E9071001432068026867
:1006300022F0C00211430160D4E9030101432068A4
:10064000826848F2FF339A4311438160D4E905017F
:1006500008432168CA6822F0FF021043C86001E025
:100660000EE016E02068016841F001010160256498
:10067000202084F83D00256384F83E50002070BDA2
:1006800001EB4106431EB3FBF6F35B1CB3E701200D
:10069000C2E701EB4101401EB0FBF1F0401CC0F38A
:1006A0000B00B7E7A086010080841E0000093D0012
:1006B00040420F002DE9F84F1F4690468A460446F7
:1006C000DDF82890FFF72CFF054694F83D00202820
:1006D0007FD11923012240492046009500F08AFC71
:1006E000002876D194F83C00012872D0012084F8CB
:1006F0003C0020680168C90703D1016841F001018D
:1007000001602068016821F400610160212084F803
:100710003D00102084F83E0000262664C4F82480A2
:100720006785608D20852D48E0622B464A465146FC
:10073000204600F0EBFB90B9206841698069009089
:1007400036E02A464946204600F0D3FC50B1206CE2
:10075000042804D12068016841F40071016001207F
:10076000BDE8F88F606A216800780861606A401C03
:100770006062618D491E6185218D491E89B2218586
:1007800022685369DB435B070BD451B100781061D9
:10079000606A401C6062608D401E6085208D401E36
:1007A00020852A464946204600F0FEFB0028CED18F
:1007B000208D0028C5D154F83D0B016841F400712B
:1007C0000160202004F81E09E67766770020C7E75D
:1007D000FFE70220C4E70000020010000000FFFF56
:1007E000F0B587B0044614216846FFF723FD27685B
:1007F000234CDFF888C00022214912230325042658
:1008000020481034674518D10F6847F002070F6081
:10081000096802AF01F002010591C021CDE9001382
:1008200087E864006946FFF793FD206840F40010F4
:100830002060206800F400101CE0DFF84CC0674521
:1008400019D10F6847F002070F60096802AF01F085
:10085000020105914FF44061CDE9001387E864007F
:100860006946FFF775FD206840F48000206020682D
:1008700000F48000059007B0F0BD00000054004077
:1008800030380240000402400058004002488168AD
:100890000278114481607047840200200B4810B533
:1008A000016841F400710160016841F480610160F8
:1008B000016841F480710160032000F061F80020BC
:1008C00000F006F800F024F8002010BD003C0240C3
:1008D00070B50D4D04464FF47A712878B1FBF0F0F5
:1008E0000A490968B1FBF0F000F0E4FA48B9102CAD
:1008F00007D200222146501E00F022F800206C6032
:1009000070BD012070BD0000840200209002002014
:100910000A4808B5016841F480410160006800F4AC
:10092000804000900548001F016841F0805101603F
:10093000006800F08050009008BD0000443802407C
:10094000F0B40E4B1B680C46C3F30223C3F107053A
:10095000042D00D90425191D072901D2002300E028
:10096000DB1E012606FA05F1491E214099409E40F2
:10097000761E16403143F0BC01F096BE0CED00E04F
:10098000064900F0070208684FF6FF03184040EAE6
:100990000220034A10430860704700000CED00E09D
:1009A0000000FA052DE9F0470E46050065D0DFF896
:1009B0001481D8F80000F7B200F00F00B04207D25F
:1009C00088F80070D8F8000000F00F00B04254D151
:1009D00028683D4C810712D5400703D5206840F4B4
:1009E000E05020602878000703D5206840F460407C
:1009F00020602068A96820F0F00008432060287873
:100A0000C0072DD0304968680839012812D0022863
:100A100013D0032811D00968890700292DDA21682D
:100A200021F0030101432160FFF77AFD814641F285
:100A3000883A0EE009688903EFE709688901ECE765
:100A4000FFF76EFDA0EB0901514502D90320BDE877
:100A5000F0872068696800F00C00B0EB810FEFD1DF
:100A6000D8F80010404601F00F01B14207D90770D5
:100A7000006800F00F00B04201D00120E7E72878BD
:100A8000400705D52068E96820F4E050084320605D
:100A90002878000706D52068296920F4604040EADC
:100AA000C100206000F028F82168084AC1F3031152
:100AB000515CC8400649086006480068FFF708FF17
:100AC0000020C4E7003C024008380240143000080F
:100AD0009002002088020020044805490068096847
:100AE000044AC1F38221515CC84070479002002043
:100AF0000838024024300008154810B5006810F08E
:100B00000C02144813D04110042A0FD0082A0ED129
:100B10000F4C241F2268236802F03F025B0207D5B6
:100B20002068C0F38810A0FB010106E0084610BD54
:100B30002168C1F38811A1FB00010023FFF742FBEC
:100B40002168C1F30141491C4900B0FBF1F010BD1F
:100B5000083802400024F4002DE9F84F040076D054
:100B60002078DFF838A3CE4DC00749D0DAF800105E
:100B70005046C1F38101012908D00068C0F381000B
:100B800002280AD1281D0068400206D52868800383
:100B900036D560680028E2D032E06068B0F5803F6A
:100BA00010D0B0F5A02F286810D020F48030286035
:100BB000286820F4802028606068A0B1FFF7B0FCAE
:100BC00006460CE0286840F48030F4E740F48020CA
:100BD0002860F7E7FFF7A4FC801B642873D8286817
:100BE0008003F7D50CE0FFF79BFC064605E000BF4D
:100BF000FFF796FC801B6428F0D828688003F7D4A0
:100C00002078DFF8A08280074FF000093ED5DAF89F
:100C10000010504611F00C0F09D00068C0F381009D
:100C200002280BD19D48001F0068400206D42868A6
:100C3000800715D5E068012809D111E0E068B8B156
:100C40000120C8F80000FFF76BFC064605E020E134
:100C5000FFF766FC801B0228C0D828688007F7D5FC
:100C60002868216920F0F80040EAC10028600DE002
:100C7000C8F80090FFF754FC064604E0FFF750FC6C
:100C8000801B02281FD828688007F7D42078000727
:100C900022D5824E844861696C3671B101210160B0
:100CA000FFF73EFC074604E0FFF73AFCC01B0228B2
:100CB00009D830688007F7D50EE0C0F80090FFF73C
:100CC0002FFC074605E082E0FFF72AFCC01B022844
:100CD0007DD830688007F7D42078400768D5DFF8E2
:100CE000BCB100270BF1380BDBF80000C0000BD4BF
:100CF000DBF8001041F08051CBF80010DBF8000069
:100D0000012700F080500090684E3068C00510D474
:100D1000306840F480703060FFF702FC009005E01E
:100D2000FFF7FEFB0099401A022850D83068C00532
:100D3000F6D55A4EA068683601280FD005283068CD
:100D400010D020F001003060306820F004003060E6
:100D5000A068B8B1FFF7E4FB00900FE0306840F006
:100D60000100F4E740F004003060F7E7FFF7D8FB3C
:100D70000099411A41F28830814266D83068800774
:100D8000F4D50EE0FFF7CCFB009007E0FFF7C8FBBF
:100D90000099411A41F28830814256D83068800764
:100DA000F4D42FB1DBF8001021F08051CBF8001003
:100DB000A069D0B3DAF800205146C2F38102022ABA
:100DC0004AD00228484607D0C8F8600000E03CE05E
:100DD000FFF7A6FB04463BE04746C8F86000FFF774
:100DE0009FFB064605E000BFFFF79AFB801B022829
:100DF0002BD828688001F7D4D4E907010843A16AF9
:100E00002B4A490802EB0141626A41EA8211084318
:100E100094F82C1040EA01612048001F0160012075
:100E20003866FFF77DFB044605E034E0FFF778FB0A
:100E3000001B022809D828688001F7D52BE000BFE5
:100E4000FFF76EFB001B022802D90320BDE8F88FD4
:100E500028688001F4D41EE00128F7D00868E26910
:100E600000F48001914214D1226A00F03F019142C6
:100E70000FD147F6C071626A0140914209D1A26A5E
:100E800000F44031914204D1E16A00F07060884280
:100E900001D00120DAE70020D8E70000083802403E
:100EA0000038024000004742800E47420070004078
:100EB0000000FFFF10B5401EB0F1807F01D301207C
:100EC00010BD4FF0E02460610F21601701F0ECFBD2
:100ED0000020A06107202061002010BDFEE701680E
:100EE0004A69D24352050FD46FF480624A610021EF
:100EF00040F8301F202242738173026942F00402DD
:100F0000026101730120704700207047F8B5044664
:100F1000C06A1E460D461746082807D0012805D08E
:100F200010F5803F02D0206B122804D120680168A0
:100F300041F480710160134600224FF001112046F8
:100F4000009600F057F840B120680068C00502D54F
:100F50004FF4007020640320F8BD2069B0F5804F85
:100F60000ED00620216800EAD51040F0F00008619C
:100F700033463A460B49204600F070F878B902E053
:100F800005F0FE0000E0E8B221680861054933463B
:100F90003A46891F204600F061F80028DCD0012085
:100FA000F8BD00000800010070B516460D46044665
:100FB0000DE02046FFF793FF08B1012070BD681CCB
:100FC00005D0FFF7ADFA801BA84207D835B12068DD
:100FD0004069C0434007ECD4002070BD002044F8B5
:100FE000300F20216173A073216941F0200121613C
:100FF0002073E2E72DE9F0471E4690460D46044671
:10100000C1F30747DDF8209008E0701C06D0FFF719
:1010100087FAA0EB0900B0420FD876B12068012F03
:1010200018D0806925EA00000004000C14D00021CB
:101030004145EAD00020BDE8F087002044F8300F99
:1010400020216173A073216941F020012161207387
:101050000120F0E74069E5E70121E9E72DE9F047E4
:101060009A4691460E46044600254FF02008C1F3EB
:10107000074725E020684069C043400514D4206834
:10108000016841F40071016021686FF4806048617B
:10109000256384F83D8084F83E50206C40F00400C5
:1010A000206484F83C501FE0B9F1FF3F08D0FFF7FF
:1010B00037FAA0EB0A0149450CD8B9F1000F09D065
:1010C0002068012F13D0806926EA00000004000C7C
:1010D0000BD0CFE744F8305F84F80D80A57320690A
:1010E00040F02000206125730120BDE8F0874069B1
:1010F000EAE770B516460D4604460DE02046FFF7B8
:10110000EEFE08B1012070BD681C05D0FFF708FA9B
:10111000801BA84207D835B120684069C04300064B
:10112000ECD4002070BD002044F8300F2021617302
:10113000A073216941F0200121612073E2E7FEE7FD
:10114000704770477047FFF7A1BB00000548016872
:1011500041F47001016003494FF00060803908607C
:101160007047000088ED00E0FEE700002DE9FC413B
:101170000025012411E0774801F093FA401E00B2E7
:10118000CDE9000400222B461146724800F08EFE85
:10119000704801F0E5F92D1D2DB26E4801F07EFA80
:1011A000A842E8DC002510E06A4801F077FA401E0A
:1011B000CDE9005403B200221146664800F076FEE5
:1011C000644801F0CDF92D1D2DB2624801F069FA95
:1011D000A842E9DCFA20FFF7A9F85E4800F01AFF00
:1011E00000252E4610E000BF01F05BFA401ECDE95D
:1011F000006402B22B460021564800F057FE5548C5
:1012000001F0AEF92D1D2DB2524801F047FAA84267
:101210005048E9DC01F045FA401E05B215E04D48A2
:1012200001F03CFA401E07B24A4801F03AFA401E6B
:10123000CDE9005402B23B460021464800F036FE9C
:10124000444801F08DF92D1F2DB2002DE7DAFA2068
:10125000FFF76CF83F4800F0DDFE3E4801F01EFA53
:10126000401E05B215E000BF01F01BFA401E07B298
:10127000384801F013FA401ECDE9006401B22B4654
:101280003A46344800F012FE324801F069F92D1F49
:101290002DB23048002DE7DA01F003FA401E05B206
:1012A00015E02C4801F0FDF9401E06B2294801F076
:1012B000F5F9401ECDE9005401B20023324625481D
:1012C00000F0F4FD234801F04BF92D1F2DB2002D45
:1012D000E7DAFA20FFF72AF81E4800F09BFE002507
:1012E00010E01C4801F0DAF9401ECDE9005401B2CB
:1012F00000231A46174800F0D9FD164801F030F9CE
:101300002D1D2DB2134801F0CCF9A842E9DC0025CF
:1013100015E0104801F0C5F9401E06B20D4801F075
:10132000BDF9401ECDE9006401B22B4600220948F8
:1013300000F0BCFD074801F013F92D1D2DB2054842
:1013400001F0ACF9A842E4DCBDE8FC41FA20FEF76C
:10135000EDBF00004C0300202DE9FC4100240125D5
:101360001BE0134801F09DF9674200EB470006B20D
:101370000F4801F093F900EB4700CDE9006503B297
:10138000224611460A4800F0E7FD094801F0E8F856
:101390000120FEF7CBFFA41C24B2054801F081F91F
:1013A00000EBD070B4EB600FDBDBBDE8FC8100002C
:1013B0004C0300202DE9FC41012500241FE01548C5
:1013C00001F06FF9674200EB470006B2114801F0E7
:1013D00065F900EB470003B205F00100CDE90060BC
:1013E000224611460B4800F0E6FD0A4801F0B8F825
:1013F0000120FEF79BFF6D1CE41CEDB224B20548F2
:1014000001F04FF900EBD070B4EB600FD7DBBDE813
:10141000FC8100004C030020F8B50024012519E0F0
:101420000F4801F03EF906460D4801F037F906EB8A
:10143000D6714A1000EBD070411023460848009541
:1014400000F0C6F9064801F08BF80120FEF76EFFA8
:10145000A41C24B2024801F024F9A042E0DCF8BD4B
:101460004C0300202DE9FF47002443E02C4801F005
:1014700018F980462A4801F011F90746284801F07A
:1014800010F90646264801F009F90546244801F0FE
:1014900008F98146224801F001F9014608EBD870AD
:1014A00004EB6000012200B207EBD77306EBD6769F
:1014B00004EB630304EB6606CDE902021BB236B20D
:1014C000CDE9006305EBD570C4EB600003B209EB16
:1014D000D970C4EB600002B201EBD170411010482A
:1014E00000F038FA0E4801F03BF80120FEF71EFF2D
:1014F000641D24B20A4801F0D1F80546084801F0FD
:10150000D0F88542064802DA01F0C8F801E001F09F
:10151000C8F800EBD070B4EB600FA7DBBDE8FF8725
:101520004C0300202DE9FF470125304801F0B6F8B3
:1015300004462E4801F0B5F884422C4802DA01F046
:10154000ADF801E001F0ADF800EBD070441048E0D8
:10155000264801F0A6F88146244801F09FF880460D
:10156000224801F09EF80746204801F097F8064609
:101570001E4801F096F882461C4801F08FF801469B
:1015800009EBD97004EB600002B208EBD87007EBEE
:10159000D77704EB670704EB60003FB20DF1040856
:1015A000012300B2009788E80D0006EBD670C4EB6B
:1015B000600003B20AEBDA70C4EB600002B201EB28
:1015C000D1704110094800F0EBF90DB1002500E0A1
:1015D0000125064800F0C4FF0120FEF7A7FE641FA6
:1015E00024B2002CB4DCBDE8FF8700004C030020CF
:1015F0002DE9FE4300246FF0010825E0184801F0B2
:1016000050F80546164801F04CF8674200EB4700D9
:1016100006B2134801F042F800EB470003B2E817A6
:1016200005EB9070012180100096CDE90101224662
:1016300011460B4800F081FA094800F091FF0120A3
:10164000FEF774FEA41C24B2054801F02AF800EB52
:10165000D07108EB6100A042D0DCBDE8FE83000041
:101660004C0300202DE9FE43012500246FF0010901
:1016700029E01A4801F015F80746184801F011F85A
:10168000C4F1000800EB480006B2144801F006F867
:1016900000EB480003B2F81707EB9070801000963B
:1016A000CDE90105224611460C4800F0B8FA0DB10B
:1016B000002500E00125094800F052FF0120FEF757
:1016C00035FEA41C24B2054800F0EBFF00EBD071FE
:1016D00009EB6100A042CCDCBDE8FE834C03002096
:1016E00030B593B030216846FEF7A4FD14210CA854
:1016F000FEF7A0FD19480025016841F08051016006
:10170000006800F0805011901548016841F4804154
:1017100001600068022400F48040119001200390D1
:1017200010200490009406940820CDE90750A820CA
:10173000CDE9090407200B906846FFF70DFA0CA9C4
:101740000F2081E831004FF4A0500F90E00210907C
:1017500005210CA8FFF726F913B030BD4038024030
:10176000007000402DE9FF5F9946DDE90E78FE1D0F
:10177000F01706EB507092468B4640F3CF060025DB
:1017800022E000241CE0E01704EB507109EBE100BB
:1017900015FB0600007804F007028021D1400842C2
:1017A0000CD00AEB050002B20BEB040001B200986A
:1017B000109B0068D0F800C00098E047641C24B279
:1017C000BC42E0DB6D1C2DB24545DADBBDE8FF9F76
:1017D0002DE9FF5F0546C3F101001C460FFA80FAB0
:1017E000C3EBC430400000B20026029090461019AE
:1017F00002B2286889464FF0010B076828460E9B05
:10180000B847A8EB040002B2286849460E9B076857
:101810002846B84709EB040001B2286842460E9BEF
:1018200007682846B847A9EB040001B22868424679
:101830000E9B076864E000BFBAF1000F08DB641E6E
:10184000029824B2801C00B2029050440FFA80FA31
:101850000BF102000FFA80FB0AEB0B000FFA80FA83
:1018600008EB0400761C02B236B209EB060001B2A6
:101870000092039128680E9B07682846B847A9EB99
:10188000060001B201912868009A0E9B076828465D
:10189000B847A8EB040002B20092286803990E9B97
:1018A00007682846B8472868DDE900210768284608
:1018B0000E9BB84708EB060002B209EB040001B228
:1018C0000092039128680E9B07682846B847A9EB49
:1018D000040001B201912868009A0E9B076828460F
:1018E000B847A8EB060002B20092286803990E9B45
:1018F00007682846B8472868DDE9002107680E9B7D
:101900002846B847A64297DBBDE8FF9F2DE9FE4376
:1019100007461C46012000EB440003B216460A9D10
:10192000101B02B2009538688846D0F808C03846C7
:10193000E04700200321CDE90010234632460295FE
:101940004146384600F03CFABDE8FE8301B901216A
:10195000017570472DE9FC5F0446DDE90E65DDE9A0
:101960000C78CDE9007500689B469146D0F804C01C
:101970008A462046E047CDE90065206843463A465E
:10198000D0F804C059462046E047CDE900952068CC
:1019900053463246456841462046A847BDE8FC9F6D
:1019A0002DE9FF4F89B01C46DDE91660DDF8609037
:1019B00015468846B24203DD3546444616469846EB
:1019C0004E4505DD4946B1460E46014620460C46C9
:1019D000B54205DD294635460E464146A0460C4631
:1019E0004D451CD1414642468C4201DA214601E078
:1019F00000DD2246884201DA014602E0904200DD25
:101A0000024619980090501A401C03B209982A46C1
:101A10000068C4680998A0470DB0BDE8F08FA4EB3A
:101A2000080109B20791711B09B20691A0EB0801E8
:101A300009B20191001BA9EB050109B200B2CDE981
:101A40000201A9EB060000B24FF0000BDA46049049
:101A50004E4501D1059602E0701E00B205902F465A
:101A600022E00699039A9BFBF1F19AFBF2F2079BA5
:101A700001EB080001B29B4402EB0800019B00B29D
:101A80009A44814202DD0A4601461046401A401C33
:101A900003B20998199A009200683A46D0F80CC02F
:101AA0000998E0477F1C3FB205988742D9DD02992B
:101AB000B81B00FB01FA01987D1B454320E0049808
:101AC000029B9AFBF0F0204401B203989A4495FBE4
:101AD000F0F202EB0800019A00B21544814202DDE7
:101AE0000A4601461046401A401C03B20998199A4A
:101AF000009200683A46C6680998B0477F1C3FB21A
:101B00004F45DCDD88E74182018270471CB50B44FC
:101B1000049C5B1ECDE9002404681BB26468A047E6
:101B20001CBD1CB513445B1E049C1BB2CDE90034E4
:101B300003685C680B46A0471CBD2DE9FF4F83B0CE
:101B40000746DDE911657042CDE900509B4603EB85
:101B5000400003B204989246304401B23868994676
:101B60008846C4683846A047109900950AEB0100E2
:101B70000290401E02B238684B464146C46838465F
:101B8000A04710990198009501EB400003B20AEBC1
:101B9000060004B2386899462246D0F808C0384694
:101BA0000499E04704984B4600EB0B09A9F10100AA
:101BB000009501B238682246D0F808C03846E047A0
:101BC0000120CDE90005224641463346384600F063
:101BD00063F80220CDE90005A9EB0600401E01B222
:101BE000224689463346384600F056F80420CDE9AF
:101BF000000502984946801B401E04B23346224627
:101C0000384600F049F80820CDE900052246414653
:101C10003346384600F040F807B0BDE8F08F2DE9B4
:101C2000FF4F83B09946DDE91147C4F1000803EB8B
:101C3000480003B20819DDF840B006B2CDE900B79C
:101C400003988A4631460068059A45690398A84773
:101C50000BEB4800401E0FFA80F80121CDE9001877
:101C600005980297204402B20AEB0900001B401EAF
:101C700001B215462346039800F0A2F80221CDE9EF
:101C800000182A46029731462346039800F098F838
:101C900007B0BDE8F08F00002DE9F84F8046C3F192
:101CA00001000FFA80F9C3EBC330400000B2DDF849
:101CB00028B016460F464FF0010A00251C4600903A
:101CC0007AE000BFB9F1000F08DB641E009824B26F
:101CD000801C00B2009048440FFA80F90AF102001B
:101CE0000FFA80FA6D1C09EB0A000FFA80F92DB289
:101CF0005FEA4B7015D5301902B2781901B2D8F8E5
:101D000000000B9BD0F800C04046E047701902B2BB
:101D1000381901B2D8F800000B9BD0F800C040463B
:101D2000E0475FEA8B7015D5301B02B2781901B21B
:101D3000D8F800000B9BD0F800C04046E047701B6D
:101D400002B2381901B2D8F800000B9BD0F800C0DD
:101D50004046E0475FEA0B7015D5701902B2381B98
:101D600001B2D8F800000B9BD0F800C04046E04715
:101D7000301902B2781B01B2D8F800000B9BD0F8E2
:101D800000C04046E0475FEACB7015D0701B02B23E
:101D9000381B01B2D8F800000B9BD0F800C04046B9
:101DA000E047301B02B2781B01B2D8F800000B9B51
:101DB000D0F800C04046E047A54283DBBDE8F88F7D
:101DC0002DE9FC5F8246C3F1010006B2C3EBC330CC
:101DD0004000012700B290468946DDF834B0002566
:101DE0001C4601905DE0002E07DB641E019824B2C2
:101DF000801C00B20190304406B2BF1C6D1C3FB283
:101E0000F01906B20C982DB2C00723D00E9800909E
:101E10000BEB4400401C03B2A8EB040002B209EB38
:101E2000050001B2DAF80000D0F808C05046E047DB
:101E30000E9800900BEB4500401C03B2A8EB050088
:101E400002B209EB040001B2DAF80000D0F808C0D1
:101E50005046E0470C98800723D50E9800900BEB76
:101E60004400401C03B2A8EB040002B2A9EB050039
:101E700001B2DAF80000D0F808C05046E0470E98EA
:101E800000900BEB4500401C03B2A8EB050002B22A
:101E9000A9EB040001B2DAF80000D0F808C05046FF
:101EA000E047A5429FDBBDE8FC9F00002DE9FF5FF6
:101EB00014460E980E461D46021BA3EB060100D5E4
:101EC0005242002900DA49428A4207DD314626465D
:101ED00005464FF001080C46184601E04FF0000897
:101EE000AE4205DD31462E460D46214604460846E3
:101EF000A91B0FFA81F9011B00D549420FFA81FB9A
:101F000009EBD9714F10844201DA012001E04FF052
:101F1000FF3082461CE000BF00980F9BB8F1000F15
:101F20000068D0F800C002D03246214601E02246C7
:101F300031460098E047A7EB0B0007B2002F05DA07
:101F400004EB0A0004B207EB090007B2761C36B2B4
:101F5000AE42E1DDBDE8FF9F2DE9F8430446DDE92F
:101F600008650095006899461746D0F80CC0884669
:101F70002046E047B819401E02B2009520684B4643
:101F80004146D0F80CC02046E04700952068334613
:101F90003A46D0F808C041462046E04708EB090021
:101FA000401E01B20095206833463A4685682046B7
:101FB000A847BDE8F8832DE9F8439146DDE9088696
:101FC00005460C46CF180AE00096286843464A4664
:101FD000D0F808C021462846E047641C24B2A74236
:101FE000F2DCBDE8F8838181C2817047084B036051
:101FF0008180C28001814281002141758181C1813E
:10200000012101754FF6FF7242820282817570478D
:10201000343000084FF400730022014900F05ABA2E
:1020200083000020F8B504460C480022A0F181038B
:102030008D189E18521C455DD2B27570802AF7D358
:102040001025009594F91700044A81B28123813A42
:10205000206AFEF72FFB0028F3D1F8BD8300002093
:1020600070B5457D049CADB1012D04D0022D07D083
:10207000032D0FD136E08588AA1A521E12B237E01E
:102080008588691AC588491EAA1A521EC91A491C90
:1020900012B209B2002A7DDBB0F90650954279DD13
:1020A000002902DA19440BB20021B0F90400CD185E
:1020B000854201DD401A03B2002B73DDD51702EB18
:1020C00055755048ED1000EBC510084402F00702AA
:1020D00001219140C9B2002C70D0012C7AD0022C81
:1020E00060D18AE0C588691A491EC91A491C09B21B
:1020F000002A57DBB0F90450954253DD002902DA7B
:1021000019440BB20021B0F90600CD18854201DD5B
:10211000401A03B2002B45DDCDB2D9B23948EB08E5
:1021200000EBC310104415F007021DD0C2F10803E4
:10213000354A9942D25C03D25E1AFF25F5402A4007
:102140003CB1012C02D0022C09D105E005781543E1
:1021500004E00578954301E0057855400570994203
:1021600020D3C91AC9B2803008290BD3022C1AD047
:10217000012C21D05FF000020839C9B200F8802B91
:102180000829F9D200290DD0204A01F00701515C3D
:10219000CCB100E006E0012C12D0022C02D1027872
:1021A0004A40027070BD02780839D243C9B200F8C3
:1021B000802B0829F7D2E5E7FF22DDE70EE009E0F2
:1021C00002780A43EDE702788A43EAE702780A4395
:1021D00000F8012B5B1E1BB2F8D270BDC943C9B217
:1021E00003E002780A4000F8012B5B1E1BB2F8D214
:1021F00070BD02784A4000F8012B5B1E1BB2F8D27A
:1022000070BD000083000020940200209C0200208A
:1022100070B5457D049CBDB1012D04D0022D09D0BF
:10222000032D11D13EE08588AA1A521ED21A521CE3
:1022300012B23BE08588691AC588491EAA1A521E47
:10224000D21A521C09B212B200295EDBB0F9045056
:102250008D425ADD002A02DA1A4413B20022B0F984
:102260000600D518854201DD801A03B2002B4CDD33
:10227000D5B2DAB24C48EB0800EBC310084415F0B5
:10228000070164D0C1F1080348499A42C95C03D2EE
:102290009E1AFF25F54029407CB3012C49D0022C21
:1022A00050D14CE0C588691A491E09B200292CDBBF
:1022B000B0F906508D4228DD002A02DA1A4413B222
:1022C0000022B0F90400D518854201DD801A03B25E
:1022D000002B1ADDCD17344801EB5575ED1000EBDE
:1022E000C510104401F0070201219140C9B26CB140
:1022F000012C07D0022C08D117E01DE002780A4318
:1023000000F8012B5B1E1BB2F8D270BDC943C9B2E5
:1023100003E002780A4000F8012B5B1E1BB2F8D2E2
:1023200070BD02784A4000F8012B5B1E1BB2F8D248
:1023300070BD05780D4304E005788D4301E0057814
:102340004D4005709A42F3D3D11ACAB28030082AA0
:102350000AD3022C17D0012C1ED00021083AD2B289
:1023600000F8801B082AF9D2002AE1D002F0070108
:102370000F4A515CACB1012C10D0022CD8D102789C
:102380004A40027070BD0178083AC943D2B200F8E1
:10239000801B082AF7D2E7E7FF21DFE702780A432C
:1023A000EFE702788A43ECE78300002094020020E4
:1023B0009C02002009B1A72100E0A621AFF3008014
:1023C00038B50446074810254170009594F9170068
:1023D000022381B2034A206AFEF76CF90028F4D187
:1023E00038BD00000000002070B501760C4605469F
:1023F000C275AE21FFF7E4FFD5212846FFF7E0FFC5
:1024000080212846FFF7DCFFA8212846FFF7D8FFE8
:102410001F212846FFF7D4FFD3212846FFF7D0FF1E
:1024200000212846FFF7CCFF40212846FFF7C8FFD0
:102430008D212846FFF7C4FF012C47D014212846E0
:10244000FFF7BEFF20212846FFF7BAFF00212846EC
:10245000FFF7B6FFA1212846FFF7B2FFC8212846A3
:10246000FFF7AEFFDA212846FFF7AAFF0221284630
:10247000FFF7A6FF81212846FFF7A2FF8F212846FC
:10248000FFF79EFFD9212846FFF79AFF012C1FD0A6
:10249000F1212846FFF794FFDB212846FFF790FF44
:1024A00040212846FFF78CFFA4212846FFF788FF2C
:1024B000A6212846FFF784FF2E212846FFF780FF3C
:1024C0002846BDE87040AF21FFF77ABF1021B6E77C
:1024D0002221DEE7002002E08854521C92B29A4288
:1024E000FAD37047F0B5B0F90E20D31702EB537250
:1024F000C2F3C70400232AE0174D184E0022CF5C18
:102500003F01A7F50077174415F807C0B0F90C7024
:1025100007EBC41E02EBC307BE4406F80EC011F859
:1025200003C0B0F90CE04FEA0C1CACF5007C9444FD
:102530000EEBC41EAC4477443744521C9CF808C0D0
:1025400092B287F880C0082AD9D35B1C9BB2CA5CC0
:10255000002AD1D1F0BD0000042A00088300002029
:1025600070B506462121FFF72BFF00213046FFF70B
:1025700027FF7F213046FFF723FF22213046FFF758
:102580001FFF00213046FFF71BFF03213046FFF7F6
:1025900017FF00244FF4007521463046FFF742FD37
:1025A0008034A4B2AC42F7D370BD00002DE9F041F5
:1025B0001E4614460D0007463CD400F06FF8A842B2
:1025C00038DD002C36DB384600F06BF8A04231DDF8
:1025D000384600F061F8012804D0022809D0032809
:1025E00014D10DE02046B9882C46081A401E05B2C9
:1025F0000CE0B888401B401E05B2F888001B03E0C1
:102600002846F9882546081A401E04B217490120B9
:10261000FEB1012E10D0022E0CD1E21704EB527243
:10262000D21005EBC212114404F007030A78984057
:1026300042400A70BDE8F081E21704EB5272D210FA
:1026400005EBC212114404F007030A7898400243D4
:10265000EFE7E21704EB5272D21005EBC2121144FD
:1026600004F007030A7898408243E2E783000020E1
:1026700070B514460D4620228021FFF7B7FC0549AE
:102680000160FF2141764177C1768176047705624A
:1026900070BD00005C300008407D7047B0F9080054
:1026A0007047B0F90A0070470907090E002804DBDB
:1026B00000F1E02080F80014704700F00F0000F1F6
:1026C000E02080F8141D70470020FDF7EEBD02E009
:1026D00008C8121F08C1002AFAD1704770470020AD
:1026E00001E001C1121F002AFBD17047074910B554
:1026F000002201F1A800FFF7BBFF0449002254317A
:10270000BDE8104001F17800FFF7B2BFA40200203D
:1027100086B0FEF7C3F8FEF7E3FF14216846FDF725
:1027200089FDAD480024016841F00801016001689D
:1027300001F008010591016841F0020101600068A3
:10274000A64F00F002004FF470450590224629463E
:102750003846FDF7E0FE01260095CDE901646946A3
:1027600038460394FDF7F4FD9E489D49DFF87882D2
:102770000160C0E901840D14C0E90345446184612E
:10278000C4610462FDF7D2FE964898495430016056
:10279000C0E90184C0E9034544618461C461046205
:1027A000FDF7C4FE8F48012378220221A830FFF7ED
:1027B0001BFE8C48012378220221CC30FFF714FE47
:1027C0008848A830FFF7CCFE8648CC30FFF7C8FE1B
:1027D00041F28830FDF7AAFD8248A830FFF71AFCC5
:1027E0008048A830FFF7BCFE7E48CC30FFF712FCD3
:1027F0007C48CC30FFF7B4FE7A480221A830FFF7BE
:10280000A5F878480121A830FFF77DF9754808221E
:102810001C21A830FFF7E7FB724875A1A830FFF72D
:1028200061FE7048A830FFF79BFE6E480221CC3055
:10283000FFF78CF86B480121CC30FFF764F9694849
:1028400008221C21CC30FFF7CEFB66486AA1CC30B1
:10285000FFF748FE6348CC30FFF782FE4FF4FA647E
:102860002046FDF763FD5F48A830FFF7D3FB5D48C6
:10287000A830FFF775FE5B48CC30FFF7CBFB59481B
:10288000CC30FFF76DFEFEF771FC5648A830FFF71D
:1028900067FE2046FDF74AFD5248A830FFF7BAFB15
:1028A000FEF75AFD4F48A830FFF75AFE2046FDF7C5
:1028B0003DFD4C48A830FFF7ADFBFEF77BFD4948D6
:1028C000A830FFF74DFE2046FDF730FD4548A83003
:1028D000FFF7A0FBFEF7A0FD4248A830FFF740FE3F
:1028E0002046FDF723FD3F48A830FFF793FB3D4806
:1028F000A830FFF7D6FE80463A48A830FFF7CEFE54
:1029000008EBD8714A1000EBD070411035480A230B
:10291000A8300096FEF7FAFF3248A830FFF720FEF5
:102920002046FDF703FD2F48A830FFF773FBFEF7A5
:102930005FFE2046FDF7FAFC2A48A830FFF76AFB45
:10294000FEF790FE2046FDF7F1FC2648A830FFF781
:1029500061FBFEF787FD2046FDF7E8FC2148A83023
:10296000FFF758FBFEF7DEFD2046FDF7DFFC1D48B4
:10297000A830FFF74FFB1B48A830FFF74BFB102098
:102980000090CDE90106024616481D4B1E21A830D5
:10299000FEF7E8FE1348A830FFF7E2FDA41020463A
:1029A000FDF7C4FC2646640029463846FDF7ACFD19
:1029B0003046FDF7BBFC0B480121A830FFF7FAFCBD
:1029C0002046FDF7B3FC07480021A830FFF7F2FCD2
:1029D0002046FDF7ABFCE7E730380240000C024030
:1029E00000540040A4020020A086010000580040CE
:1029F00041796F7562000000536F75737369000051
:102A0000F42F00080000000000000000000000009B
:102A100000000000000000F800000000000000338B
:102A20003000000000100C06100C06000000000032
:102A30000000000040C07840C0784000043F04041B
:102A40003F040400007088FC08300000001820FFDC
:102A5000211E0000F008F000E018000000211C0317
:102A60001E211E0000F00888700000001E21232493
:102A70001927211010160E000000000000000000B1
:102A800000000000000000E0180402000000000741
:102A90001820400000020418E00000000040201848
:102AA00007000000404080F0804040000202010F1B
:102AB00001020200000000F0000000000101011FFF
:102AC00001010100000000000000000080B0700063
:102AD00000000000000000000000000000010101F3
:102AE0000101010100000000000000000030300082
:102AF000000000000000000080601804006018065C
:102B00000100000000E010080810E000000F102095
:102B100020100F00001010F8000000000020203FDF
:102B20002020000000700808088870000030282469
:102B3000222130000030088888483000001820200A
:102B400020110E000000C02010F80000000704242F
:102B5000243F240000F80888880808000019212074
:102B600020110E0000E0108888180000000F1120CE
:102B700020110E0000380808C83808000000003F87
:102B8000000000000070880808887000001C2221E6
:102B900021221C0000E010080810E0000000312293
:102BA00022110F00000000C0C00000000000003033
:102BB0003000000000000080000000000000806085
:102BC0000000000000008040201008000001020406
:102BD00008102000404040404040400004040404ED
:102BE00004040400000810204080000000201008A9
:102BF00004020100007048080808F00000000030DE
:102C000036010000C030C828E810E000071827246B
:102C100023140B000000C038E0000000203C230219
:102C20000227382008F8888888700000203F20207C
:102C300020110E00C03008080808380007182020AE
:102C40002010080008F808080810E000203F2020A5
:102C500020100F0008F88888E8081000203F202086
:102C60002320180008F88888E8081000203F20007A
:102C700003000000C03008080838000007182020B2
:102C8000221E020008F808000008F808203F210171
:102C900001213F20000808F8080800000020203F1C
:102CA0002020000000000808F8080800C08080808C
:102CB0007F00000008F888C028180800203F200185
:102CC0002638200008F8080000000000203F2020DF
:102CD0002020300008F8F800F8F80800203F003FF6
:102CE000003F200008F830C00008F808203F20000E
:102CF00007183F00E01008080810E0000F1020201F
:102D000020100F0008F808080808F000203F2101F3
:102D100001010000E01008080810E0000F1824244A
:102D200038504F0008F8888888887000203F2000BD
:102D3000030C302000708808080838000038202173
:102D400021221C00180808F8080818000000203F7D
:102D50002000000008F808000008F808001F2020E4
:102D600020201F000878880000C8380800000738B5
:102D70000E010000F80800F80008F800033C070006
:102D8000073C0300081868808068180820302C036E
:102D9000032C30200838C800C83808000000203F45
:102DA0002000000010080808C83808002038262134
:102DB00020201800000000FE020202000000007F38
:102DC00040404000000C30C0000000000000000146
:102DD0000638C00000020202FE0000000040404031
:102DE0007F00000000000402020204000000000056
:102DF00000000000000000000000000080808080D3
:102E000080808080000202040000000000000000BA
:102E10000000000000008080808000000019242253
:102E200022223F2008F8008080000000003F11208F
:102E300020110E000000008080800000000E112094
:102E400020201100000000808088F800000E112072
:102E500020103F200000808080800000001F222280
:102E600022221300008080F0888888180020203FEC
:102E7000202000000000808080808000006B9494FF
:102E80009493600008F8008080800000203F2100BB
:102E900000203F2000809898000000000020203F84
:102EA00020200000000000809898000000C0808072
:102EB000807F000008F8000080808000203F24020E
:102EC0002D302000000808F8000000000020203FFE
:102ED000202000008080808080808000203F2000B3
:102EE0003F20003F8080008080800000203F210044
:102EF00000203F200000808080800000001F2020F4
:102F000020201F00808000808000000080FFA12022
:102F100020110E000000008080808000000E112033
:102F200020A0FF80808080008080800020203F21C2
:102F30002000010000008080808080000033242475
:102F400024241900008080E0808000000000001F21
:102F5000202000008080000000808000001F2020D2
:102F600020103F20808080000080808000010E3093
:102F70000806010080800080008080800F300C03F4
:102F80000C300F0000808000808080000020312EF7
:102F90000E312000808080000080808080818E70D3
:102FA0001806010000808080808080000021302C85
:102FB0002221300000000000807C0202000000009E
:102FC000003F404000000000FF0000000000000043
:102FD000FF0000000002027C800000000040403F33
:102FE00000000000000601010202040400000000CD
:102FF0000000000000000020006000E000E0EECCD7
:103000007ECE7FDE7FFF3FFB3B331127000E000E9D
:10301000000C00000000000000000000010203049A
:103020000607080900000000010203040000000078
:1030300000000000C9260008AD1E0008231B000880
:103040000D1B0008591F0008B71F000800000000F2
:10305000000000000000000000000000AD25000896
:10306000AD1E00081122000861200008591F000849
:10307000B71F00080000000000000000A03000089A
:1030800000000020A4020000D0020008A4310008C3
:10309000A4020020F4040000DE26000851F6FFFF21
:1030A0002102814016060AFE0AE612F012F8B2FC6E
:1030B000C78448FE32B4482DFE060A1201F40A06FF
:1030C000FEC00986027884A4680286E00A0E7A8629
:1030D00084B4A4A67A0E8F7848FE82BABA03E94B6C
:1030E000B15301014CE0F03001480C3131F1E10104
:1030F00001E1F1313131117BF0E02A4920491622FA
:10310000F0790F2B31310F011D1440C0C01CC0C01D
:1031100040081C4040C00621390D39074193FFFF8C
:10312000290B6CFFFF6001391A2B0E0EE27914494E
:10313000167BE0E00F537F7F6B80800459055904B4
:10314000100A8080203F033C033F201E203F22279F
:1031500030061B030C0D11651F20201F8B3F7F4C79
:10316000FA3F0F11CC0707078029718A7F254B6032
:1031700060E6167F04047F401E3F4040403F0D1C28
:103180000778070E16407F444E61320182101B24DF
:10319000F49F17C0E0F0F8FCFE0008000103070FE1
:0431A0001F3F7F004E
:040000050800018965
:00000001FF
