:020000040800F2
:10000000380E002019030008AD400008A940000880
:10001000AB400008011900084D4100080000000035
:10002000000000000000000000000000B1400008D7
:100030000319000800000000AF400008B3400008AA
:1000400033030008330300083303000833030008B8
:1000500033030008330300080519000833030008C0
:100060003303000833030008330300083303000898
:100070003303000833030008330300083303000888
:100080003303000833030008330300083303000878
:100090003303000833030008330300082119000864
:1000A0003303000833030008330300083303000858
:1000B0003303000833030008330300083303000848
:1000C0003303000833030008330300083303000838
:1000D0003303000833030008330300083303000828
:1000E0000B1900083303000833030008330300082A
:1000F0003303000833030008330300083303000808
:1001000033030008330300083303000833030008F7
:1001100033030008330300083303000833030008E7
:1001200033030008330300083303000833030008D7
:1001300033030008330300083303000833030008C7
:1001400033030008330300083303000833030008B7
:1001500033030008330300083303000833030008A7
:100160003303000833030008330300083303000897
:1001700033030008330300083303000800000000C5
:10018000330300083303000800F002F800F065F8BC
:100190000AA090E8000C82448344AAF10107DA45E2
:1001A00001D100F05AF8AFF2090EBAE80F0013F0CF
:1001B000010F18BFFB1A43F001031847F475000044
:1001C000147600000A444FF0000C10F8013B13F0C5
:1001D000070408BF10F8014B1D1108BF10F8015BA0
:1001E000641E05D010F8016B641E01F8016BF9D193
:1001F00013F0080F1EBF10F8014BAD1C0C1B09D1EA
:100200006D1E58BF01F801CBFAD505E014F8016B5B
:1002100001F8016B6D1EF9D59142D6D370470000ED
:100220000023002400250026103A28BF78C1FBD8FF
:10023000520728BF30C148BF0B6070471FB506F09A
:100240009FFD9DE8030001F0ABF900F03DF91FBDF3
:1002500010B5002000F03DFB10BD01F08FFA1146F3
:10026000FFF7ECFF06F0B6FB01F0C7FA03B4FFF7A7
:10027000EFFF03BC01F07CFAFEB442464B46544605
:100280005D463EB400F001FA3EBC90469946A24657
:10029000AB46FEBC00F030F880EC200B7047C0ECA1
:1002A000200B704790EC200B7047D0EC200B704770
:1002B00085460D98DDF838E00F9B5DF8042B20E9AA
:1002C0000C009DE8FE1F854601BD4DF808ED0DF1BF
:1002D000080E4DF804ED2DE9FF1F002102B4694618
:1002E00081B000F08CFDDDF840E012B070470000F6
:1002F000E8740000507900004DF808ED0DF1080E8B
:100300004DF804ED2DE9FF1F002102B4694681B0CC
:1003100000F0DCBD704700BF09488047094800472E
:10032000FEE7FEE7FEE7FEE7FEE7FEE7FEE7FEE7A5
:10033000FEE7FEE704480549054A064B7047000002
:10034000314100088901000838080020380E0020DB
:10035000380A0020380A002053EA020C00F06980B5
:100360002DE9F04B4FF00006002B1FBFB3FA83F5C9
:1003700003FA05F424FA05F65E4012BF1643B2FAFA
:1003800082F502FA05F4C5F120051EBF22FA05FC2C
:1003900044EA0C04203556EA044C4FEA144418BFD2
:1003A000641C4FF000084FF00009904271EB030C01
:1003B00039D3002919BFB1FA81F701FA07F6B0FA6B
:1003C00080F700FA07F6C7F120071EBF20FA07FCE6
:1003D00046EA0C062037B6FBF4FCA7EB0507103FF6
:1003E00007F01F0BCBF120060CFA0BFB2CFA06F6DC
:1003F00044BFB3460026202FA4BF5E464FF0000B3B
:100400005BEA060C08BF4FF0010B19EB0B09ABFBC5
:10041000027C48EB0608C01B06FB02CC0BFB03CC9E
:1004200071EB0C01C1E70B46024641464846BDE868
:10043000F08B13B54FF000004FF00001AFF30080D8
:10044000BDE81C4070472DE9F041074615460E46B1
:10045000102000F00FFA04000AD06760C4E90265BA
:1004600000F004FA0168216004600020BDE8F0811A
:100470000120FBE74FF0000200B513469446964674
:10048000203922BFA0E80C50A0E80C50B1F12001A7
:10049000BFF4F7AF090728BFA0E80C5048BF0CC055
:1004A0005DF804EB890028BF40F8042B08BF7047B3
:1004B00048BF20F8022B11F0804F18BF00F8012B25
:1004C000704770477047704770B5064C7C44064DC6
:1004D0007D4403E0206820448047241DAC42F9D1CC
:1004E00070BD0000007300000473000070B5044686
:1004F00000F027FB783405462646204600F0BAF97E
:10050000040007D13146E86900F032FA040001D155
:1005100000F084F80AA104F12000D1E90021C0E92B
:1005200000210021A162E16261612161A161E161BB
:10053000A868E0606868A06004F1780070BD000001
:1005400041524D00432B2B00000000002DE9F14DDE
:10055000D0E90C8581B00646D0F828A000F0F1FA69
:100560000446A6F12007304600F07CFA304600F041
:1005700021FA08B1606800E0B868206100F0AEFAC6
:10058000BDE8FC8D00F06EFA6669BE4202D100F053
:1005900044FA0DE03069606100F03FFA05E000F0D8
:1005A00061FA00F0CFF900F038FA606930616661F5
:1005B00000273C4606F1200B11E02E686B46002216
:1005C0003146584600F0C0F808B100F0FDF9314658
:1005D000104805F0B9FF00B101274544641C54459B
:1005E000EBD38FB1684605F0F3FF0420FFF77EFFE1
:1005F000694605F0E5FF0446684605F0F8FF064A3F
:100600000449204600F085F8584600F007F800F04D
:1006100004FAB5E77C750008EF65000870B505467B
:1006200000F08FFA04461DB1284600F0C3F908B166
:10063000A06801E055F8140C206101202073BDE88A
:10064000704000F07FB9040001D000F00BFA2046A2
:10065000FFF7E4FF70B5054600F073FA044628463C
:1006600000F0A8F938B12946A06900F046FAC1693E
:10067000491CC16102E0A5F12000C169012902D134
:10068000A1698161A061012070BD70B500F059FAC7
:10069000846905460CB900F055F904F1200630468E
:1006A00000F088F968B1E0692668012802D0401E90
:1006B000E0610BE0A16904F17800A96100F031F973
:1006C00004E0E069012801D1A069A861304670BD4D
:1006D00073B50C4600F035FA54F80C1C203C31B1CF
:1006E000E169491EE1610168491E01607CBD6168E4
:1006F00004F1780509B1284688472846BDE87C40C2
:1007000000F00FB900F0AEF9284600F00AF900F049
:100710005BF970B50D46A0F158044C49A160012168
:1007200040F85C1C40E91E5200F00BFA01682A46B2
:10073000491C016000212046FFF7ECFD2046FFF731
:10074000C4FD2046FFF77FFF2DE9FF4D9A469346F3
:100750000E46804600F02EF9002875D1A8F1200041
:10076000012708F1580805680024CDF808803146B3
:10077000284605F0E9FE10B1CAF8008062E028467C
:1007800005F0D1FF0190304605F0CDFF00903049D3
:10079000019805F0D9FE20B92D49009805F0D4FE46
:1007A00020B1DDE9001005F0DFFE08BB2849019803
:1007B00005F0CAFEC0B1307A297A00F0030001F0DA
:1007C0000301641C31EA00023ED130EA010100D08D
:1007D00077B1C00700D100270298ED68F6680028BD
:1007E000C5D000680290C2E7012C02D06CB109D0DC
:1007F0002AE01849304605F0A7FE18B1BBF1000FFA
:1008000022D1B9E7BBF1000F1ED11349019805F0C1
:100810009BFE20B91149019805F096FEA0B1002079
:100820000090019033462A4603A902A806F016F864
:10083000002804D00399CAF800101CB1022004B0AB
:10084000BDE8F08D0120FAE70020F8E7D1060008A6
:1008500040750008A47500084C750008587500081C
:10086000002300F091BB012300F08EBB00487047CD
:100870001008002070B5064600F06EFE056806F10F
:100880000B0020F00704B4429CBF002070BD2B4633
:100890006A68BAB11068A04210D304F10801884216
:1008A0003CBF5068586007D3516810194160116807
:1008B000091B016058601460101D70BD134652681A
:1008C000002AE7D12146284600F056FE0028DED156
:1008D00070BD2DE9F0410646FFF7C8FF804645464A
:1008E00013E016B1E068B0420ED120682860D4E968
:1008F0000101D8F800708847204600F087FED8F83C
:100900000000B842EBD100E025462C68002CE8D16D
:10091000BDE8F08110B500F0D9FEBDE8104000F050
:10092000CFBE10B5044600F00CF9783CC0692146F2
:1009300000F029F8002804D12046BDE8104000F05E
:1009400065BE10BD10B500F0FCF8016919B10022B8
:100950000261884701E08068804700F07EFE10B5A4
:100960008820FFF787FF002801D00021017010BD0B
:10097000802902D808B1017809B10020704701210F
:1009800000F8081B704718B100F10802914201D02D
:1009900000207047002101707047000002680B685A
:1009A0009A4205D140684968884201D101207047C8
:1009B0000020704710B50349FFF7F0FF80F00100F9
:1009C00010BD00001475000870B500F0BAF8446955
:1009D000054614B90020FFF721FEE06904F1200666
:1009E000401CE0613046FFF7E5FF002801D0266893
:1009F00003E0286800F10100286002D04FF00002F7
:100A000000E022684FF000013046FFF783FC3046DB
:100A1000FFF75BFC3046FFF716FE70B500F091F86B
:100A2000446905460CB9FFF78DFF6069401E60619F
:100A300017D104F120063046FFF7BCFF2169696138
:100A4000E56928B104F178002668FFF76AFF01E044
:100A500000202061002D04D13046BDE8704000F038
:100A60007FBE70BD70B50546466A00F06AF8044660
:100A70002846FFF79FFF20B12946606900F03DF846
:100A800007E0A5F12000C169491EC1612168491E26
:100A900021604169491C4161016911B961690161C4
:100AA0006061284600F028FA304670BD38B56846C7
:100AB00005F072FD0420FFF719FD694605F064FD9D
:100AC0000446684605F077FD024A03492046FFF7D1
:100AD00020FE0000B76500087075000810B500F032
:100AE00030F8016919B100220261884701E04068CD
:100AF000804700F0B2FDFFF725BF70B504000D463A
:100B000009D004F12000FFF749FF20B12068A84276
:100B100001D1204670BD0020FFF7E8FCD5E9002395
:100B2000A0F15801C1E90023002240F85C2C40F8F4
:100B3000642C40F8682C40F8785D70BD10B500F06A
:100B40008CFD70B500F010FD04680546A4B92020A6
:100B5000FFF790FE040011D0094900202C60C4E981
:100B600000010849A1602073206160610649A0610D
:100B700009B1FFF7F4FEE061204670BD00F06DFDA5
:100B8000F70A00083D0B00080000000010B5029CA9
:100B900031B101290DD003290BD004290BD108E074
:100BA0004BB90F2A07D800EB820021684160002072
:100BB00010BD012010BD022010BD10B5029C31B146
:100BC00001290DD003290BD004290BD108E04BB922
:100BD0000F2A07D800EB820040682060002010BD7B
:100BE000012010BD022010BD2DE9F04DC0B0984687
:100BF000044631B1012918D0032979D0042979D1CB
:100C000076E0B8F1000F75D190B2231D00F40052C8
:100C1000A16B05E0C50701D020C91D6040081B1D60
:100C20000028F7D1F2BBA1635EE0150C96B2102D3F
:100C300001D2012000E000208246A819102801D925
:100C4000012700E00027B8F1010F03D0B8F1050F2C
:100C500050D101E03FBB01E020284BD84FF0000B02
:100C6000BAF1000F08D02078012805D184F800B02F
:100C700004F1480080EC200B47B16078012805D1D1
:100C800084F801B004F1C800C0EC200BBAF1000FE9
:100C900002D0684680EC200B20A883460FB1C0EC40
:100CA000200B01E020E025E06B46A06B08E0014648
:100CB00003EBC502D1E900C1C2E900C108306D1CD7
:100CC000761EF4D24146B8F1010F00D0002100EBAE
:100CD0008100A063BAF1000F02D0184690EC200BFF
:100CE00017B15846D0EC200B002040B0BDE8F08D85
:100CF0000120FAE70220F8E710B50468904801F1F6
:100D00000802436803444FF0FF30934204D0136855
:100D100043F31E03134400E003460A6842F31E0235
:100D20001144A14202D89C4201D3012010BD0020F1
:100D300010BD33B50446824881B0824D01684268D7
:100D400001441044401AC21002980823801E0290E9
:100D500002A8009500F08CFC7B49002370B102686A
:100D600042F31E020244A2644268012A09D0002A0A
:100D70000ADA001DE064012020650BE004226361B3
:100D800015E00222636112E042F31E02001D1044CE
:100D9000C4E91303E26C1068002815DAC0F303609D
:100DA00050B101280AD002280CD0012263612046EC
:100DB000FFF7B0FA09203EBD644800E06448606176
:100DC00000203EBD6348FAE740F31E001044F6E7FA
:100DD0000C4605462846216CFFF7ABFF50B9206C46
:100DE00028616B692246294601209847072803D0CD
:100DF0000828EFD000F031FC201DFFF759FAF0B5BC
:100E00000446C068D3B00E46012768B35820FFF7E8
:100E100031FD05002AD0142204F10C0105F10C006B
:100E200000F06CFC182204F1200105F1200000F014
:100E300065FC04F1380005F1380C0FC88CE80F0090
:100E4000E560F06B30644022311D01A800F056FCD3
:100E50008DF800708DF8017012AF32AD20461099F8
:100E6000FFF767FFD0B910E0E760EAE705223649EF
:100E70002046FFF74FFA05E09DF8010010B928461B
:100E8000D0EC200B53B00920F0BD63696A462146BF
:100E900000209847062809D00828DFD09DF80000D8
:100EA0000028E9D1384690EC200BE5E79DF80000DA
:100EB00010B9384690EC200B9DF8010010B9284677
:100EC000D0EC200B31462046FFF782FF0546006933
:100ED00008640C460A466B69294602209847072891
:100EE00003D0082804D000F0B8FB201DFFF7E0F97C
:100EF00021462846FFF76CFF70B5C1680546D1B1A1
:100F000001291AD00C46142205F10C000C3100F016
:100F1000F5FB182204F1200105F1200000F0EEFBA2
:100F200004F1380038350FC885E80F002046BDE8C9
:100F3000704000F06BBB00F090FB0020E86070BDDB
:100F4000F0020008F90C0008010000FF6108000829
:100F50006708000800000000017A51B9417A89B1A0
:100F6000491E417241680A1D4260096801600421FE
:100F70000172C9B2491E017201680A0E09020160BC
:100F800010467047B02070472DE9FF4D8CB05FEAE6
:100F9000000B4FF0000016460D4607900990059093
:100FA00008900DD0BBF1010F0AD0BBF1020F01D0A8
:100FB000002204E2A86BA864E86B04902C6C0FE09C
:100FC00095F85000C007E86C049078D10F9818B1DC
:100FD00004980068C0F30740049901EB800442E0E4
:100FE0000F98022811D02788002F68D06088241D10
:100FF00000F00102394662F35F0161B1012934D08A
:1010000002297DD00329EBD12FE12768002FECD0F6
:1010100060680834ECE7BBF1000F24D0A96C002312
:1010200001EB000806A9009130460F221946FFF790
:10103000C4FD0698804516D808EB0701814212D9F5
:10104000A96CA963201D0499C5E90F102846FFF774
:1010500001FB0028ACD020680F2240F31E0004449E
:101060003046049423E0241DBAE7BBF1000F27D0DB
:1010700006A90023009130460D221946FFF79DFD79
:101080000698296A88426ED1E86AA0426BD120682E
:1010900004A940F31E0004440023009130460F22AF
:1010A00004941946FFF772FD30460022049504A906
:1010B000002300911946FFF769FD22463DE2D6E084
:1010C000A96C002301EB00080AA9009130460F2209
:1010D0001946FFF772FD0A987F1E804543D808EB3A
:1010E000070181423FD96768B81C0ED0781C0ED02A
:1010F000206806ABC20F39462846FFF725FB00E003
:1011000033E078B302281DD004E0022257E105F154
:101110005800069004A90023009130460D2219467C
:10112000FFF74BFD0498EC6228620698686220681D
:10113000022140F31E0002192846FFF7EBF83A4659
:1011400080215FE004A90023009130460D2219465A
:10115000FFF733FD0498EC6228620698A86205F157
:101160002800E3E7FFE708343AE72168069121F019
:101170000048BBF1000F10D00AA9002300913046AF
:101180000D221946FFF719FD0A98296A884240D1B5
:10119000E86AA0423DD101203CE0A96C401E01EB71
:1011A000000A0AA90023009130460F221946FFF7D2
:1011B00004FD0A9882453AD80AEB0701814236D9E4
:1011C00004F1040A00270AE06B4600222846DAF8F8
:1011D0000010FFF7B9FA20B90AF1040A7F1C47454D
:1011E000F2D3474523D104A90023009130460D22B4
:1011F0001946FFF7E2FC0498EC6228620020D34A0B
:10120000022168622846FFF785F8062010B0BDE885
:10121000F08D002058B10020C5E90A800420286321
:10122000201D68630698404506D101200790069866
:10123000404515D1002014E004EB8800002250F84E
:10124000041F134641F31E010C1804A900913046F7
:1012500004951146FFF79AFC30460F22049465E18D
:10126000042000EB88000444FDE60122A7E0049876
:10127000006801900498001D02900F9810B3019827
:10128000000C8DF80D0001980004019002208DF8EB
:101290000C0001A8FFF760FE0446B0281AD03F2CCE
:1012A00041D800F03F01042000EB810706A90D247E
:1012B00000230091304622461946FFF77EFC06982F
:1012C000384442E000208DF80D00019800020190A2
:1012D0000320DCE70998B0B905980028C5D004A818
:1012E000002300900E2219463046FFF766FC049951
:1012F000059105A90023009130460F221946FFF7FA
:1013000045FC012008900798002870D0002204A90D
:1013100000913046134604951146FFF737FC0898B4
:10132000002878D0FEE07F2C19D800F03F0104207F
:1013300000EB810706A90D240023009130462246C8
:101340001946FFF73AFC0698C01B049004A8002336
:101350000090224619463046FFF718FC99E78F2C7B
:101360001AD80007040C01A8FFF7F6FD54EA001490
:101370003FF4CBAE0023224619463046FFF734FC3B
:1013800008B103221BE0200401D50120099060046C
:10139000E4D5012005907CE79F2C16D800F00F02C1
:1013A0000D2A0BD00F2A09D006A9002300910D2485
:1013B00030461946FFF701FC0698C6E704220121D2
:1013C0002846FEF7A7FF092020E7AF2C10D804F02D
:1013D00007000121401C81400A01103A200703D573
:1013E000012042F4804205900023194658E0AAE00B
:1013F000B72C35D8B12C0FD0B22C15D0B328DDD1F5
:1014000001A8FFF7A9FD00F00F0100F0F000491C52
:1014100041EA00322BE073E001A8FFF79DFD0200D6
:10142000CCD00F2AE0D9C9E700273C4601A8FFF736
:1014300093FD00F07F01A1400F43000601D5E41D9C
:10144000F4E706A90D2400230091304622461946F0
:10145000FFF7B3FB069800EB870000F5017074E717
:10146000BF2C07D800F00700401C40F400220123E5
:10147000012115E0C72C25D809D101A8FFF76CFD83
:1014800002009BD00F2A99D80023042108E0C62C23
:101490000DD000F00700401C40F420220323194621
:1014A0003046FFF7A1FB00283FF458AF69E701A8D9
:1014B000FFF752FD00F00F0100F0F000491C41EA77
:1014C0000032EBE7C82C0BD0C92C09D0CF2CAAD9FD
:1014D000D72CA8D800F00700401C40F400220DE0F3
:1014E00001A8FFF739FD00F00F01491C00F0F000E2
:1014F00041EA0032C82C01D102F580120523B7E77A
:1015000004A8002300900F2219463046FFF755FB30
:101510000499059105A90023009130460E22194631
:10152000FFF734FB094930460F22049104A9002338
:1015300000911946FFF72AFB044A03212846FEF7CB
:10154000E9FE072062E6082060E600004D0500087D
:1015500000487047D807002000487047E007002087
:10156000004870470C08002000487047140800200D
:10157000704770477047704738B504460A460020E8
:101580006946AFF30080002808BF38BD02460099C5
:10159000204600F018F9012038BD012000F056B9AE
:1015A000F8B5AFF30080054600200C46102000BFC0
:1015B0000646A819A0420DD9324669460020AFF36D
:1015C0000080070008BF00F041F90098A04218BF52
:1015D0000546C419FFF7C0FF05600746F01D20F05F
:1015E00007004619284600F00AF8B44208BFF8BDC3
:1015F000A21B31463868BDE8F84000F0E4B800218D
:101600000160C0E9011070471020704770B50446B2
:10161000051FFFF7A1FF0068002C14BF446870BDD0
:10162000002C18BFAC423CBF20466468F8D3016868
:101630000A18AA4218BF456003D12A68054611441A
:10164000016028684119A1421CBF6C6070BD6168CF
:10165000696021680844286070BD10B5002000F062
:10166000EEF8FEF7F5FDBDE81040012000F080B86F
:101670002DE9F047984614460F468246DDF8209043
:1016800094B1012C0BD04A465046650805FB0876FC
:101690003146904700280CD00DDA2C46F0E74A4638
:1016A00039465046904710B10020BDE8F0873846D3
:1016B000FBE73046F9E7641B641E06EB0807DFE72B
:1016C000002801D000F054B87047000010B5002188
:1016D00002A000F09BF8012010BD000053494750C4
:1016E00056464E3A2050757265207669727475615F
:1016F0006C20666E2063616C6C65640010B5203AE6
:10170000C0F00B80B1E81850203AA0E81850B1E8BA
:101710001850A0E81850BFF4F5AF5FEA027C24BF70
:10172000B1E81850A0E8185044BF18C918C0BDE867
:1017300010405FEA827C24BF51F8043B40F8043B30
:1017400008BF7047D20728BF31F8023B48BF11F8E5
:10175000012B28BF20F8023B48BF00F8012B70473F
:101760008268002A02D0014601201047704700001D
:1017700001491820ABBEFEE7260002007546FFF7C0
:10178000E7FEAE4605006946534620F00700854651
:1017900018B020B5FEF7CEFDBDE820404FF00006A2
:1017A0004FF000074FF000084FF0000B21F0070149
:1017B000AC46ACE8C009ACE8C009ACE8C009ACE88C
:1017C000C0098D467047034640688C46002818BF04
:1017D00088423CBF03464068F8D3186818448842E2
:1017E00007D00CF1030020F00700001D411A521A27
:1017F0000146081D0A60FFF709BF10B50446AFF3A4
:1018000000802046BDE81040FEF730BD70B50546AB
:101810000C460A2000E06D1C00F01FF835B1287856
:101820000028F8D102E0641C00F017F814B1207809
:101830000028F8D1BDE870400A2000F00EB810B5BD
:1018400000F014F8BDE81040FFF73ABF10B500F003
:1018500025F8BDE81040FFF733BF08B569468DF89D
:1018600000000320ABBE08BD7047000010B500218A
:1018700002A0FFF7CBFF012010BD000053494741F4
:101880004252543A2041626E6F726D616C207465F1
:10189000726D696E6174696F6E00000010B5012889
:1018A00005D0002103A0FFF7B1FF012010BD09A161
:1018B000F8E7000053494752544D454D3A204F75C3
:1018C00074206F662068656170206D656D6F727938
:1018D000000000003A2048656170206D656D6F72F0
:1018E0007920636F7272757074656400FFF795F804
:1018F000FFF793F8FEF7C0FCFFF78FF8FEF7BCFC8C
:10190000FEE77047012000F0CFB810B54FF48060BB
:1019100000F0CAF8BDE810404FF4006000F0C4B811
:1019200010B54FF4807000F0BFF8BDE810404FF4E0
:10193000007000F0B9B890F83510022903D080216A
:10194000416501207047052180F835100068016865
:1019500021F00101016000207047406D704790F850
:101960003500704770B5044690F834000025012812
:101970000CD0012084F8340094F835600020012E4A
:1019800006D084F834000225284670BD022070BDC0
:10199000022684F835606065204603F00BFE20685F
:1019A000016841F001010160EEE72DE9F0410446D4
:1019B000866D90F83400002501280DD0012084F8B0
:1019C000340094F835700020012F07D084F83400DB
:1019D00002252846BDE8F0810220FBE7022784F8B3
:1019E00035706065204603F0E5FD94F85C103F20FB
:1019F0008840B0602068016841F016010160206CE9
:101A000020B12068016841F0080101602068016888
:101A100041F001010160DCE770B5044600F038F9DF
:101A20000546601C02D004480078044400F030F9F8
:101A3000401BA042FAD370BD8402002010B50446BA
:101A40004FF48051164800F017F9B4F5007F19D013
:101A500005DC012C0AD0B4F5807F1AD10EE0B4F574
:101A6000806F13D0B4F5006F13D103E00D4802F07E
:101A7000EDFC0EE00B4802F0DAFC0AE0094802F047
:101A8000C7FC06E0074802F0A5FC02E0054802F0AA
:101A9000B0FC42F210710220401C8842FCDB10BDF9
:101AA000000C024068030020044910B50A68024295
:101AB00002D00860FFF7C2FF10BD0000143C0140D7
:101AC0002DE9F84F00224FF0010803254FF00F0ECB
:101AD0000B6808FA02F42340A3426ED14E68012E2F
:101AE00005D0022E03D0112E01D0122E12D18668FD
:101AF0004FEA420C05FA0CF7BE43CF6807FA0CF721
:101B0000374387604668A6430C79C4F300149440B9
:101B100034434460C668570005FA07FC8C6826EA1F
:101B20000C06BC403443C4604C68022C01D0122C1B
:101B300013D1D40800EB8404A346D4F820905407B2
:101B40004FEAD46A0EFA0AF629EA06090E6906FA7D
:101B50000AF646EA0906CBF8206006680C7926EA00
:101B60000C0604F00304BC40344304604C68E400F9
:101B700065D5364C266846F480462660246822F0F7
:101B8000030604F480440094314C3444A446D4F851
:101B900008489607370F0EFA07F6B4432D4EB042A9
:101BA00001D1002624E02C4EB04201D101261FE0D5
:101BB0002A4EB04202D102261AE040E0284EB0423E
:101BC00001D1032614E0274EB04201D104260FE0D4
:101BD000254EB04201D105260AE0244EB04201D183
:101BE000062605E0224EB04201D1072600E0082675
:101BF000BE402643CCF808681E4E34684F689C43AC
:101C0000FF0300D51C4334601A4C241D26684F681E
:101C10009E43BF0300D51E432660164E0836346827
:101C20004F689C43FF0200D51C433460114E0C36B4
:101C300034684F689C43BF0200D51C433460521C7B
:101C4000102AFFF445AFBDE8F88F00004438024089
:101C50000030014000000240000402400008024041
:101C6000000C024000100240001402400018024024
:101C7000001C0240003C0140426931EA020200D1EE
:101C80000904816170470AB1816170470904FBE76B
:101C900001488068704700008402002001480078F5
:101CA000704700008402002001484068704700002F
:101CB00084020020704770472DE9F0410168044616
:101CC0004A694E6890F83E000025D743FA0506D4CD
:101CD000F243D20503D46FF4807201254A61B9053D
:101CE00008D4F143C90505D422686FF4007145F0AA
:101CF00002055161790525D4F143C90522D4638DCC
:101D000094F83D10226B202808D13BB9212910D02E
:101D100029290ED0282901D1212A0AD022686FF45E
:101D20008061516145F00405102806D0402804D098
:101D300008E0204603F060FD04E02068016841F4FB
:101D400000710160380508D4F043C00505D421684E
:101D50006FF4006045F008054861002D07D0206C45
:101D6000284320642046BDE8F04103F037BCBDE8BD
:101D7000F0812DE9F041026800245168C56A90F8AD
:101D80003E3090F83D60102B1CD0402B1AD0036CD5
:101D9000002B7ED053694FF02805DB439F0779D491
:101DA000CF43BF0576D4016C01B1946990F83D3002
:101DB00000219D430B467FD0C91E516180F83C3005
:101DC000BDE8F081946953694FF42A07DB435FEA69
:101DD000C37C4FF02A4604D0BD42F1D0B542EFD0CB
:101DE00010E0CD43AD050DD4C16AB94201D1012146
:101DF00003E0C16AB14201D10821C162BDE8F041EE
:101E000003F03CBD1D0716D4CD43AD0513D4416C82
:101E1000C9B21161416B11B9826B002AD0D0C96B74
:101E200019B9816BC96B0029CAD00068416841F4B7
:101E300000614160C4E79D0706D4CD43AD0503D4DE
:101E4000BDE8F04103F0E6BDE443526864074FEAA1
:101E5000025215D4002AB3DB1A0608D4CA4352052D
:101E600005D45A0705D5BDE8F04104F04FB95A072B
:101E7000A6D4C9438905A3D4BDE8F04104F0FCB859
:101E8000002A9DDB5A060CD4CA43520509D45A07CE
:101E900002E00FE023E00FE005D5BDE8F04104F0DB
:101EA00053B85A078CD4C943890589D4BDE8F04199
:101EB00003F0EABE94696DE7556825F480655560C6
:101EC000E243540700D50121120601D5828900E0C2
:101ED000028B80F83C3092B2FFF7EDFE70E7DC0633
:101EE00006D4CC43A40503D4BDE8F04103F01EBEE4
:101EF000212E27D0292E25D05C0655D4CC4364054D
:101F000052D45B0752D590F83D10438D002B91D0F1
:101F10001269436A1A70426A521C4262428D521E12
:101F20004285428D002A85D12A29D7D101684A6885
:101F300022F480624A602221016380F83D5001F062
:101F4000D9F93DE71C0623D4CC43640520D45B07B4
:101F500020D590F83D10438D002BBFD0436A1B78ED
:101F60001361426A521C4262428D521E4285428D6A
:101F7000002AB3D12929B1D101684A6822F48062CC
:101F80004A602121016380F83D5001F0B4F917E760
:101F90005B07A3D4C9438905A0D4418D00299DD0F6
:101FA000416A097811610AE05B0797D4C943890542
:101FB00094D4418D002991D01169426A1170416A0F
:101FC000491C4162418D491E4185F9E67047000078
:101FD00070B5040025D094F83D00002520B984F8A0
:101FE0003C50204601F030F9242084F83D00206860
:101FF000016821F0010101602068016841F400419D
:1020000001602068016821F40041016001F032FEA6
:102010004D4A6168914201D84C4900E04C498842E0
:1020200001D2012070BD4B492368B0FBF1F15E681D
:1020300026F03F060E435E606368934206D94FF474
:10204000967359434FF47A73B1FBF3F12368491C3B
:102050001E6A26F03F06314319626168914210D82A
:102060004900401EB0FBF1F2521CC2F30B02042ADD
:1020700001D2042022E0B0FBF1F0401CC0F30B00C1
:102080001CE0A268F2B301EBC10303EB0116431E8F
:10209000B3FBF6F35B1C43F480431B0549D092B3BA
:1020A00001EBC10202EB0111401EB0FBF1F0401C3C
:1020B000C0F30B0040F4804040F400402168CA693E
:1020C0004CF6FF739A431043C861D4E907100143EB
:1020D0002068026822F0C00211430160D4E90301C4
:1020E00001432068826848F2FF339A4311438160BC
:1020F000D4E9050108432168CA6822F0FF021043B1
:10210000C86001E00EE016E02068016841F00101BE
:1021100001602564202084F83D00256384F83E504A
:10212000002070BD01EB4106431EB3FBF6F35B1CC0
:10213000B3E70120C2E701EB4101401EB0FBF1F023
:10214000401CC0F30B00B7E7A086010080841E008E
:1021500000093D0040420F002DE9FF4F81B08B4642
:102160000446FFF795FD94F83D1005464FF0010831
:102170004F4820297CD1814601461923012220465F
:10218000009504F0C1F8002872D194F83C000128B1
:102190006ED0012084F83C0020680168C90703D193
:1021A000016841F0010101602068016821F40061CB
:1021B0000160242084F83D00002626643D48E0624A
:1021C0004FF0011A20272068016841F480710160F6
:1021D0000095002251462046049B04F095F850B12A
:1021E00020680068C00502D54FF400702064032009
:1021F00005B0BDE8F08F20680BF0FE010161FFF72C
:1022000047FD05460AE000BFFFF742FD411B049869
:10221000814200D810B9A02084F83D0021684869A7
:102220004969C0F3400094F83D20C1F38021A02A01
:1022300002D008B90029E7D084F83D7020684169D0
:10224000C943890715D4016841F400710160206811
:10225000416980691923012249462046009504F00E
:1022600053F8B0B984F83D7084F83C600020BFE7B3
:102270001BE0016841F40071016021686FF4806027
:1022800048611923012249462046009504F03CF894
:1022900008B10120ACE7039808F10108804592D30A
:1022A00084F83D7084F83C60F3E70220A0E700006A
:1022B000020010000000FFFF70477047704710B524
:1022C00090F83E10102901D0012010BD90F83C106C
:1022D00001291DD0012180F83C10002101636022FA
:1022E00080F83D200268136823F48063136002685D
:1022F000136843F40073136041850268536823F444
:10230000E063536080F83C1003F068F9002010BDD2
:10231000022010BD2DE9F84F1F4690468A4604461C
:10232000DDF82890FFF7B4FC054694F83D0020281E
:1023300076D1192301226D492046009503F0E4FF70
:102340000028F5D194F83C00012869D0012084F8D8
:102350003C00206801684FF00006C90703D10168FE
:1023600041F0010101602068016821F40061016011
:10237000222084F83D00102084F83E002664C4F832
:1023800024806785608D20855948E0622B464A4647
:102390005146204603F0E2FC002878D1208D554FAD
:1023A00068B1012814D002282068016816D041F4D1
:1023B00080610160206841698069009087E0206841
:1023C000416981690091016841F4007101607EE01A
:1023D0002068016821F480610160F0E721F48061E8
:1023E00001602068016841F40061E2E7032848D8F1
:1023F00001280AD0022814D04B4600223946204634
:10240000009503F081FFD8BB27E02A4649462046C5
:1024100003F0FEFFA0BB20680069616A08704DE010
:1024200061E04B46002239462046009503F06CFFE0
:1024300030BB2068016841F40071016020680069C8
:10244000616A0870606A401C6062218D491E2185A6
:10245000618D491E618521682EE02068016821F4A4
:102460008061016020680069616A0870606A401CD0
:102470006062208D401E2085608D401E6085D0E703
:1024800005E02A464946204603F0C2FF10B101206C
:10249000BDE8F88F20680069616A0870606A401CB6
:1024A0006062218D491E2185618D491E61852168EB
:1024B0004A69D24352070AD409690170606A401C14
:1024C0006062208D401E2085608D401E6085208DBD
:1024D00000288BD1202084F83D0084F83E6084F8E9
:1024E0003C600020D4E70220D2E700000200100088
:1024F0000000FFFF04000100F8B500250446009528
:1025000090F83D0020287DD14A4846F2A816006880
:10251000B0FBF6F000EBC00606EB001020260090A2
:102520000098401E009010D020688069C04380074A
:10253000F6D594F83C00012879D0012084F83C00BD
:1025400020680768FF070AD00DE044F8305F667323
:10255000A573206940F020002061257339E00768E9
:1025600047F0010707602068076827F400670760E5
:10257000222084F83D00102084F83E002564626229
:102580006385608D20852C48E0626164208DD0B326
:10259000A16B2A48C863A16B2948C864A06B056475
:1025A000A06B4564A06B8564A06B05652168238DD5
:1025B0001031626AA06BFFF7F8F960B184F83D60F2
:1025C00084F83E5054F8400F40F0100044F80409DD
:1025D00025700120F8BD2068016841F48061016028
:1025E0002068016841F48071016084F83C502068E3
:1025F000416841F4407141602068416841F40061E4
:10260000416001E013E001E00020F8BD20680168AE
:1026100041F4806101602068016841F480710160CB
:1026200084F83C502068416841F4E061E8E702200A
:10263000F8BD0000900200200000FFFF09590008CB
:10264000B75700082DE9FC4700260A9D044600966E
:10265000019690F83D004FF4E06C20286FD1804641
:10266000082D01D0012D1FD16B4846F2A817006834
:10267000B0FBF7F000EBC00707EB00100190401E25
:10268000019006D020688069C04380070CD401986F
:10269000F5E744F8306F84F80D80A673206940F0A8
:1026A00020002061267375E094F83C00012846D094
:1026B000012084F83C0020680768FF0703D1076801
:1026C00047F0010707602068076827F40067076084
:1026D0002068476827F480574760222084F83D002F
:1026E000102084F83E00266462626385608D208538
:1026F000E5626164206B0090208D4FF42A094FF051
:102700002A4700286CD0608D022803D1202D0DD0DF
:10271000102D0BD02068016841F480610160202DEC
:1027200016D0BD4214D0102D12D016E000981228F9
:102730002068016804D041F4806101600DE069E027
:1027400021F4806101602068016841F4006101604A
:102750002068416841F480514160A16B2F48C863F3
:10276000A16B2F48C864A06B0664A06B0665216846
:10277000238D1031626AA06BFFF717F968B184F8F6
:102780003D8084F83E6054F8400F40F0100044F85B
:10279000040926700120BDE8FC870098122803D1A7
:1027A0004D4501D0BD4207D12068016841F48071D8
:1027B00001604FF4407001E04FF4807084F83C6099
:1027C000042D03D0202D01D0102D04D121684A689A
:1027D00042F400624A6021684A6802434A6017E096
:1027E0002068016841F4806101600098122803D1DB
:1027F0004D4501D0BD4204D12068016841F480718B
:10280000016084F83C602068416841EA0C01416045
:102810000020C0E70220BEE790020020095900080E
:10282000B75700082DE9F04385B00026044604960A
:1028300000960C9D90F83D00202873D12027082D8C
:1028400001D0012D1ED1584846F2A81C0068B0FBEB
:10285000FCF000EBC00C0CEB00100090401E009050
:1028600006D020688069C04380070BD40098F5E744
:1028700044F8306F6773A673206940F02000206130
:1028800026734BE094F83C0001284BD0012084F8DB
:102890003C002068D0F800C05FEACC7C05D1D0F8BD
:1028A00000C04CF0010CC0F800C02068D0F800C097
:1028B0002CF4006CC0F800C0212084F83D001020EA
:1028C00084F83E00266462626385608D2085E5623F
:1028D0006164206B0490208D4FF42A084FF02A4940
:1028E000E8B3616B3148C863616B3148C864606BA1
:1028F0000664606B06652268238D1032616A606B26
:10290000FFF753F878B184F83D7084F83E6054F8CE
:10291000400F40F0100044F804092670012005B073
:10292000BDE8F0833EE02068016841F48061016009
:102930000498112803D1454501D04D4504D12068A4
:10294000016841F48071016084F83C60042D03D07B
:10295000202D01D0102D06D12068416800E007E04D
:1029600041F4006141602068416841F4407116E023
:102970002068016841F4806101600498112803D146
:10298000454501D04D4504D12068016841F480716E
:10299000016084F83C602068416841F4E061416076
:1029A0000020BCE70220BAE7900200200959000885
:1029B000B75700082DE9F84F984617468A4604464F
:1029C000DDF82890FFF764F9064694F83D002028CA
:1029D0007ED11923012241492046009603F094FC40
:1029E000002878D194F83C00012874D0012084F8A4
:1029F0003C00206801684FF00005C90703D1016859
:102A000041F0010101602068016821F4006101606A
:102A1000212084F83D00102084F83E002564676280
:102A2000A4F82A80608D20852D48E06233464A460E
:102A30005146204603F0D2FA90B920684169806976
:102A4000009036E032464946204603F0BBFC50B1C8
:102A5000206C042804D12068016841F400710160F1
:102A60000120BDE8F88F606A216800780861606A1B
:102A7000401C6062618D491E6185218D491E89B2AD
:102A8000218522685369DB435B070BD451B1007881
:102A90001061606A401C6062608D401E6085208D00
:102AA000401E208532464946204603F065FC00283A
:102AB000CED1208D0028C5D154F83D0B016841F4DA
:102AC00000710160202004F81E09E577657700E0B9
:102AD00001E00020C5E70220C3E70000020010006B
:102AE0000000FFFFF8B500250446009590F83D0072
:102AF00020287DD14A4846F2A8160068B0FBF6F0BF
:102B000000EBC00606EB0010202600900098401E47
:102B1000009010D020688069C0438007F6D594F8F3
:102B20003C00012879D0012084F83C002068076827
:102B3000FF070AD00DE044F8305F6673A573206983
:102B400040F020002061257339E0076847F0010755
:102B500007602068076827F400670760212084F871
:102B60003D00102084F83E00256462626385608D1C
:102B700020852C48E0626164208DD0B3616B2A48C7
:102B8000C863616B2948C864606B0564606B456409
:102B9000606B8564606B05652268238D1032616A05
:102BA000606BFEF702FF60B184F83D6084F83E5030
:102BB00054F8400F40F0100044F80409257001203B
:102BC000F8BD2068016841F48061016020680168F7
:102BD00041F48071016084F83C502068416841F400
:102BE000407141602068416841F40061416001E04A
:102BF00013E001E00020F8BD2068016841F4806125
:102C000001602068016841F48071016084F83C50E3
:102C10002068416841F4E061E8E70220F8BD000067
:102C2000900200200000FFFF09590008B757000874
:102C3000704770472DE9FF4F83B09A46DDE9118751
:102C400093460446DDF84090FFF722F8054694F8D5
:102C50003D00202871D11923012271492046009599
:102C600003F052FB0028F5D194F83C00012864D011
:102C7000012084F83C00206801684FF00006C90775
:102C800003D1016841F0010101602068016821F46D
:102C900000610160222084F83D00402084F83E005D
:102CA0002664C4F82490A4F82A80608D20855D48AD
:102CB000E062CDE9007553465A462046049903F078
:102CC000C3F800287CD1208DD0B1012821D0022862
:102CD000206824D0416980690090208D032869D83C
:102CE00001282BD0504902283B464FF000020095A6
:102CF00059D08846204603F007FB002860D13CE00D
:102D00002068416981690091016841F400710160A6
:102D100077E02068016821F480610160F0E70168D4
:102D200021F4806101602068016841F40061016064
:102D3000206841698069009063E06FE02A46394667
:102D4000204603F065FB98BB20680069616A087043
:102D50004EE02068016841F400710160206800695C
:102D6000616A0870606A401C6062218D491E21857D
:102D7000618D491E6185216838E02068016821F471
:102D80008061016020680069616A0870606A401CA7
:102D90006062208D401E2085608D401E60853B4610
:102DA000002241460095204603F0AEFA00B9D0E774
:102DB00006E0FFE72A463946204603F029FB18B112
:102DC000012007B0BDE8F08F20680069616A0870D3
:102DD000606A401C6062218D491E2185618D491EFB
:102DE000618521684A69D24352070AD40969017092
:102DF000606A401C6062208D401E2085608D401EF0
:102E00006085208D00287FF468AF202084F83D0085
:102E100084F83E6084F83C600020D2E70220D0E7CE
:102E2000020010000000FFFF040001002DE9FF4F29
:102E300083B09A46DDE9108993460446FEF728FFE1
:102E400000250646009594F83D0020287ED157487D
:102E500046F2A81120270068B0FBF1F000EBC0019A
:102E600001EB001000900098401E009010D02068E8
:102E70008069C0438007F6D594F83C00012865D0EE
:102E8000012084F83C0020680168C9070AD00DE0E1
:102E900044F8305F6773A573206940F0200020611B
:102EA00025736FE0016841F001010160206801684D
:102EB00021F400610160222084F83D00402084F864
:102EC0003E002564C4F82480A4F82A90608D2085F3
:102ED0003748E062208D4FF02308C0B3A16B35481E
:102EE000C863A16B3448C864A06B0564A06B4564DB
:102EF000A06B8564A06B05652168238D1031626A23
:102F0000A06BFEF752FD58B184F83D7084F83E5036
:102F100054F8400F40F0100044F80409257031E0E7
:102F2000CDE9008653465A462046049902F08CFFAC
:102F300040BB208D0128206816D0416841F48051A3
:102F40004160206841698169009101E02CE010E056
:102F500084F83C50416841F48071416020684168C8
:102F600041F4006141601DE0016821F4806101606D
:102F7000E7E7CDE9008653465A462046049902F019
:102F800063FF18B1012007B0BDE8F08F20684169E8
:102F900081690091016841F40071016084F83D701D
:102FA00084F83C500020EEE70220ECE7900200207D
:102FB0000000FFFF09590008B75700082DE9FF4F2F
:102FC00083B09A46DDE9119793460446DDF84080C8
:102FD000FEF75EFE054694F83D0020287ED11923B9
:102FE000012241492046009503F08EF9002878D14E
:102FF00094F83C00012874D0012084F83C0020683B
:1030000001684FF00006C90703D1016841F00101D2
:1030100001602068016821F400610160212084F8CA
:103020003D00402084F83E002664C4F82480A4F8C3
:103030002A90608D20852D48E062CDE900755346C9
:103040005A462046049903F0BDF870B930E02A468C
:103050003946204603F0B6F958B1206C042804D153
:103060002068016841F400710160012007B0BDE8EB
:10307000F08F606A216800780861606A401C6062B5
:10308000218D491E89B22185628D521E628522687A
:103090005369DB435B070BD469B100781061606A48
:1030A000401C6062208D401E2085608D401E608522
:1030B000208D0028CBD12A463946204603F05CF902
:1030C0000028CAD154F83D0B016841F40071016039
:1030D000202004F81E09E677667700E001E0002072
:1030E000C4E70220C2E70000020010000000FFFF5A
:1030F0002DE9FF4F83B00025DDE910989A469346ED
:1031000004460095FEF7C4FD074694F83D002028CC
:1031100074D149482026016846F2A810B1FBF0F0AE
:1031200000EBC00101EB001000900098401E0090E1
:1031300010D020688069C0438007F6D594F83C0021
:10314000012877D0012084F83C0020680168C90775
:103150000AD00DE044F8305F6673A573206940F033
:1031600020002061257345E0016841F00101016004
:103170002068016821F400610160212084F83D008D
:10318000402084F83E002564C4F82490A4F82A80E6
:10319000608D20852948E062208D80B3616B2848CE
:1031A000C863616B2748C864606B0564606B4564E5
:1031B000606B8564606B05652268238D1032616ADF
:1031C000606BFEF7F2FB58B184F83D6084F83E5026
:1031D00054F8400F40F0100044F80409257009E04D
:1031E0002320CDE9000753465A462046049902F0B1
:1031F000E9FF28B1012007B0BDE8F08F1AE010E028
:10320000206841698169009184F83C50416841F42B
:10321000807141602068416841F400614160002094
:10322000E9E784F83D6084F83E5054F8400F40F0E0
:103230004000D1E70220DEE7900200200000FFFFFF
:1032400009590008B7570008F0B587B004461421A3
:103250006846FDF70FF92768234CDFF888C0224A3B
:10326000122303250426214810340021674518D174
:10327000176847F002071760126802AF02F00202F7
:10328000059287E86200C0226946CDE90023FEF777
:1032900017FC206840F400102060206800F4001043
:1032A0001CE0DFF84CC0674519D1176847F00207EA
:1032B0001760126802AF02F00202059287E862000E
:1032C0004FF440626946CDE90023FEF7F9FB206820
:1032D00040F480002060206800F48000059007B072
:1032E000F0BD0000005400403038024000040240AD
:1032F00000580040704770472DE9F84F9A46154630
:1033000088460446FEF7C4FC064694F83D00202893
:103310007ED1B8F1000F33D095B394F83C0001286A
:1033200076D0012084F83C00206801684FF0200727
:10333000CA074FF0000103D1026842F001020260A7
:103340002068026822F400620260222084F83D00B6
:1033500084F83E7089462164C4F824806585608DB8
:1033600020853E48E0622068016841F48061016088
:10337000534600223A492046009602F0C5FF10B19C
:103380000120BDE8F88F20684D46416980690090B2
:1033900024E032465146204603F03AF8C8BB206884
:1033A0000069616A0870606A401C6062218D491E74
:1033B0008AB22285618D491E618521684B69DB4394
:1033C0005B070BD46AB109690170606A401C6062D6
:1033D000208D401E2085608D401E6085208D002838
:1033E000D7D1D0460BE0204602F040FF88B9FEF767
:1033F0004FFC811B41451ED8B8F1000F1BD020683F
:103400004069C043C006EED420684169009101E0E4
:1034100022E01BE0016841F00101016020680168C1
:1034200021F48061016084F83D7084F83E5084F896
:103430003C500020A5E7204640F8305F4773857375
:10344000006940F02001216484F83C502068016844
:1034500021F48061016093E7022092E70000FFFF02
:103460000200010070B5044690F83D0020285DD1AF
:1034700081B17AB194F83C00012857D0012084F83A
:103480003C00206803684FF00005DB074FF0200682
:1034900002D005E0012070BD036843F00103036022
:1034A0002068036823F400630360222084F83D0051
:1034B00084F83E60256461626285608D20851C48C9
:1034C000E062A16B1B48C863A16B1B48C864A06B7A
:1034D0000564A06B4564A06B8564A06B05652168DD
:1034E000238D1031626AA06BFEF75FFA58B184F841
:1034F0003D6084F83E5054F8400F40F0100044F80E
:1035000004092570C6E72068016841F48061016004
:1035100084F83C502068416841F440714160206863
:10352000416841F400614160002070BD022070BD1F
:103530000000FFFF09590008B75700082DE9F843BC
:103540000F4690F83D1099461646044628208843B9
:103550007AD1B7B1AEB194F83C00012874D0012003
:1035600084F83C002068416821F44071416094F87F
:103570003D0042492A2807D094F83D00292815D05B
:1035800026E00120BDE8F8832068426812051FD5B7
:10359000A26BEAB1426822F400624260A06B01654E
:1035A000A06BFEF7C8F998B1A06B0FE020684268E5
:1035B00012050DD5426822F400624260606B38B19A
:1035C0000165606BFEF7B7F910B1606B016D88475C
:1035D000206801684FF00005CA074FF0200103D1B1
:1035E000026842F0010202602068026822F4006270
:1035F00002602A2084F83D00884684F83E10256445
:1036000067626685608D2085C4F82C90A16B1C488C
:10361000C863A16B1B48C864A06B0564A06B0565FB
:103620002168238D1031626AA06BFEF7BEF960B18C
:1036300084F83D8084F83E5054F8400F40F010006C
:1036400044F8040925709CE715E02068016841F4FE
:1036500080610160206841698169009184F83C5073
:10366000416841F4006141602068416841F4407163
:103670004160002086E7022084E7000031570008FF
:1036800009590008B75700082DE9F8430F4690F88C
:103690003D10994616460446282088437AD1B7B192
:1036A000AEB194F83C00012874D0012084F83C00AD
:1036B0002068416821F44071416094F83D0042491E
:1036C0002A2807D094F83D00292815D026E00120AB
:1036D000BDE8F8832068426812051FD5A26BEAB1E5
:1036E000426822F400624260A06B0165A06BFEF7A5
:1036F00022F998B1A06B0FE02068426812050DD541
:10370000426822F400624260606B38B10165606B10
:10371000FEF711F910B1606B016D884720680168F0
:103720004FF00005CA074FF0200103D1026842F0B4
:10373000010202602068026822F40062026029200F
:1037400084F83D00884684F83E10256467626685EB
:10375000608D2085C4F82C90616B1C48C863616B38
:103760001B48C864606B0564606B05652268238D27
:103770001032616A606BFEF718F960B184F83D8021
:1037800084F83E5054F8400F40F0100044F804090B
:1037900025709CE715E02068016841F480610160B4
:1037A000206841698169009184F83C50416841F486
:1037B000407141602068416841F40061416000202F
:1037C00086E7022084E70000315700080959000805
:1037D000B75700082DE9F84F9B4616460F4604469A
:1037E000FEF756FA054694F83D0020287ED1002FBA
:1037F00057D0002E55D094F83C00012876D00120F7
:1038000084F83C0020680168DFF82081CB074FF086
:1038100020014FF0000203D1036843F0010303606D
:103820002068036823F400630360212084F83D00CE
:103830008A4684F83E109146226467626685608DF0
:1038400020853B48E0622068016841F480610160A6
:103850005B46002241462046009502F055FD00BB24
:1038600020684E464169806900902069B0F5404F5C
:1038700037D15B46002241462046009502F044FDC8
:1038800078B920684169806900902AE02A46594643
:10389000204602F097FD28B12068016821F480617C
:1038A00001602CE0606A216800780861606A401C51
:1038B0006062618D491E6185218D491E89B2218515
:1038C00022685369DB435B070BD469B10078106150
:1038D000606A401C6062608D401E6085208D401EC5
:1038E0002085208D0028D1D15B4600E01BE000221E
:1038F0004FF482312046009502F006FD10B1012000
:10390000BDE8F88F21686FF4806048612068016825
:1039100021F48061016084F83DA084F83E6084F861
:103920003C600020ECE70220EAE700000200010012
:103930000000FFFF70B5044690F83D0020285DD1DF
:1039400081B17AB194F83C00012857D0012084F865
:103950003C00206803684FF00005DB074FF02006AD
:1039600002D005E0012070BD036843F0010303604D
:103970002068036823F400630360212084F83D007D
:1039800084F83E60256461626285608D20851C48F4
:10399000E062616B1B48C863616B1B48C864606B65
:1039A0000564606B4564606B8564606B05652268C7
:1039B000238D1032616A606BFDF7F7FF58B184F810
:1039C0003D6084F83E5054F8400F40F0100044F839
:1039D00004092570C6E72068016841F48061016030
:1039E00084F83C502068416841F44071416020688F
:1039F000416841F400614160002070BD022070BD4B
:103A00000000FFFF09590008B75700080248816805
:103A10000278114481607047840200200B4810B581
:103A2000016841F400710160016841F48061016046
:103A3000016841F480710160032000F06FF80020FC
:103A400000F006F800F024F8002010BD003C024011
:103A500070B50D4D04464FF47A712878B1FBF0F043
:103A60000A490968B1FBF0F000F0F6FA48B9102CE9
:103A700007D200222146501E00F030F800206C6072
:103A800070BD012070BD0000840200209002002063
:103A90000A4808B5016841F480410160006800F4FB
:103AA000804000900548001F016841F0805101608E
:103AB000006800F08050009008BD000044380240CB
:103AC000002809DB00F01F0201219140400980001D
:103AD00000F1E020C0F8001170470000F0B40E4B78
:103AE0001B680C46C3F30223C3F10705042D00D95C
:103AF0000425191D072901D2002300E0DB1E012641
:103B000006FA05F1491E214099409E40761E164056
:103B10003143F0BC02F0FABC0CED00E0064900F0C5
:103B2000070208684FF6FF03184040EA0220034AE4
:103B300010430860704700000CED00E00000FA053B
:103B40002DE9F0470E46050065D0DFF81481D8F85E
:103B50000000F7B200F00F00B04207D288F8007002
:103B6000D8F8000000F00F00B04254D128683D4C56
:103B7000810712D5400703D5206840F4E05020604B
:103B80002878000703D5206840F460402060206852
:103B9000A96820F0F000084320602878C0072DD0E5
:103BA000304968680839012812D0022813D0032848
:103BB00011D00968890700292DDA216821F0030155
:103BC00001432160FEF764F8814641F2883A0EE035
:103BD00009688903EFE709688901ECE7FEF758F8FF
:103BE000A0EB0901514502D90320BDE8F087206808
:103BF000696800F00C00B0EB810FEFD1D8F800102D
:103C0000404601F00F01B14207D90770006800F08B
:103C10000F00B04201D00120E7E72878400705D522
:103C20002068E96820F4E050084320602878000705
:103C300006D52068296920F4604040EAC100206070
:103C400000F028F82168084AC1F30311515CC8400C
:103C50000649086006480068FFF7FAFE0020C4E73E
:103C6000003C024008380240FC740008900200202A
:103C7000880200200448054900680968044AC1F325
:103C80008221515CC84070479002002008380240F1
:103C90000C750008154810B5006810F00C021448A7
:103CA00013D04110042A0FD0082A0ED10F4C241F24
:103CB0002268236802F03F025B0207D52068C0F348
:103CC0008810A0FB010106E0084610BD2168C1F381
:103CD0008811A1FB00010023FCF73EFB2168C1F322
:103CE0000141491C4900B0FBF1F010BD0838024009
:103CF0000024F4002DE9F84F040076D02078DFF896
:103D000040A3D04DC00749D0DAF800105046C1F3A7
:103D10008101012908D00068C0F3810002280AD17E
:103D2000281D0068400206D52868800336D56068E3
:103D30000028E2D032E06068B0F5803F10D0B0F5E6
:103D4000A02F286810D020F480302860286820F444
:103D5000802028606068A0B1FDF79AFF06460CE05D
:103D6000286840F48030F4E740F480202860F7E7CA
:103D7000FDF78EFF801B642873D828688003F7D571
:103D80000CE0FDF785FF064605E000BFFDF780FF6C
:103D9000801B6428F0D828688003F7D42078DFF8E7
:103DA000A88280074FF000093ED5DAF8001050468F
:103DB00011F00C0F09D00068C0F3810002280BD16C
:103DC0009F48001F0068400206D42868800715D568
:103DD000E068012809D111E0E068B8B10120C8F815
:103DE0000000FDF755FF064605E024E1FDF750FF12
:103DF000801B0228C0D828688007F7D52868216969
:103E000020F0F80040EAC10028600DE0C8F80090FA
:103E1000FDF73EFF064604E0FDF73AFF801B02284F
:103E20001FD828688007F7D42078000722D5844E51
:103E3000864861696C3671B101210160FDF728FF88
:103E4000074604E0FDF724FFC01B022809D83068AC
:103E50008007F7D50EE0C0F80090FDF719FF074680
:103E600005E083E0FDF714FFC01B02287ED8306810
:103E70008007F7D4207840076DD5DFF8C4B100275C
:103E80000BF1380BDBF80000C0000BD4DBF800109E
:103E900041F08051CBF80010DBF80000012700F062
:103EA000805000906A4E3068C00511D4306840F4EC
:103EB00080703060FDF7ECFE009006E0FDF7E8FE54
:103EC00001460098081A022850D83068C005F5D578
:103ED0005B4EA068683601280FD00528306810D0E6
:103EE00020F001003060306820F004003060A068ED
:103EF000C8B1FDF7CDFE009011E0306840F0010040
:103F0000F4E740F004003060F7E700BFFDF7C0FEC3
:103F100001460098091A41F28830814267D830681A
:103F20008007F3D510E0FDF7B3FE009009E000BF75
:103F3000FDF7AEFE01460098091A41F28830814231
:103F400055D830688007F3D42FB1DBF8001021F08A
:103F50008051CBF80010A069C8B3DAF800205146B0
:103F6000C2F38102022A49D0022800E03FE048461D
:103F700005D0C8F86000FDF78BFE04463AE04646DF
:103F8000C8F86000FDF784FE074604E0FDF780FEF8
:103F9000C01B02282BD828688001F7D4D4E9070178
:103FA0000843A16A2B4A490802EB0141626A41EACF
:103FB0008211084394F82C1040EA01612048001F48
:103FC000016001203066FDF763FE044605E034E041
:103FD000FDF75EFE001B022809D828688001F7D58E
:103FE0002BE000BFFDF754FE001B022802D903207E
:103FF000BDE8F88F28688001F4D41EE00128F7D0CE
:104000000868E26900F48001914214D1226A00F04C
:104010003F0191420FD147F6C071626A014091425F
:1040200009D1A26A00F44031914204D1E16A00F062
:104030007060884201D00120DAE70020D8E7000054
:10404000083802400038024000004742800E4742D4
:10405000007000400000FFFF10B5401E4FF0E0244C
:10406000B0F1807F01D3012010BD60610F214FF0BE
:10407000FF3002F04BFA0020A061072020610020F1
:1040800010BD000070B5074C0146002025788D4218
:1040900006D021706068FFF7DBFC002800D0257097
:1040A00070BD000084020020FEE7FEE77047704705
:1040B0007047FFF7ABBC000070B5194C2068194A77
:1040C00010F00C01184804D05510042903D0082919
:1040D00003D002601BE0056019E01149091F0B685D
:1040E000C3F380560B6803F03F0316B1B5FBF3F240
:1040F00001E0B2FBF3F20B680968C3F388135A437B
:10410000C1F30141491C4900B2FBF1F10160216892
:10411000064AC1F30311515C0268CA40026070BDD7
:10412000083802400024F40090020020FC740008CB
:104130000548016841F47001016003494FF00060D7
:10414000803908607047000088ED00E0FEE700005D
:1041500030B593B00024022530216846FCF78AF977
:1041600014210CA8FCF786F91848016841F0805129
:104170000160006800F0805011901548016841F41A
:10418000804101600068009500F48040119001209A
:1041900003901020049006950820CDE90740A82040
:1041A000CDE9090507200B906846FFF7A3FD0F2016
:1041B000CDE90C054FF4A050CDE90E40E802109077
:1041C00005210CA8FFF7BCFC13B030BD40380240FD
:1041D0000070004038B5684602F016FA0420FCF77B
:1041E00085F9694602F008FA0446684602F01BFAAF
:1041F000024A03492046FCF78CFA000027660008B3
:104200008875000837B584B00446059804F10E059A
:10421000002820DB284602F091F9059988421ADD32
:104220000698002817DB284602F08BF90699884289
:1042300011DD684602F068FD05A9684602F04DFDF3
:1042400006A9684602F049FD6946204602F0F8FCDE
:10425000684602F05EFD07B030BD684602F059FDC9
:10426000FCF70AF837B584B00446059804F10E054A
:10427000002823DB284602F061F9059988421DDDFC
:10428000069800281ADB284602F05BF90699884256
:1042900014DD684602F038FD05A9684602F01DFDF0
:1042A00006A9684602F019FD204602F065FC694641
:1042B000204602F0C5FC684602F02BFD07B030BD79
:1042C000684602F026FDFBF7D7FF37B584B00446F9
:1042D000059804F10E05002823DB284602F02EF98C
:1042E000059988421DDD069800281ADB284602F051
:1042F00028F90699884214DD684602F005FD05A9F3
:10430000684602F0EAFC06A9684602F0E6FC204690
:1043100002F064FC6946204602F0A6FB684602F003
:10432000F8FC07B030BD684602F0F3FCFBF7A4FFD1
:104330002DE9FC4705460E30824600F02BFA00219D
:10434000284602F0D1FB406800210768284602F0A9
:10435000CBFB02F09BFC012406681DE021462846A9
:1043600002F0C2FB40682146D0F80080284602F0E7
:10437000BBFB02F08BFCD0F80090012130B2CDE9FC
:1043800000013BB20FFA89F20FFA88F1504600F0B3
:1043900057FA47464E46641C2868A042DEDC504669
:1043A00000F040FABDE8FC474FF49670FDF734BBCF
:1043B00010B500F10E04012378220221204600F0FE
:1043C0001DFA204600F02EFABDE810404FF4FA70B6
:1043D000FDF722BB10B50446007B032808D002215C
:1043E000204600F06DF8204600F0BEF80220207351
:1043F00010BD10B50446007B022808D003212046DA
:1044000000F05EF8204600F0AFF80320207310BDE6
:1044100010B50446007B002808D00121204600F09A
:104420004FF8204600F0A0F80120207310BD10B511
:104430000446007B012808D00021204600F040F807
:10444000204600F091F80020207310BD10B50446FE
:10445000FFF7AEFF0A2200212046FFF7D3FE0A2213
:1044600064212046FFF7CEFE00202073207B30B170
:10447000012808D002280AD003280FD10BE02046DB
:10448000FFF7D5FF0AE02046FFF7C2FF06E020460F
:10449000FFF7A0FF02E02046FFF7ABFF2046FFF743
:1044A00047FFE3E710B5002102F01EFB02F0EEFB30
:1044B000006810BD0068704702F05EBB02F08EBB62
:1044C00070B50E4601680446491E02F00DFB4068B7
:1044D000216805682046491E02F006FB02F0D6FB63
:1044E00002687EB1012E18D0022E29D0032E3AD1B7
:1044F000207B78B3012832D0032834D129462046C6
:10450000521D13E0207B022805D0032803D0002889
:1045100029D1691D09E0691D0DE0207B022809D021
:10452000032807D001281ED1691F2046BDE870402E
:10453000FFF798BE691F2046BDE87040FFF762BED6
:10454000207B40B1012806D002280CD12946204604
:10455000521FEBE703E029462046521FECE72946AD
:104560002046521DE8E770BD2DE9F04107460021C5
:1045700002F0BAFA406800210468384602F0B4FA42
:1045800002F084FB05680121384602F0ADFA40686C
:1045900001210668384602F0A7FA02F077FB0068AE
:1045A000B44213D1291A052901DD6A1F03E0401B1B
:1045B000052806DD6A1D21463846BDE8F041FFF7B3
:1045C00084BE3846BDE8F04102F008BB85420AD1FE
:1045D000A01B052801DD611F03E0301B0528F0DD6D
:1045E000611D2A46E8E7BDE8F08110B504460020C9
:1045F00020606060A06004F10E0000F07DF90E38CC
:1046000010BD204602F038FBFBF736FE10B502F075
:1046100033FB10BD01B90121017570474182018250
:1046200070470182428270471CB50B44049C5B1E9C
:10463000CDE9002404681BB26468A0471CBD1CB50A
:1046400013445B1E049C1BB2CDE9003403685C6814
:104650000B46A0471CBD00002DE9FF5F14460E98D5
:104660000E461D46021BA3EB060100D5524200294F
:1046700000DA49428A4207DD3146264605464FF0B8
:1046800001080C46184601E04FF00008AE4205DD77
:1046900031462E460D46214604460846A91B0FFA10
:1046A00081F9011B00D549420FFA81FB09EBD97151
:1046B0004F10844201DA012001E04FF0FF308246C2
:1046C0001CE000BF00980F9BB8F1000F0068D0F805
:1046D00000C002D03246214601E022463146009811
:1046E000E047A7EB0B0007B2002F05DA04EB0A0046
:1046F00004B207EB090007B2761C36B2AE42E1DD28
:10470000BDE8FF9F2DE9F8439146DDE9088605469F
:104710000C46CF180AE00096286843464A46D0F86F
:1047200008C021462846E047641C24B2A742F2DCB8
:10473000BDE8F8838181C28170470000084B0360A7
:104740008180C28001814281002141758181C181C6
:10475000012101754FF6FF72428202828175704716
:10476000E8760008014800F0F9BB0000B40500201D
:1047700070B505460C460548FFF74CFF2146044836
:10478000FFF748FF04B901242C7470BD900300208A
:10479000B405002010B5044800F0C3F8BDE810408F
:1047A000024800F0BEB8000090030020B4050020CD
:1047B00070B504460D460548FFF730FF294604480A
:1047C000FFF72CFFE581A58170BD0000900300205C
:1047D000B405002070B5044615460E460548FFF79F
:1047E00020FF2A4631460448FFF71BFFA681E581DA
:1047F00070BD000090030020B405002010B5012317
:1048000078220221054800F02AFB01237822BDE826
:1048100010400221024800F022BB0000900300205B
:10482000B405002010B5044800F0D0FBBDE81040EE
:10483000024800F0CBBB000090030020B40500202C
:104840002DE9FC411E46DDE9084715468846202A29
:1048500005DA202C0FDACDE9004711481CE0202CA6
:1048600005DB203CA2F1200520B22AB211E025464A
:10487000144698460E46CDE9004733462A4641463F
:104880000748FFF7E9FE203C203D20B233462AB21C
:104890004146CDE900070348FFF7DEFEBDE8FC8195
:1048A00090030020B4050020014800F057BB000031
:1048B00090030020202A01DA034802E0203A12B2D5
:1048C000024800F0A8BB000090030020B4050020BF
:1048D00070B5044615460E460548FFF72BFF2A46DD
:1048E00031460448FFF726FF2681658170BD000030
:1048F00090030020B40500208021018040224280E6
:104900008180C280002141740181418101210174B3
:104910004FF6FF72C2818281817470472E2100F0B0
:10492000D1B94FF40073002200F1240100F00DBB57
:1049300038B504460C4800228B1885182344521CB5
:1049400093F82430D2B26B70802AF5D310250095ED
:1049500094F91700812381B2034A206AFEF72AF8EE
:104960000028F4D138BD00000200002070B5467D5B
:10497000049C00F12405AEB1012E04D0022E07D014
:10498000032E0FD135E08688B21A521E12B236E0DD
:104990008688711AC688491EB21A521EC91A491C45
:1049A00012B209B2002A7DDBB0F9066096427FDDC3
:1049B000002902DA19440BB20021B0F90400CE1824
:1049C000864201DD401A03B2002B71DDD01702EBE5
:1049D0005070C01005EBC010084402F0070201211E
:1049E0009140C9B2002C7FD0012C79D0022C5FD12C
:1049F00089E0C688711A491EC91A491C09B2002AE1
:104A000056DBB0F90460964252DD002902DA1944FF
:104A10000BB20021B0F90600CE18864201DD401A23
:104A200003B2002B44DDCEB2F00805EBC0101044F9
:104A3000D9B216F007021DD0C2F10803344A9942D8
:104A4000D25C03D25E1AFF25F5402A403CB1012C0E
:104A500002D0022C09D105E00578154304E0057861
:104A6000954301E0057855400570994220D3C91A55
:104A7000C9B2803008290BD3022C1AD0012C21D0C6
:104A80005FF000020839C9B200F8802B0829F9D27A
:104A900000290DD01F4A01F00701515CCCB1012C57
:104AA00014D000E004E0022C02D102784A400270E7
:104AB00070BD02780839D243C9B200F8802B0829AA
:104AC000F7D2E5E7FF22DDE70EE009E002780A43CE
:104AD000EDE702788A43EAE702780A4300F8012BFF
:104AE0005B1E1BB2F8D270BDC943C9B203E00278A5
:104AF0000A4000F8012B5B1E1BB2F8D270BD027891
:104B00004A4000F8012B5B1E1BB2F8D270BD0000BA
:104B1000940200209C02002070B5467D049C00F1A8
:104B20002405BEB1012E04D0022E09D0032E11D1CE
:104B30003DE08688B21A521ED21A521C12B23AE0D6
:104B40008688711AC688491EB21A521ED21A521C81
:104B500009B212B200295CDBB0F904608E4258DD64
:104B6000002A02DA1A4413B20022B0F90600D6185D
:104B7000864201DD801A03B2002B4ADDD6B2F0086E
:104B800005EBC0100844DAB216F0070163D0C1F19A
:104B9000080347499A42C95C03D29E1AFF25F54093
:104BA000294074B3012C48D0022C4FD14BE0C68869
:104BB000711A491E09B200292BDBB0F906608E423A
:104BC00027DD002A02DA1A4413B20022B0F90400E9
:104BD000D618864201DD801A03B2002B19DDC817F2
:104BE00001EB5070C01005EBC010104401F007023B
:104BF00001219140C9B26CB1012C07D0022C08D11F
:104C000017E01DE002780A4300F8012B5B1E1BB27F
:104C1000F8D270BDC943C9B203E002780A4000F877
:104C2000012B5B1E1BB2F8D270BD02784A4000F81F
:104C3000012B5B1E1BB2F8D270BD05780D4304E05A
:104C400005788D4301E005784D4005709A42F3D315
:104C5000D11ACAB28030082A0AD3022C17D0012CEC
:104C60001ED00021083AD2B200F8801B082AF9D2DF
:104C7000002AE1D002F007010E4A515CACB1012CD0
:104C800010D0022CD8D102784A40027070BD017851
:104C9000083AC943D2B200F8801B082AF7D2E7E7E6
:104CA000FF21DFE702780A43EFE702788A43ECE767
:104CB000940200209C02002009B1A72100E0A62157
:104CC000AFF3008038B504460748102541700095C1
:104CD00094F91700022381B2034A206AFDF76AFEA5
:104CE0000028F4D138BD00000000002070B50D464A
:104CF000144606462721FFF7E5FF00213046FFF75F
:104D0000E1FF29463046FFF7DDFF00213046FFF77F
:104D1000D9FF21463046FFF7D5FF00213046FFF787
:104D2000D1FFFF213046FFF7CDFF3046BDE8704090
:104D30002F21FFF7C7BF70B50D4614460646262142
:104D4000FFF7C0FF00213046FFF7BCFF2946304681
:104D5000FFF7B8FF00213046FFF7B4FF2146304689
:104D6000FFF7B0FF00213046FFF7ACFFFF213046D0
:104D7000FFF7A8FF3046BDE870402F21FFF7A2BF24
:104D800070B50D4614460646A321FFF79BFF002190
:104D90003046FFF797FF20213046FFF793FF2A2187
:104DA0003046FFF78FFF00213046FFF78BFF294683
:104DB0003046FFF787FF00213046FFF783FF21468B
:104DC0003046FFF77FFF01213046FFF77BFF30467B
:104DD000BDE870402F21FFF775BF70B50D46144632
:104DE0000646A321FFF76EFF00213046FFF76AFF5A
:104DF00020213046FFF766FF29213046FFF762FF8A
:104E000000213046FFF75EFF29463046FFF75AFF84
:104E100000213046FFF756FF21463046FFF752FF8C
:104E200001213046FFF74EFF3046BDE870402F218C
:104E3000FFF748BF70B5054609B1002403E0287E9E
:104E400001280AD0CF2481212846FFF73BFF2146C5
:104E50002846BDE87040FFF735BF9F24F3E770B5E3
:104E600001760C460546C275AE21FFF72BFFD52112
:104E70002846FFF727FF80212846FFF723FFA821B8
:104E80002846FFF71FFF1F212846FFF71BFFD321EE
:104E90002846FFF717FF00212846FFF713FF4021A0
:104EA0002846FFF70FFF8D212846FFF70BFF012C47
:104EB00047D014212846FFF705FF20212846FFF799
:104EC00001FF00212846FFF7FDFEA1212846FFF73C
:104ED000F9FEC8212846FFF7F5FEDA212846FFF73C
:104EE000F1FE02212846FFF7EDFE81212846FFF75B
:104EF000E9FE8F212846FFF7E5FED9212846FFF776
:104F0000E1FE012C1FD0F1212846FFF7DBFEDB215B
:104F10002846FFF7D7FE40212846FFF7D3FEA421FD
:104F20002846FFF7CFFEA6212846FFF7CBFE2E210D
:104F30002846FFF7C7FE2846BDE87040AF21FFF7BF
:104F4000C1BE1021B6E72221DEE7002002E088542E
:104F5000521C92B29A42FAD370470000F0B5B0F9F1
:104F60000E20D31702EB5372C2F3C704002326E0CE
:104F7000154D0022CE5C3601A6F500761644AF5DD5
:104F8000B0F90C6006EBC41C02EBC306B4448444C5
:104F90008CF82470CF5CB0F90CC03F01A7F5007706
:104FA00017440CEBC41C2F4466440644521C3F7A41
:104FB00092B286F8A470082ADCD35B1C9BB2CA5C50
:104FC000002AD5D1F0BD00000C6F000870B5064670
:104FD0002121FFF777FE00213046FFF773FE7F2186
:104FE0003046FFF76FFE22213046FFF76BFE0021AF
:104FF0003046FFF767FE03213046FFF763FE0024CB
:105000004FF4007521463046FFF792FC8034A4B27D
:10501000AC42F7D370BD2DE9F0411F4614460D0098
:1050200006463ED401F084FAA8423ADD002C38DB73
:10503000304601F080FAA04233DD304601F076FAC6
:10504000012804D0022809D0032814D10DE02046FD
:10505000B1882C46081A401E05B20CE0B088401BEF
:10506000401E05B2F088001B03E02846F188254663
:10507000081A401E04B201202FB3012F13D0022FB3
:105080000FD1E11704EB5171C91005EBC1118A1959
:1050900002F1240192F8242004F0070398404240D2
:1050A0000A70BDE8F081E11704EB5171C91005EBFE
:1050B000C1118A1902F1240192F8242004F0070397
:1050C00098400243ECE7E11704EB5171C91005EB7E
:1050D000C1118A1902F1240192F8242004F0070377
:1050E00098408243DCE7000070B514460D4620224C
:1050F0008021FFF723FB0B490160FF2141764177B7
:10510000C17681760849047701F5007300F1240225
:10511000056203E011F8014B02F8014B9942F9D105
:1051200070BD000010770008830000202DE9F041D9
:10513000054614460E46506901F006FA012718B1DB
:10514000E7602562BDE8F081206A0028FAD0E069B6
:10515000A842F7D13046A16901F0F6F90028F1D054
:10516000606A18B1002027616062EBE7206A606224
:10517000E8E710B51446506901F0E6F9002802D0BE
:1051800000202062E06010BD2DE9F04114689846CF
:1051900016460D460746A047284601F0C4FA2149A5
:1051A00001F0D2F930B1002332463846A968FFF742
:1051B000EBFF2AE0284601F0B6FA1B4901F0C4F9DA
:1051C00018B305F110041AE0F06810B120798007D7
:1051D00014D544B1207910F0010F04D0214638468F
:1051E00000F084F802E0606807EB20202346324696
:1051F0002168FFF7C9FF3069002811D10834E96838
:1052000005EBC1001030A042DED87468002C07D036
:105210004346324629463846A446BDE8F041604739
:10522000BDE8F0814C750008587500082DE9FF4D68
:1052300082B0824614468B464FF0000810460E9D01
:1052400001F071FA274901F07FF978B1DA4504D10C
:10525000A068059901F078F940BB0095A26859460D
:105260005046059BFFF7E2FF804636E0204601F0FE
:105270005AFA1D4901F068F978B32646103426E041
:105280006068C10705D02146504600F02FF8074658
:1052900001E00AEB20275F450BD12068059901F05A
:1052A00053F930B12079A046800716D50120286037
:1052B00013E02079800709D50095226859463846C1
:1052C000059BFFF7B3FF8046286830B90834F068C3
:1052D00006EBC0001030A042D2D806B04046BDE870
:1052E000F08D00004C750008587500080268496888
:1052F00002EB212109680844704700002DE9FF4DA9
:105300008CB01446DDE91C688B4600271046199DB9
:1053100001F009FA704901F017F998B3A0680F99E4
:1053200001F012F9C8B1DBF8000010B10C99884205
:1053300004D13078022801D0286828B101202860E3
:105340000020CBF80000C3E0012030701A98C8F8A4
:1053500000000C98CBF8000012E0DDE91A1202A858
:1053600080E846011898CDE90005A26859460F9BD0
:105370000C98FFF7C3FF002803D02868002800D14D
:105380000127A5E0FFE7204601F0CDF9534901F0E0
:10539000DBF8002869D018980B9440F3400008907F
:1053A0001898103440F30000099089E0606800F01C
:1053B00001010A910C9969B10A9969B121460C98C9
:1053C000FFF794FF82461A9850B12079800707D5DD
:1053D000012006E00020F5E70C9901EB2020F1E721
:1053E0000020009020680F9901F0AEF820B3DBF8A0
:1053F000000008B1504507D16068C10702D031787C
:10540000012901D0296829B1012028600020CBF8AA
:10541000000029E0C00701D0022000E00120307028
:105420000098C8F80000CBF800A03DE0089800E024
:105430000998401C4CD142E0009900208DF81C00D6
:1054400007AACDE90428069006AB1898CDE9021307
:10545000CDE900052268594650460F9BFFF74EFFE5
:105460000028286802D020B1002731E00028FBD1B5
:1054700025E0069820B92079C00701D02068069061
:10548000307858B19DF81C10022901D1022805D0AE
:105490001B98006880B1069988420DD19DF81C00C8
:1054A00030701B9806990160D8F80000012730B1D0
:1054B0000A980028BCD0B9E701202860D4E7083456
:1054C0000B98C16800EBC1001030A0423FF66EAFF0
:1054D00010B03846BDE8F08D4C75000858750008CE
:1054E0002DE9F04387B04FF470470125DFF8B49001
:1054F00000242D4E14216846FAF7BCFF2B480168A2
:1055000041F001010160016801F0010105910168AC
:1055100041F002010160016801F00201059101689A
:1055200041F0080101600068002200F008000590C9
:10553000B84639463046FCF7A6FB0095CDE9019404
:105540004F4669461A48FCF7BBFA4FF47060CDE944
:105550000007694602943046FCF7B2FACDF80080A5
:10556000CDE90154694630460394FCF7A9FA0022BC
:1055700011460620FEF7B2FA0620FEF7A1FA002235
:1055800011461720FEF7AAFA1720FEF799FA002213
:1055900011462820FEF7A2FA2820FEF791FA07B05C
:1055A000BDE8F08300001110000C024030380240CA
:1055B0000000024030B50468256825F48025256088
:1055C000046863608368402B036803D099600068B7
:1055D000C26030BD9A600068C16030BD70B50446DD
:1055E00090F83D0094F83E10102906D1222804D1ED
:1055F00021680A6822F400620A60282131EA000268
:105600004FF000054FF0200626D0216849680905B3
:1056100003D4602801D084F83D60256384F83E50AF
:1056200020684168090537D5416821F4006141606F
:10563000606B90F835203C49012A11D00165606B00
:10564000FCF779F938B32068016821F001010160A5
:1056500084F83D60606B1CE0256384F83D10DFE753
:10566000A06B0165A06BFCF766F9A0B120684169E9
:10567000C943490605D40069616A0870606A401C24
:1056800060622068016821F00101016084F83D60DA
:10569000A06B016D884710E094F83D10602910D090
:1056A0004169C943490605D40069616A0870606AA6
:1056B000401C60622046FCF789FC206CC1071CD1AD
:1056C00015E084F83D6025644169C943490605D465
:1056D0000069616A0870606A401C60622068016845
:1056E00021F0010101602046FCF7E4FAE5E78107BB
:1056F00003D4410701D4000704D52068416821F490
:10570000E061416094F83D00216C49070BD52828E1
:1057100009D10648E062256384F83D6084F83E5074
:105720002046FCF7C9FD70BD315700080000FFFF9F
:1057300010B5806B90F83D20436B002103B1D96315
:10574000836B03B1D96303681C6824F480641C6014
:105750004185436B03B11965836B03B11965036818
:105760001C6824F001041C6090F83D402023602C4C
:105770000BD0282434EA02020FD080F83D3080F8A4
:105780003E1000BFFCF722FC10BD80F83D3080F8D1
:105790003E100164FCF78EFA10BD0268136843F0F6
:1057A000010313600268136843F4806313600163AC
:1057B00080F83D40E6E770B5846B0025616B01B170
:1057C000CD63A16B01B1CD63FCF7C7F8022811D0FE
:1057D0002068016821F4806101606585202084F8DB
:1057E0003D0084F83E50206C40F0100020642046BC
:1057F000FCF7ECFB70BD00002DE9F04190F83D4056
:10580000C26A002320261C4F01686FF48065082AB5
:1058100001D0202A01D1282C04D0212C16D04D6192
:10582000BDE8F081C7624A6822F4E0624A6001681C
:105830004D6101680A6822F480620A60036380F89F
:105840003D6080F83E30FCF737FDE9E7C762212272
:10585000026380F83D6080F83E304A6822F4E062DE
:105860004A6001684D6101680A6822F480620A603A
:10587000FDF741FDD4E700000000FFFF90F83E1067
:10588000402910D00169B1F5804F19D0016DA9B33D
:10589000016D012910D1416C5FF0F10201F44071FA
:1058A00042EAD11106E0016D0029416C05D0C9B270
:1058B00041F0010100680161704701F0FE01F9E764
:1058C00090F83D102129416C09D0C9B241F0010185
:1058D00002681161416B29B1C96B49B902E001F05D
:1058E000FE01F5E7816B0029E6D0C96B0029E3D002
:1058F0000068416841F4006141607047FFE7416C16
:10590000F02201F44071CBE72DE9F041846B94F86B
:105910003D2094F83E50E16A2068436823F44073C8
:105920004360636B002003B1D863A36B03B1D863FA
:10593000212333EA02074FF022060CD036EA020791
:1059400001D1202D07D094F83E20002A21D0628D6D
:10595000012A20D024E021684D6825F400654D60BF
:1059600060852820292A02D02A2A07D00CE0236348
:1059700084F83D002046FDF7BEFC05E0266384F870
:105980003D002046FDF7B6FC2068416841F44071B7
:105990004160BDE8F0812268136823F480631360DE
:1059A0002268536823F44073536011F5803F06D09A
:1059B000082904D0B1F12A4F01D0202904D121684F
:1059C0000A6842F400720A6021684A6822F4805230
:1059D0004A6021684A6822F400624A606085216C4E
:1059E00019B12046FCF7F2FAD3E7202184F83D10E4
:1059F00094F83E1084F83E00402905D01220206320
:105A00002046FCF75AFCC4E720632046FDF710F956
:105A1000BFE7000078B590F83E50C26A036B90F87B
:105A20003D6000240168222E7AD1066D0EB9402D0A
:105A300076D0056D1DB90569B5F5404F09D0458D86
:105A400005B3468D384D012E0ED0438D022B3AD032
:105A50005DE04A698A6900920A6842F480720A60CD
:105A6000016D491C016578BDAA4213D10A6822F470
:105A700080620A6001684A68120503D50A6822F448
:105A8000806216E04A698A6900920A6842F40072EC
:105A90000A6039E0082A10D0202A0ED0122B0AD032
:105AA000042A03D0022A01D0102AE7D10A6842F45E
:105AB00080620A6024E0012AE0D00A6822F4806251
:105AC0000A600168DEE7042A21D0022A1FD0102ACA
:105AD0001DD00B6823F480630B6001680B6843F4EE
