:020000040800F2
:10000000A00B0020A101000841110008DD0E00082E
:100010003F110008270300086911000800000000D4
:100020000000000000000000000000004511000872
:1000300029030008000000004311000847110008D0
:10004000BB010008BB010008BB010008BB010008A0
:10005000BB010008BB010008BB010008BB01000890
:10006000BB010008BB010008BB010008BB01000880
:10007000BB010008BB010008BB010008BB01000870
:10008000BB010008BB010008BB010008BB01000860
:10009000BB010008BB010008BB010008BB01000850
:1000A000BB010008BB010008BB010008BB01000840
:1000B000BB010008BB010008BB010008BB01000830
:1000C000BB010008BB010008BB010008BB01000820
:1000D000BB010008BB010008BB010008BB01000810
:1000E000BB010008BB010008BB010008BB01000800
:1000F000BB010008BB010008BB010008BB010008F0
:10010000BB010008BB010008BB010008BB010008DF
:10011000BB010008BB010008BB010008BB010008CF
:10012000BB010008BB010008BB010008BB010008BF
:10013000BB010008BB010008BB010008BB010008AF
:10014000BB010008BB010008BB010008BB0100089F
:10015000BB010008BB010008BB010008BB0100088F
:10016000BB010008BB010008BB010008BB0100087F
:10017000BB010008BB010008BB0100080000000033
:10018000BB010008BB010008DFF810D000F08EF8BA
:1001900000F05CF80048004711170008A00B002091
:1001A0000648804706480047FEE7FEE7FEE7FEE711
:1001B000FEE7FEE7FEE7FEE7FEE7FEE74D1100087B
:1001C000890100082DE9F05F0546002092469B4614
:1001D00088460646814640241BE02846414647465D
:1001E000224600F052F853465A46C01A914110D3A5
:1001F00011461846224600F039F82D1A67EB01081F
:100200004F4622460120002100F030F817EB00098C
:100210004E41201EA4F10104DFDC484631462A4647
:100220004346BDE8F09FD2B201E000F8012B491E21
:10023000FBD270470022F6E710B513460A46044683
:100240001946FFF7F0FF204610BD000070B5054CC1
:10025000054D03E0206820448047241DAC42F9D1BD
:1002600070BD0000A0180008A8180008202A04DBB0
:10027000203A00FA02F1002070479140C2F12003B9
:1002800020FA03F3194390407047202A04DB203AF8
:1002900021FA02F00021704721FA02F3D040C2F1A6
:1002A000200291400843194670477047064C074D9D
:1002B00006E0E06840F0010394E807009847103436
:1002C000AC42F6D3FFF764FF80180008A0180008BE
:1002D00070B58C1810F8015B15F0070301D110F808
:1002E000013B2A1106D110F8012B03E010F8016B35
:1002F00001F8016B5B1EF9D12B0705D40023521EB8
:100300000DD401F8013BFAE710F8013BCB1A921C1F
:1003100003E013F8015B01F8015B521EF9D5A1421D
:10032000D8D3002070BDFEE77047000070B50446CA
:1003300000F0F6F80546601C02D00448007804443A
:1003400000F0EEF8401BA042FAD370BD84020020FA
:100350002DE9F84F00224FF0010803254FF00F0E52
:100360000B6808FA02F42340A3426ED14E68012EB6
:1003700005D0022E03D0112E01D0122E12D1866884
:100380004FEA420C05FA0CF7BE43CF6807FA0CF7A8
:10039000374387604668A6430C79C4F30014944041
:1003A00034434460C668570005FA07FC8C6826EAA7
:1003B0000C06BC403443C4604C68022C01D0122CA3
:1003C00013D1D40800EB8404A346D4F8209054073A
:1003D0004FEAD46A0EFA0AF629EA06090E6906FA05
:1003E0000AF646EA0906CBF8206006680C7926EA88
:1003F0000C0604F00304BC40344304604C68E40081
:1004000065D5364C266846F480462660246822F07E
:10041000030604F480440094314C3444A446D4F8D8
:1004200008489607370F0EFA07F6B4432D4EB04230
:1004300001D1002624E02C4EB04201D101261FE05C
:100440002A4EB04202D102261AE040E0284EB042C5
:1004500001D1032614E0274EB04201D104260FE05B
:10046000254EB04201D105260AE0244EB04201D10A
:10047000062605E0224EB04201D1072600E00826FC
:10048000BE402643CCF808681E4E34684F689C4333
:10049000FF0300D51C4334601A4C241D26684F68A6
:1004A0009E43BF0300D51E432660164E08363468AF
:1004B0004F689C43FF0200D51C433460114E0C363C
:1004C00034684F689C43BF0200D51C433460521C03
:1004D000102AFFF445AFBDE8F88F00004438024011
:1004E00000300140000002400004024000080240C9
:1004F000000C0240001002400014024000180240AC
:10050000001C0240003C0140426931EA020200D175
:100510000904816170470AB1816170470904FBE7F2
:1005200001488068704700008402002070B5040014
:1005300025D094F83D00002520B984F83C50204691
:1005400000F04EF9242084F83D002068016821F075
:10055000010101602068016841F4004101602068E8
:10056000016821F40041016000F0B6FA4D4A61686B
:10057000914201D84C4900E04C49884201D2012007
:1005800070BD4B492368B0FBF1F15E6826F03F0671
:100590000E435E606368934206D94FF496735943E5
:1005A0004FF47A73B1FBF3F12368491C1E6A26F0FD
:1005B0003F06314319626168914210D84900401EDC
:1005C000B0FBF1F2521CC2F30B02042A01D2042048
:1005D00022E0B0FBF1F0401CC0F30B001CE0A2686D
:1005E000F2B301EBC10303EB0116431EB3FBF6F3B9
:1005F0005B1C43F480431B0549D092B301EBC1025D
:1006000002EB0111401EB0FBF1F0401CC0F30B00E7
:1006100040F4804040F400402168CA694CF6FF7302
:100620009A431043C861D4E9071001432068026867
:1006300022F0C00211430160D4E9030101432068A4
:10064000826848F2FF339A4311438160D4E905017F
:1006500008432168CA6822F0FF021043C86001E025
:100660000EE016E02068016841F001010160256498
:10067000202084F83D00256384F83E50002070BDA2
:1006800001EB4106431EB3FBF6F35B1CB3E701200D
:10069000C2E701EB4101401EB0FBF1F0401CC0F38A
:1006A0000B00B7E7A086010080841E0000093D0012
:1006B00040420F002DE9F84F1F4690468A460446F7
:1006C000DDF82890FFF72CFF054694F83D00202820
:1006D0007FD11923012240492046009500F08AFC71
:1006E000002876D194F83C00012872D0012084F8CB
:1006F0003C0020680168C90703D1016841F001018D
:1007000001602068016821F400610160212084F803
:100710003D00102084F83E0000262664C4F82480A2
:100720006785608D20852D48E0622B464A465146FC
:10073000204600F0EBFB90B9206841698069009089
:1007400036E02A464946204600F0D3FC50B1206CE2
:10075000042804D12068016841F40071016001207F
:10076000BDE8F88F606A216800780861606A401C03
:100770006062618D491E6185218D491E89B2218586
:1007800022685369DB435B070BD451B100781061D9
:10079000606A401C6062608D401E6085208D401E36
:1007A00020852A464946204600F0FEFB0028CED18F
:1007B000208D0028C5D154F83D0B016841F400712B
:1007C0000160202004F81E09E67766770020C7E75D
:1007D000FFE70220C4E70000020010000000FFFF56
:1007E000F0B587B0044614216846FFF723FD27685B
:1007F000234CDFF888C00022214912230325042658
:1008000020481034674518D10F6847F002070F6081
:10081000096802AF01F002010591C021CDE9001382
:1008200087E864006946FFF793FD206840F40010F4
:100830002060206800F400101CE0DFF84CC0674521
:1008400019D10F6847F002070F60096802AF01F085
:10085000020105914FF44061CDE9001387E864007F
:100860006946FFF775FD206840F48000206020682D
:1008700000F48000059007B0F0BD00000054004077
:1008800030380240000402400058004002488168AD
:100890000278114481607047840200200B4810B533
:1008A000016841F400710160016841F480610160F8
:1008B000016841F480710160032000F061F80020BC
:1008C00000F006F800F024F8002010BD003C0240C3
:1008D00070B50D4D04464FF47A712878B1FBF0F0F5
:1008E0000A490968B1FBF0F000F0E4FA48B9102CAD
:1008F00007D200222146501E00F022F800206C6032
:1009000070BD012070BD0000840200209002002014
:100910000A4808B5016841F480410160006800F4AC
:10092000804000900548001F016841F0805101603F
:10093000006800F08050009008BD0000443802407C
:10094000F0B40E4B1B680C46C3F30223C3F107053A
:10095000042D00D90425191D072901D2002300E028
:10096000DB1E012606FA05F1491E214099409E40F2
:10097000761E16403143F0BC00F08CBE0CED00E05A
:10098000064900F0070208684FF6FF03184040EAE6
:100990000220034A10430860704700000CED00E09D
:1009A0000000FA052DE9F0470E46050065D0DFF896
:1009B0001481D8F80000F7B200F00F00B04207D25F
:1009C00088F80070D8F8000000F00F00B04254D151
:1009D00028683D4C810712D5400703D5206840F4B4
:1009E000E05020602878000703D5206840F460407C
:1009F00020602068A96820F0F00008432060287873
:100A0000C0072DD0304968680839012812D0022863
:100A100013D0032811D00968890700292DDA21682D
:100A200021F0030101432160FFF77AFD814641F285
:100A3000883A0EE009688903EFE709688901ECE765
:100A4000FFF76EFDA0EB0901514502D90320BDE877
:100A5000F0872068696800F00C00B0EB810FEFD1DF
:100A6000D8F80010404601F00F01B14207D90770D5
:100A7000006800F00F00B04201D00120E7E72878BD
:100A8000400705D52068E96820F4E050084320605D
:100A90002878000706D52068296920F4604040EADC
:100AA000C100206000F028F82168084AC1F3031152
:100AB000515CC8400649086006480068FFF708FF17
:100AC0000020C4E7003C0240083802401818000823
:100AD0009002002088020020044805490068096847
:100AE000044AC1F38221515CC84070479002002043
:100AF0000838024028180008154810B5006810F0A2
:100B00000C02144813D04110042A0FD0082A0ED129
:100B10000F4C241F2268236802F03F025B0207D5B6
:100B20002068C0F38810A0FB010106E0084610BD54
:100B30002168C1F38811A1FB00010023FFF742FBEC
:100B40002168C1F30141491C4900B0FBF1F010BD1F
:100B5000083802400024F4002DE9F84F040076D054
:100B60002078DFF838A3CE4DC00749D0DAF800105E
:100B70005046C1F38101012908D00068C0F381000B
:100B800002280AD1281D0068400206D52868800383
:100B900036D560680028E2D032E06068B0F5803F6A
:100BA00010D0B0F5A02F286810D020F48030286035
:100BB000286820F4802028606068A0B1FFF7B0FCAE
:100BC00006460CE0286840F48030F4E740F48020CA
:100BD0002860F7E7FFF7A4FC801B642873D8286817
:100BE0008003F7D50CE0FFF79BFC064605E000BF4D
:100BF000FFF796FC801B6428F0D828688003F7D4A0
:100C00002078DFF8A08280074FF000093ED5DAF89F
:100C10000010504611F00C0F09D00068C0F381009D
:100C200002280BD19D48001F0068400206D42868A6
:100C3000800715D5E068012809D111E0E068B8B156
:100C40000120C8F80000FFF76BFC064605E020E134
:100C5000FFF766FC801B0228C0D828688007F7D5FC
:100C60002868216920F0F80040EAC10028600DE002
:100C7000C8F80090FFF754FC064604E0FFF750FC6C
:100C8000801B02281FD828688007F7D42078000727
:100C900022D5824E844861696C3671B101210160B0
:100CA000FFF73EFC074604E0FFF73AFCC01B0228B2
:100CB00009D830688007F7D50EE0C0F80090FFF73C
:100CC0002FFC074605E082E0FFF72AFCC01B022844
:100CD0007DD830688007F7D42078400768D5DFF8E2
:100CE000BCB100270BF1380BDBF80000C0000BD4BF
:100CF000DBF8001041F08051CBF80010DBF8000069
:100D0000012700F080500090684E3068C00510D474
:100D1000306840F480703060FFF702FC009005E01E
:100D2000FFF7FEFB0099401A022850D83068C00532
:100D3000F6D55A4EA068683601280FD005283068CD
:100D400010D020F001003060306820F004003060E6
:100D5000A068B8B1FFF7E4FB00900FE0306840F006
:100D60000100F4E740F004003060F7E7FFF7D8FB3C
:100D70000099411A41F28830814266D83068800774
:100D8000F4D50EE0FFF7CCFB009007E0FFF7C8FBBF
:100D90000099411A41F28830814256D83068800764
:100DA000F4D42FB1DBF8001021F08051CBF8001003
:100DB000A069D0B3DAF800205146C2F38102022ABA
:100DC0004AD00228484607D0C8F8600000E03CE05E
:100DD000FFF7A6FB04463BE04746C8F86000FFF774
:100DE0009FFB064605E000BFFFF79AFB801B022829
:100DF0002BD828688001F7D4D4E907010843A16AF9
:100E00002B4A490802EB0141626A41EA8211084318
:100E100094F82C1040EA01612048001F0160012075
:100E20003866FFF77DFB044605E034E0FFF778FB0A
:100E3000001B022809D828688001F7D52BE000BFE5
:100E4000FFF76EFB001B022802D90320BDE8F88FD4
:100E500028688001F4D41EE00128F7D00868E26910
:100E600000F48001914214D1226A00F03F019142C6
:100E70000FD147F6C071626A0140914209D1A26A5E
:100E800000F44031914204D1E16A00F07060884280
:100E900001D00120DAE70020D8E70000083802403E
:100EA0000038024000004742800E47420070004078
:100EB0000000FFFF10B5401EB0F1807F01D301207C
:100EC00010BD4FF0E02460610F21601700F0E2FBDD
:100ED0000020A06107202061002010BDFEE701680E
:100EE0004A69D24352050FD46FF480624A610021EF
:100EF00040F8301F202242738173026942F00402DD
:100F0000026101730120704700207047F8B5044664
:100F1000C06A1E460D461746082807D0012805D08E
:100F200010F5803F02D0206B122804D120680168A0
:100F300041F480710160134600224FF001112046F8
:100F4000009600F057F840B120680068C00502D54F
:100F50004FF4007020640320F8BD2069B0F5804F85
:100F60000ED00620216800EAD51040F0F00008619C
:100F700033463A460B49204600F070F878B902E053
:100F800005F0FE0000E0E8B221680861054933463B
:100F90003A46891F204600F061F80028DCD0012085
:100FA000F8BD00000800010070B516460D46044665
:100FB0000DE02046FFF793FF08B1012070BD681CCB
:100FC00005D0FFF7ADFA801BA84207D835B12068DD
:100FD0004069C0434007ECD4002070BD002044F8B5
:100FE000300F20216173A073216941F0200121613C
:100FF0002073E2E72DE9F0471E4690460D46044671
:10100000C1F30747DDF8209008E0701C06D0FFF719
:1010100087FAA0EB0900B0420FD876B12068012F03
:1010200018D0806925EA00000004000C14D00021CB
:101030004145EAD00020BDE8F087002044F8300F99
:1010400020216173A073216941F020012161207387
:101050000120F0E74069E5E70121E9E72DE9F047E4
:101060009A4691460E46044600254FF02008C1F3EB
:10107000074725E020684069C043400514D4206834
:10108000016841F40071016021686FF4806048617B
:10109000256384F83D8084F83E50206C40F00400C5
:1010A000206484F83C501FE0B9F1FF3F08D0FFF7FF
:1010B00037FAA0EB0A0149450CD8B9F1000F09D065
:1010C0002068012F13D0806926EA00000004000C7C
:1010D0000BD0CFE744F8305F84F80D80A57320690A
:1010E00040F02000206125730120BDE8F0874069B1
:1010F000EAE770B516460D4604460DE02046FFF7B8
:10110000EEFE08B1012070BD681C05D0FFF708FA9B
:10111000801BA84207D835B120684069C04300064B
:10112000ECD4002070BD002044F8300F2021617302
:10113000A073216941F0200121612073E2E7FEE7FD
:10114000704770477047FFF7A1BB00000548016872
:1011500041F47001016003494FF00060803908607C
:101160007047000088ED00E0FEE7000030B593B066
:1011700030216846FFF75EF814210CA8FFF75AF8F3
:1011800019480025016841F080510160006800F0B5
:10119000805011901548016841F480410160006859
:1011A000022400F48040119001200390102004904C
:1011B000009406940820CDE90750A820CDE9090441
:1011C00007200B906846FFF7C7FC0CA90F2081E8A9
:1011D00031004FF4A0500F90E002109005210CA8B0
:1011E000FFF7E0FB13B030BD403802400070004014
:1011F0002DE9FF5F14460E980E461D46021BA3EB19
:10120000060100D55242002900DA49428A4207DD30
:101210003146264605464FF001080C46184601E0C7
:101220004FF00008AE4205DD31462E460D46214600
:1012300004460846A91B0FFA81F9011B00D5494253
:101240000FFA81FB09EBD9714F10844201DA0120BA
:1012500001E04FF0FF3082461CE000BF00980F9B7A
:10126000B8F1000F0068D0F800C002D03246214625
:1012700001E0224631460098E047A7EB0B0007B299
:10128000002F05DA04EB0A0004B207EB090007B2ED
:10129000761C36B2AE42E1DDBDE8FF9F084B03602D
:1012A0008180C28001814281002141758181C1819B
:1012B000012101754FF6FF724282028281757047EB
:1012C0003818000810B5044800F074F8BDE8104064
:1012D000024800F06FB80000580300207C05002091
:1012E00010B5012378220221054800F09DF8012362
:1012F0007822BDE810400221024800F095B80000B5
:10130000580300207C05002010B5044800F00AF9BD
:10131000BDE81040024800F005B900005803002065
:101320007C0500202DE9FC411E46DDE908481546F4
:101330000F46202A05DA202C11DACDE900481248A0
:101340001EE0202C07DB203C20B2CDE90008A2F1F2
:1013500020052AB212E0254614461F460E46CDE966
:10136000004833462A4639460748FFF741FF203CEC
:1013700021B2CDE90018203D33462AB23946034850
:10138000FFF736FFBDE8FC81580300207C050020F4
:1013900080210180402242808180C28000214174EE
:1013A00001814181012101744FF6FF72C281828166
:1013B000817470474FF40073002200F1240100F0A3
:1013C000A9B8000038B504460C4800228B188518CF
:1013D0002344521C93F82430D2B26B70802AF5D388
:1013E0001025009594F91700812381B2034A206AE1
:1013F000FFF760F90028F4D138BD0000020000209A
:1014000038B50446074810254170009594F9170037
:10141000022381B2034A206AFFF74CF90028F4D175
:1014200038BD00000000002070B501760C4605466E
:10143000C275AE21FFF7E4FFD5212846FFF7E0FF94
:1014400080212846FFF7DCFFA8212846FFF7D8FFB8
:101450001F212846FFF7D4FFD3212846FFF7D0FFEE
:1014600000212846FFF7CCFF40212846FFF7C8FFA0
:101470008D212846FFF7C4FF012C47D014212846B0
:10148000FFF7BEFF20212846FFF7BAFF00212846BC
:10149000FFF7B6FFA1212846FFF7B2FFC821284673
:1014A000FFF7AEFFDA212846FFF7AAFF0221284600
:1014B000FFF7A6FF81212846FFF7A2FF8F212846CC
:1014C000FFF79EFFD9212846FFF79AFF012C1FD076
:1014D000F1212846FFF794FFDB212846FFF790FF14
:1014E00040212846FFF78CFFA4212846FFF788FFFC
:1014F000A6212846FFF784FF2E212846FFF780FF0C
:101500002846BDE87040AF21FFF77ABF1021B6E74B
:101510002221DEE7002002E08854521C92B29A4257
:10152000FAD3704770B506462121FFF769FF002105
:101530003046FFF765FF7F213046FFF761FF22212C
:101540003046FFF75DFF00213046FFF759FF0321CA
:101550003046FFF755FF00244FF400752146304612
:10156000FFF730FF8034A4B2AC42F7D370BD2DE951
:10157000F0411F4614460D0006463ED400F084F8A4
:10158000A8423ADD002C38DB304600F080F8A0425B
:1015900033DD304600F076F8012804D0022809D067
:1015A000032814D10DE02046B1882C46081A401EAD
:1015B00005B20CE0B088401B401E05B2F088001B4D
:1015C00003E02846F1882546081A401E04B201208F
:1015D0002FB3012F13D0022F0FD1E11704EB51715C
:1015E000C91005EBC1118A1902F1240192F82420D7
:1015F00004F00703984042400A70BDE8F081E1170B
:1016000004EB5171C91005EBC1118A1902F12401D3
:1016100092F8242004F0070398400243ECE7E11716
:1016200004EB5171C91005EBC1118A1902F12401B3
:1016300092F8242004F0070398408243DCE700007E
:1016400070B514460D4620228021FFF727FE0B4976
:101650000160FF2141764177C176817608490477A0
:1016600001F5007300F12402056203E011F8014B5B
:1016700002F8014B9942F9D170BD000060180008D2
:1016800083000020407D7047B0F908007047B0F932
:101690000A0070470907090E002804DB00F1E0206A
:1016A00080F80014704700F00F0000F1E02080F88F
:1016B000141D70470020FEF7F8BD02E008C8121F95
:1016C00008C1002AFAD170477047002001E001C12B
:1016D000121F002AFBD1704710B5002205490648A9
:1016E000FFF7AEFFBDE81040002204490448FFF7B1
:1016F000A7BF00009402002058030020E802002049
:101700007C0500200148FFF743BE00003C03002099
:1017100086B0FFF7C3F8FFF729FD14216846FEF7EE
:1017200089FD37480024016841F008010160016823
:1017300001F008010591016841F0020101600068B3
:10174000304E00F002004FF47045059022462946C5
:101750003046FEF7E0FE4FF001080095CDE9018428
:10176000694630460394FEF7F3FD28482649284F82
:101770000160C0E901740D14C0E90345446184614E
:10178000C4610462FEF7D2FE204822495430016051
:10179000C0E90174C0E9034544618461C461046225
:1017A000FEF7C4FE1948012378220221A830FFF772
:1017B00097FD1648A830FFF7A7FD4FF47A70FEF7A3
:1017C000B5FD1248A830FFF77DFD3F21CDE9001897
:1017D0000E483C2300221946A830FFF7A3FD0B4812
:1017E000A830FFF791FD7810FEF7A0FD4FF4FA74D2
:1017F00029463046FEF788FE2046FEF797FDF7E7BC
:1018000030380240000C0240005400409402002096
:10181000A086010000580040000000000000000009
:101820000102030406070809000000000102030486
:101830000000000000000000B5160008F1110008CB
:101840000000000000000000000000000000000098
:101850000000000000000000000000000000000088
:101860006F150008F11100080000000000000000E2
:101870000000000000000000000000000000000068
:10188000A81800080000002094020000D002000800
:101890009C190008940200200C090000CA160008D8
:1018A00065FEFFFF35FEFFFF2102814016060AFE9E
:1018B0000AE612F012F8B2FCC78448FE32B4482D92
:1018C000FE060A1201F40A06FEC00986027884A404
:1018D000680286E00A0E7A8684B4A4A67A0E8F780F
:1018E00048FE82BABA03E94BB15301014CE0F03033
:1018F00001480C3131F1E10101E1F1313131117B6C
:10190000F0E02A4920491622F0790F2B31310F01DE
:101910001D1440C0C01CC0C040081C4040C006216F
:10192000390D39074193FFFF290B6CFFFF60013927
:101930001A2B0E0EE2791449167BE0E00F537F7FDD
:101940006B80800459055904100A8080203F033CB5
:10195000033F201E203F222730061B030C0D11657C
:101960001F20201F8B3F7F4CFA3F0F11CC0707072A
:101970008029718A7F254B6060E6167F04047F40D2
:101980001E3F4040403F0D1C0778070E16407F4425
:0C1990004E61320182101324F4000000AC
:040000050800018965
:00000001FF
