:020000040800F2
:10000000100E00206D0200085F1100085B1100084F
:100010005D1100080F0500088511000800000000B0
:100020000000000000000000000000006311000854
:1000300011050008000000006111000865110008AA
:10004000870200088702000887020008870200086C
:1000500087020008870200081305000887020008CD
:10006000870200088702000887020008870200084C
:10007000870200088702000887020008870200083C
:10008000870200088702000887020008870200082C
:100090008702000887020008870200082F05000871
:1000A000870200088702000887020008870200080C
:1000B00087020008870200088702000887020008FC
:1000C00087020008870200088702000887020008EC
:1000D00087020008870200088702000887020008DC
:1000E0001905000887020008870200088702000837
:1000F00087020008870200088702000887020008BC
:1001000087020008870200088702000887020008AB
:10011000870200088702000887020008870200089B
:10012000870200088702000887020008870200088B
:10013000870200088702000887020008870200087B
:10014000870200088702000887020008870200086B
:10015000870200088702000887020008870200085B
:10016000870200088702000887020008870200084B
:1001700087020008870200088702000800000000CC
:10018000870200088702000800F002F800F05EF81D
:100190000AA090E8000C82448344AAF10107DA45E2
:1001A00001D100F053F8AFF2090EBAE80F0013F0D6
:1001B000010F18BFFB1A43F001031847002E00007F
:1001C000202E00000A444FF0000C10F8013B13F001
:1001D000070408BF10F8014B1D1108BF10F8015BA0
:1001E000641E05D010F8016B641E01F8016BF9D193
:1001F00013F0080F1EBF10F8014BAD1C0C1B09D1EA
:100200006D1E58BF01F801CBFAD505E014F8016B5B
:1002100001F8016B6D1EF9D59142D6D370470000ED
:100220000023002400250026103A28BF78C1FBD8FF
:10023000520728BF30C148BF0B6070471FB502F09E
:1002400073FE00F0D5F81FBD10B510BD00F010F919
:100250001146FFF7F3FF02F073FD00F02EF903B42F
:10026000FFF7F2FF03BC00F0F9F8000009488047EF
:1002700009480047FEE7FEE7FEE7FEE7FEE7FEE788
:10028000FEE7FEE7FEE7FEE704480549054A064BA0
:10029000704700006911000889010008100800205B
:1002A000100E0020100A0020100A002053EA020C51
:1002B00000F069802DE9F04B4FF00006002B1FBFC6
:1002C000B3FA83F503FA05F424FA05F65E4012BF8B
:1002D0001643B2FA82F502FA05F4C5F120051EBFF5
:1002E00022FA05FC44EA0C04203556EA044C4FEA95
:1002F000144418BF641C4FF000084FF000099042EE
:1003000071EB030C39D3002919BFB1FA81F701FA57
:1003100007F6B0FA80F700FA07F6C7F120071EBF0C
:1003200020FA07FC46EA0C062037B6FBF4FCA7EBE4
:100330000507103F07F01F0BCBF120060CFA0BFB53
:100340002CFA06F644BFB3460026202FA4BF5E4613
:100350004FF0000B5BEA060C08BF4FF0010B19EBE6
:100360000B09ABFB027C48EB0608C01B06FB02CC6A
:100370000BFB03CC71EB0C01C1E70B460246414677
:100380004846BDE8F08B13B54FF000004FF0000178
:10039000AFF30080BDE81C4070474FF0000200B58D
:1003A000134694469646203922BFA0E80C50A0E898
:1003B0000C50B1F12001BFF4F7AF090728BFA0E846
:1003C0000C5048BF0CC05DF804EB890028BF40F812
:1003D000042B08BF704748BF20F8022B11F0804F54
:1003E00018BF00F8012B7047704770477047000036
:1003F00070B5064C7C44064D7D4403E020682044E3
:100400008047241DAC42F9D170BD0000E42B0000F0
:10041000E82B000010B500F009F8BDE81040AFF37C
:100420000080002801D000F019B8704710B50021F5
:1004300002A000F04BF8012010BD000053494750C6
:1004400056464E3A20507572652076697274756111
:100450006C20666E2063616C6C6564000149182035
:10046000ABBEFEE72600020000487047B007002040
:100470007546FFF7F9FFAE4605006946534620F082
:100480000700854618B020B5FFF7FEFEBDE8204006
:100490004FF000064FF000074FF000084FF0000B40
:1004A00021F00701AC46ACE8C009ACE8C009ACE8F3
:1004B000C009ACE8C0098D46704710B50446AFF3DB
:1004C00000802046BDE81040FFF7C9BE70B5054664
:1004D0000C460A2000E06D1C00F011F835B12878B8
:1004E0000028F8D102E0641C00F009F814B120786B
:1004F0000028F8D1BDE870400A20AFF3008008B5AD
:1005000069468DF800000320ABBE08BD7047FEE7CA
:100510007047012000F03AB810B54FF4806000F049
:1005200035F8BDE810404FF4006000F02FB810B56A
:100530004FF4807000F02AF8BDE810404FF40070CE
:1005400000F024B870B5044600F014F90546601CAC
:1005500002D004480078044400F00CF9401BA0428B
:10056000FAD370BD0000002010B572B64FF4805170
:10057000054800F0F3F8002042F21071401C884258
:10058000FCDB62B610BD0000000C0240044910B54F
:100590000A68024202D00860FFF7E6FF10BD0000C3
:1005A000143C01402DE9F84F00224FF001080325CB
:1005B0004FF00F0E0B6808FA02F42340A3426ED1ED
:1005C0004E68012E05D0022E03D0112E01D0122E1E
:1005D00012D186684FEA420C05FA0CF7BE43CF6889
:1005E00007FA0CF7374387604668A6430C79C4F3D3
:1005F0000014944034434460C668570005FA07FC71
:100600008C6826EA0C06BC403443C4604C68022C5B
:1006100001D0122C13D1D40800EB8404A346D4F8E3
:10062000209054074FEAD46A0EFA0AF629EA06091E
:100630000E6906FA0AF646EA0906CBF82060066853
:100640000C7926EA0C0604F00304BC403443046031
:100650004C68E40065D5364C266846F48046266032
:10066000246822F0030604F480440094314C34449E
:10067000A446D4F808489607370F0EFA07F6B44395
:100680002D4EB04201D1002624E02C4EB04201D1C3
:1006900001261FE02A4EB04202D102261AE040E0B5
:1006A000284EB04201D1032614E0274EB04201D1BA
:1006B00004260FE0254EB04201D105260AE0244E63
:1006C000B04201D1062605E0224EB04201D10726F4
:1006D00000E00826BE402643CCF808681E4E346869
:1006E0004F689C43FF0300D51C4334601A4C241D03
:1006F00026684F689E43BF0300D51E432660164EF2
:10070000083634684F689C43FF0200D51C433460B0
:10071000114E0C3634684F689C43BF0200D51C4311
:100720003460521C102AFFF445AFBDE8F88F00007A
:100730004438024000300140000002400004024002
:1007400000080240000C0240001002400014024069
:1007500000180240001C0240003C0140426931EA9E
:10076000020200D10904816170470AB181617047BA
:100770000904FBE701488068704700000000002082
:1007800070B5040025D094F83D00002520B984F808
:100790003C50204600F050F9242084F83D002068A9
:1007A000016821F0010101602068016841F4004105
:1007B00001602068016821F40041016000F0C6FA80
:1007C0004D4A6168914201D84C4900E04C49884249
:1007D00001D2012070BD4B492368B0FBF1F15E6886
:1007E00026F03F060E435E606368934206D94FF4DD
:1007F000967359434FF47A73B1FBF3F12368491CA4
:100800001E6A26F03F06314319626168914210D892
:100810004900401EB0FBF1F2521CC2F30B02042A45
:1008200001D2042022E0B0FBF1F0401CC0F30B0029
:100830001CE0A268F2B301EBC10303EB0116431EF7
:10084000B3FBF6F35B1C43F480431B0549D092B322
:1008500001EBC10202EB0111401EB0FBF1F0401CA4
:10086000C0F30B0040F4804040F400402168CA69A6
:100870004CF6FF739A431043C861D4E90710014353
:100880002068026822F0C00211430160D4E903012C
:1008900001432068826848F2FF339A431143816024
:1008A000D4E9050108432168CA6822F0FF02104319
:1008B000C86001E00EE016E02068016841F0010127
:1008C00001602564202084F83D00256384F83E50B3
:1008D000002070BD01EB4106431EB3FBF6F35B1C29
:1008E000B3E70120C2E701EB4101401EB0FBF1F08C
:1008F000401CC0F30B00B7E7A086010080841E00F7
:1009000000093D0040420F002DE9F84F9846174678
:100910008A460446DDF82890FFF72CFF064694F837
:100920003D0020287ED1192301224149204600960E
:1009300002F0FAF8002878D194F83C00012874D02D
:10094000012084F83C00206801684FF00005C907C9
:1009500003D1016841F0010101602068016821F4C0
:1009600000610160212084F83D00102084F83E00E1
:1009700025646762A4F82A80608D20852D48E06296
:1009800033464A465146204602F068F890B920683E
:1009900041698069009036E032464946204602F0BF
:1009A00021F950B1206C042804D12068016841F479
:1009B000007101600120BDE8F88F606A216800784D
:1009C0000861606A401C6062618D491E6185218DED
:1009D000491E89B2218522685369DB435B070BD42A
:1009E00051B100781061606A401C6062608D401EE9
:1009F0006085208D401E208532464946204602F003
:100A0000CBF80028CED1208D0028C5D154F83D0B5D
:100A1000016841F400710160202004F81E09E577A7
:100A2000657700E001E00020C5E70220C3E7000091
:100A3000020010000000FFFFF0B587B0044614214B
:100A40006846FFF7AAFC2768234CDFF888C0224AD3
:100A5000122303250426214810340021674518D1AC
:100A6000176847F002071760126802AF02F002022F
:100A7000059287E86200C0226946CDE90023FFF7AE
:100A800091FD206840F400102060206800F4001000
:100A90001CE0DFF84CC0674519D1176847F0020722
:100AA0001760126802AF02F00202059287E8620046
:100AB0004FF440626946CDE90023FFF773FD2068DB
:100AC00040F480002060206800F48000059007B0AA
:100AD000F0BD0000005400403038024000040240E5
:100AE00000580040024881680278114481607047D4
:100AF000000000200B4810B5016841F4007101604E
:100B0000016841F480610160016841F48071016015
:100B1000032000F06FF8002000F006F800F024F841
:100B2000002010BD003C024070B50D4D04464FF44E
:100B30007A712878B1FBF0F00A490968B1FBF0F04E
:100B400000F0F6FA48B9102C07D200222146501EB8
:100B500000F030F800206C6070BD012070BD000016
:100B6000000000200C0000200A4808B5016841F48C
:100B700080410160006800F4804000900548001F3B
:100B8000016841F080510160006800F080500090E1
:100B900008BD000044380240002809DB00F01F02B5
:100BA000012191404009800000F1E020C0F80011CF
:100BB00070470000F0B40E4B1B680C46C3F30223D1
:100BC000C3F10705042D00D90425191D072901D2F9
:100BD000002300E0DB1E012606FA05F1491E214034
:100BE00099409E40761E16403143F0BC02F06BB82F
:100BF0000CED00E0064900F0070208684FF6FF031D
:100C0000184040EA0220034A104308607047000081
:100C10000CED00E00000FA052DE9F0470E46050056
:100C200065D0DFF81481D8F80000F7B200F00F00AB
:100C3000B04207D288F80070D8F8000000F00F002A
:100C4000B04254D128683D4C810712D5400703D5E6
:100C5000206840F4E05020602878000703D5206821
:100C600040F4604020602068A96820F0F00008434C
:100C700020602878C0072DD03049686808390128DD
:100C800012D0022813D0032811D00968890700293F
:100C90002DDA216821F0030101432160FFF76AFD8D
:100CA000814641F2883A0EE009688903EFE7096856
:100CB0008901ECE7FFF75EFDA0EB0901514502D980
:100CC0000320BDE8F0872068696800F00C00B0EBF5
:100CD000810FEFD1D8F80010404601F00F01B1426A
:100CE00007D90770006800F00F00B04201D0012062
:100CF000E7E72878400705D52068E96820F4E05048
:100D0000084320602878000706D52068296920F468
:100D1000604040EAC100206000F028F82168084ADD
:100D2000C1F30311515CC8400649086006480068D9
:100D3000FFF7FAFE0020C4E7003C024008380240FA
:100D4000522F00080C000020040000200448054930
:100D500000680968044AC1F38221515CC8407047A9
:100D60000C00002008380240622F0008154810B51A
:100D7000006810F00C02144813D04110042A0FD060
:100D8000082A0ED10F4C241F2268236802F03F026C
:100D90005B0207D52068C0F38810A0FB010106E0C4
:100DA000084610BD2168C1F38811A1FB0001002392
:100DB000FFF77CFA2168C1F30141491C4900B0FBEF
:100DC000F1F010BD083802400024F4002DE9F84F7E
:100DD000040076D02078DFF840A3D04DC00749D07A
:100DE000DAF800105046C1F38101012908D00068EB
:100DF000C0F3810002280AD1281D0068400206D5F0
:100E00002868800336D560680028E2D032E0606848
:100E1000B0F5803F10D0B0F5A02F286810D020F496
:100E200080302860286820F4802028606068A0B1A5
:100E3000FFF7A0FC06460CE0286840F48030F4E799
:100E400040F480202860F7E7FFF794FC801B6428BB
:100E500073D828688003F7D50CE0FFF78BFC0646B3
:100E600005E000BFFFF786FC801B6428F0D82868E7
:100E70008003F7D42078DFF8A88280074FF00009BC
:100E80003ED5DAF80010504611F00C0F09D000687A
:100E9000C0F3810002280BD19F48001F0068400268
:100EA00006D42868800715D5E068012809D111E02B
:100EB000E068B8B10120C8F80000FFF75BFC064607
:100EC00005E024E1FFF756FC801B0228C0D8286803
:100ED0008007F7D52868216920F0F80040EAC100B2
:100EE00028600DE0C8F80090FFF744FC064604E0D7
:100EF000FFF740FC801B02281FD828688007F7D422
:100F00002078000722D5844E864861696C3671B11D
:100F100001210160FFF72EFC074604E0FFF72AFCE1
:100F2000C01B022809D830688007F7D50EE0C0F84A
:100F30000090FFF71FFC074605E083E0FFF71AFC6F
:100F4000C01B02287ED830688007F7D4207840077D
:100F50006DD5DFF8C4B100270BF1380BDBF80000CA
:100F6000C0000BD4DBF8001041F08051CBF800102A
:100F7000DBF80000012700F0805000906A4E3068D6
:100F8000C00511D4306840F480703060FFF7F2FB88
:100F9000009006E0FFF7EEFB01460098081A0228D1
:100FA00050D83068C005F5D55B4EA068683601287A
:100FB0000FD00528306810D020F001003060306874
:100FC00020F004003060A068C8B1FFF7D3FB0090A8
:100FD00011E0306840F00100F4E740F004003060B8
:100FE000F7E700BFFFF7C6FB01460098091A41F278
:100FF0008830814267D830688007F3D510E0FFF76A
:10100000B9FB009009E000BFFFF7B4FB0146009870
:10101000091A41F28830814255D830688007F3D4EC
:101020002FB1DBF8001021F08051CBF80010A0693F
:10103000C8B3DAF800205146C2F38102022A49D02F
:10104000022800E03FE0484605D0C8F86000FFF7FE
:1010500091FB04463AE04646C8F86000FFF78AFB79
:10106000074604E0FFF786FBC01B02282BD8286840
:101070008001F7D4D4E907010843A16A2B4A490843
:1010800002EB0141626A41EA8211084394F82C1094
:1010900040EA01612048001F016001203066FFF72F
:1010A00069FB044605E034E0FFF764FB001B0228FF
:1010B00009D828688001F7D52BE000BFFFF75AFB5D
:1010C000001B022802D90320BDE8F88F28688001A0
:1010D000F4D41EE00128F7D00868E26900F480012A
:1010E000914214D1226A00F03F0191420FD147F69C
:1010F000C071626A0140914209D1A26A00F4403194
:10110000914204D1E16A00F07060884201D0012070
:10111000DAE70020D8E70000083802400038024033
:1011200000004742800E4742007000400000FFFF71
:1011300010B5401E4FF0E024B0F1807F01D30120B4
:1011400010BD60610F214FF0FF3001F0BCFD0020A9
:10115000A06107202061002010BDFEE7FEE7704778
:1011600070477047FFF7BEBC0548016841F4700145
:10117000016003494FF0006080390860704700004B
:1011800088ED00E0FEE700002DE9FC410025012488
:1011900011E0774801F0B2FD401E00B2CDE9000435
:1011A00000222B461146724801F030F8704801F0D9
:1011B0001FF82D1D2DB26E4801F09DFDA842E8DC00
:1011C000002510E06A4801F096FD401ECDE900546C
:1011D00003B200221146664801F018F8644801F095
:1011E00007F82D1D2DB2624801F088FDA842E9DC08
:1011F000FA20FFF7A7F95E4800F040FF00252E46D1
:1012000010E000BF01F07AFD401ECDE9006402B29B
:101210002B460021564800F0F9FF554800F0E8FF42
:101220002D1D2DB2524801F066FDA8425048E9DC60
:1012300001F064FD401E05B215E04D4801F05BFD74
:10124000401E07B24A4801F059FD401ECDE9005446
:1012500002B23B460021464800F0D8FF444800F067
:10126000C7FF2D1F2DB2002DE7DAFA20FFF76AF92C
:101270003F4800F003FF3E4801F03DFD401E05B22F
:1012800015E000BF01F03AFD401E07B2384801F0FA
:1012900032FD401ECDE9006401B22B463A46344887
:1012A00000F0B4FF324800F0A3FF2D1F2DB23048EC
:1012B000002DE7DA01F022FD401E05B215E02C48B2
:1012C00001F01CFD401E06B2294801F014FD401E2D
:1012D000CDE9005401B200233246254800F096FFC4
:1012E000234800F085FF2D1F2DB2002DE7DAFA20EC
:1012F000FFF728F91E4800F0C1FE002510E01C4849
:1013000001F0F9FC401ECDE9005401B200231A4659
:10131000174800F07BFF164800F06AFF2D1D2DB224
:10132000134801F0EBFCA842E9DC002515E0104869
:1013300001F0E4FC401E06B20D4801F0DCFC401E4A
:10134000CDE9006401B22B460022094800F05EFF9F
:10135000074800F04DFF2D1D2DB2054801F0CBFCD4
:10136000A842E4DCBDE8FC41FA20FFF7EBB800003E
:101370004C0300202DE9FC41002401251BE013480B
:1013800001F0BCFC674200EB470006B20F4801F0D9
:10139000B2FC00EB4700CDE9006503B222461146DE
:1013A0000A4800F067FF094800F022FF0120FFF71C
:1013B000C9F8A41C24B2054801F0A0FC00EBD070D1
:1013C000B4EB600FDBDBBDE8FC8100004C030020C8
:1013D0002DE9FC41012500241FE0154801F08EFC99
:1013E000674200EB470006B2114801F084FC00EBB5
:1013F000470003B205F00100CDE900602246114626
:101400000B4800F063FF0A4800F0F2FE0120FFF7EE
:1014100099F86D1CE41CEDB224B2054801F06EFC95
:1014200000EBD070B4EB600FD7DBBDE8FC810000AF
:101430004C030020F8B50024012519E00F4801F005
:101440005DFC06460D4801F056FC06EBD6714A10CD
:1014500000EBD070411023460848009500F0E2FDF3
:10146000064800F0C5FE0120FFF76CF8A41C24B26A
:10147000024801F043FCA042E0DCF8BD4C03002030
:101480002DE9FF47002442E02C4801F037FC81465B
:101490002A4801F030FC8046284801F02FFC07461E
:1014A000264801F028FC0646244801F027FC0546A2
:1014B000224801F020FC07EBD77709EBD97108EB44
:1014C000D87204EB6707012304EB610104EB6202AD
:1014D0003FB209B212B200970393CDE9012106EBA6
:1014E000D671C4EB61010BB205EBD571C4EB6101A0
:1014F0000AB200EBD0704110104800F0CDFD0F484B
:1015000000F076FE0120FFF71DF8641D24B20B48A1
:1015100001F0F1FB0546094801F0F0FB8542074860
:1015200002DA01F0E8FB01E001F0E8FB00EBD0702B
:10153000B4EB600FA8DBBDE8FF8700004C03002080
:101540002DE9FF4701252F4801F0D5FB04462D4822
:1015500001F0D4FB84422B4802DA01F0CCFB01E01D
:1015600001F0CCFB00EBD070441046E0254801F0C0
:10157000C5FB8146234801F0BEFB8046214801F0AF
:10158000BDFB07461F4801F0B6FB06461D4801F0AB
:10159000B5FB82461B4801F0AEFB07EBD77709EBA2
:1015A000D97108EBD87204EB6707012304EB6101E2
:1015B00004EB62023FB209B212B200970393CDE985
:1015C000012106EBD671C4EB61010BB20AEBDA71B3
:1015D000C4EB61010AB200EBD0704110094800F081
:1015E00081FD0DB1002500E00125064800F000FE58
:1015F0000120FEF7A7FF641F24B2002CB6DCBDE873
:10160000FF8700004C030020FEB5002425E01948A8
:1016100001F074FB0546174801F070FB674200EBD0
:10162000470006B2134801F066FB00EB470003B227
:10163000E81705EB9070012180100096CDE90101BB
:10164000224611460B4800F073FD0A4800F0D0FD19
:101650000120FEF777FFA41C24B2064801F04EFBE0
:1016600000EBD0706FF0010101EB6000A042CEDC16
:10167000FEBD00004C0300202DE9FE43012500249F
:1016800029E01B4801F03AFB8046194801F036FB7F
:10169000674200EB470006B2154801F02CFB00EB57
:1016A000470003B24FEAE87108EB91708010009692
:1016B000CDE90105224611460D4800F057FD0DB158
:1016C000002500E001250A4800F092FD0120FEF708
:1016D00039FFA41C24B2064801F010FB00EBD070C7
:1016E0006FF0010101EB6000A042CADCBDE8FE839F
:1016F0004C03002030B593B0002402253021684609
:10170000FEF74BFE14210CA8FEF747FE18480168AF
:1017100041F080510160006800F080501190154840
:10172000016841F4804101600068009500F4804048
:101730001190012003901020049006950820CDE917
:101740000740A820CDE9090507200B906846FFF760
:101750003DFB0F20CDE90C054FF4A050CDE90E4024
:10176000E802109005210CA8FFF756FA13B030BD1F
:1017700040380240007000402DE9FF5F0546C3F18C
:1017800001001C460FFA80F8C3EBC430400000B2E1
:10179000002602909346101902B228688A464FF03C
:1017A0000109076828460E9BB847ABEB040002B25C
:1017B000286851460E9B07682846B8470AEB040084
:1017C00001B228685A460E9B07682846B847AAEB1C
:1017D000040001B228685A460E9B076864E000BF07
:1017E000B8F1000F08DB641E029824B2801C00B21E
:1017F000029040440FFA80F809F102000FFA80F9D4
:1018000008EB09000FFA80F80BEB0400761C02B21B
:1018100036B20AEB060001B20092039128680E9BD3
:1018200007682846B847AAEB060001B2019128686C
:10183000009A0E9B07682846B847ABEB040002B23B
:101840000092286803990E9B07682846B8472868C5
:10185000DDE90021076828460E9BB8470BEB060020
:1018600002B20AEB040001B20092039128680E9BB9
:1018700007682846B847AAEB040001B2019128681E
:10188000009A0E9B07682846B847ABEB060002B2E9
:101890000092286803990E9B07682846B847286875
:1018A000DDE9002107680E9B2846B847A64297DB72
:1018B000BDE8FF9F2DE9FE4307461C46012000EBD3
:1018C000440003B216460A9D101B02B20095386808
:1018D0008846D0F808C03846E04700200321CDE90B
:1018E00000102346324602954146384600F03AFA47
:1018F000BDE8FE832DE9FC5F0446DDE90E65DDE908
:101900000C8ACDE90085006899461746D0F804C0D6
:101910008B462046E047CDE90065206853464246A5
:10192000D0F804C049462046E047CDE9007520685C
:101930005B463246456851462046A847BDE8FC9FB5
:101940002DE9FF4F89B01C46DDE91660DDF8609097
:1019500017460D46B24203DD37462C4616461D4655
:101960004E4505DD4946B1460E46014620460C4629
:10197000B74205DD394637460E46294625460C4610
:101980004F451BD129468C4201DA214601E000DD9A
:101990002546884201DA014602E0A84200DD0546FC
:1019A00019980090681A401C03B209983A460068DA
:1019B000C4680998A0470DB0BDE8F08F611B09B25B
:1019C0000791F11B09B20691411B09B20191001B5D
:1019D000A9EB070109B200B2CDE90201A9EB0600AB
:1019E00000B24FF0000BDA4604904E4501D1059647
:1019F00002E0701E00B20590B84622E00698039AF5
:101A00009BFBF0F0284401B29AFBF2F02844079BBC
:101A1000019A00B29B449244814202DD0A4601468B
:101A20001046401A401C03B20998199A00920068A7
:101A30004246D0F80CC00998E04708F101000FFABF
:101A400080F805988045D9DD0299A8EB060000FBD7
:101A500001FA0198A8EB0706464321E00498029A90
:101A60009AFBF0F0204401B20398924496FBF0F008
:101A70002844019A00B21644814202DD0A4601461A
:101A80001046401A401C03B20998199A0092006847
:101A90004246C7680998B84708F101000FFA80F874
:101AA000C845DBDD87E71CB50B44049C5B1ECDE914
:101AB000002404681BB26468A0471CBD1CB5134415
:101AC0005B1E049C1BB2CDE9003403685C680B46C6
:101AD000A0471CBD2DE9FF4F8DB00746DDE91A1068
:101AE000404203EB400401EB40000FFA80F90FFA8B
:101AF00084F8DDE91B060E9C0096204405B21B9875
:101B0000104404B20E9818441B9B0890C01A401E43
:101B10000FFA80FB50180190C01A401E0FFA80FA8D
:101B2000386843462946D0F80CC03846E04701984B
:101B30000096401E02B2386843462946D0F80CC0D1
:101B40003846E047009638684B462246D0F808C031
:101B500038460E99E04708980096401E01B2386852
:101B60004B462246D0F808C03846E0470120CDE970
:101B700000062246294638461B9B00F057F80220F3
:101B8000CDE900062246594638461B9B00F04EF828
:101B90000420CDE900065246594638461B9B00F00A
:101BA00045F80820CDE900065246294638461B9BD9
:101BB00000F03CF811B0BDE8F08F2DE9FE4F8A46E9
:101BC000DDE90C1983460AEB090005B29846C9F114
:101BD000000001EB40035B1E0E9F1EB202EB0903E7
:101BE000CDE900171CB208EB400003B2DBF800009F
:101BF0002946D0F814C05846E04701208DE8C100BE
:101C00000AEB0801A1EB0900401E01B222464B4637
:101C1000584600F0A7F802208DE8C1002246294668
:101C20004B46584600F09EF8BDE8FE8F2DE9FF5F59
:101C3000C3F1010006B2C3EBC33040000127934655
:101C40008A460FFA80F800251C46DDF8389084E0BB
:101C5000002E08DB08F102000FFA80F8641E06EB84
:101C6000080024B206B26D1CBF1C3FB2F01906B2C8
:101C70002DB25FEA497019D50BEB040002B20AEBF2
:101C8000050001B200980F9B0068D0F800C00098D2
:101C9000E0470BEB050002B20AEB040001B200982A
:101CA0000F9B0068D0F800C00098E0475FEA897099
:101CB00019D5ABEB040002B20AEB050001B20098A3
:101CC0000F9B0068D0F800C00098E047ABEB050020
:101CD00002B20AEB040001B200980F9B0068D0F832
:101CE00000C00098E0475FEA097019D50BEB0500CA
:101CF00002B2AAEB040001B200980F9B0068D0F872
:101D000000C00098E0470BEB040002B2AAEB05000C
:101D100001B200980F9B0068D0F800C00098E0471F
:101D20005FEAC97019D0ABEB050002B2AAEB040060
:101D300001B200980F9B0068D0F800C00098E047FF
:101D4000ABEB040002B2AAEB050001B200980F9BB6
:101D50000068D0F800C00098E047A542FFF678AFD1
:101D6000BDE8FF9F2DE9F84F8346C3F1010006B29D
:101D7000C3EBC3304000012791468A460FFA80F832
:101D800000251C4662E0002E08DB08F102000FFA75
:101D900080F8641E06EB080024B206B2BF1C6D1C5E
:101DA0003FB2F01906B20A982DB2C00725D00C98A0
:101DB00000900B9800EB4400401C03B2A9EB040018
:101DC00002B20AEB050001B2DBF80000D0F808C04F
:101DD0005846E0470C9800900B9800EB4500401CDB
:101DE00003B2A9EB050002B20AEB040001B2DBF872
:101DF0000000D0F808C05846E0470A98800725D56B
:101E00000C9800900B9800EB4400401C03B2A9EB27
:101E1000040002B2AAEB050001B2DBF80000D0F822
:101E200008C05846E0470C9800900B9800EB45001E
:101E3000401C03B2A9EB050002B2AAEB040001B2F8
:101E4000DBF80000D0F808C05846E047A5429ADB0E
:101E5000BDE8F88F2DE9FF5F14460E980E461D462B
:101E6000021BA3EB060100D55242002900DA4942C9
:101E70008A4207DD3146264605464FF001080C46EA
:101E8000184601E04FF00008AE4205DD31462E460F
:101E90000D46214604460846A91B0FFA81F9011B8D
:101EA00000D549420FFA81FB09EBD9714F108442EA
:101EB00001DA012001E04FF0FF3082461CE000BF54
:101EC00000980F9BB8F1000F0068D0F800C002D056
:101ED0003246214601E0224631460098E047A7EB12
:101EE0000B0007B2002F05DA04EB0A0004B207EB7F
:101EF000090007B2761C36B2AE42E1DDBDE8FF9FB5
:101F00002DE9F8430446DDE9086500950068984628
:101F10009146D0F80CC00F462046E04709EB06007A
:101F2000401E02B20095206843463946D0F80CC0E6
:101F30002046E0470095206833464A46D0F808C05E
:101F400039462046E04707EB0800401E01B20095E5
:101F5000206833464A4685682046A847BDE8F8838E
:101F60002DE9F8439146DDE9088605460C46CF1871
:101F70000AE00096286843464A46D0F808C0214641
:101F80002846E047641C24B2A742F2DCBDE8F8838F
:101F9000084B03608180C28001814281002141752C
:101FA0008181C181012101754FF6FF724282028257
:101FB00081757047742F00082DE9FF5F9A46DDE9AF
:101FC0000E78FE1DF01706EB507040F3CF0600258B
:101FD00023E00298002428444FF0800B0FFA80F988
:101FE00017E0E01704EB50710AEBE10015FB060067
:101FF000017804F007022BFA02F0014207D00198A1
:102000004A46204401B2109B009800F08BF9641CF2
:1020100024B2BC42E5DB6D1C2DB24545D9DBBDE8E1
:10202000FF9F0000F8B51F46069C15460E46064861
:102030000094FFF7A1FB203D3B462AB231460348FE
:102040000094FFF799FBF8BD680300208C05002081
:10205000F8B51F46069C15460E4606480094FFF745
:1020600029FC203D3B462AB2314603480094FFF745
:1020700021FCF8BD680300208C05002010B5044841
:1020800000F06EF9BDE81040024800F069B90000A8
:10209000680300208C0500202DE9FF479946DDE903
:1020A0000E46DDE90C57CDE90246CDE900579046D2
:1020B0008A460A48FFF71EFC203C20B2203DCDE9AD
:1020C000020629B2CDE90017A8F1200002B24B4662
:1020D00051460348FFF70EFCBDE8FF876803002068
:1020E0008C0500202DE9FF479946DDE90E46DDE924
:1020F0000C57CDE90246CDE9005790468A460A487A
:10210000FFF71EFC203C20B2203DCDE9020629B29B
:10211000CDE90017A8F1200002B24B465146034812
:10212000FFF70EFCBDE8FF87680300208C05002048
:102130002DE9FE439846DDE90B540A9E0096CDE951
:102140000154174689460748FFF7C4FC0096CDE9BD
:102150000154203F43463AB249460348FFF7BAFCD0
:10216000BDE8FE83680300208C0500202DE9FE43B6
:102170009846DDE90B540A9E0096CDE901541746B6
:1021800089460748FFF719FD0096CDE90154203F25
:1021900043463AB249460348FFF70FFDBDE8FE83C8
:1021A000680300208C05002010B50C46044800F0A0
:1021B000A3FA2146BDE81040024800F09DBA000095
:1021C000680300208C05002010B50123782202212D
:1021D000054800F0ABFA01237822BDE81040022147
:1021E000024800F0A3BA0000680300208C0500201C
:1021F00010B5044800F018FBBDE81040024800F09C
:1022000013BB0000680300208C0500202DE9FC4171
:102210001E46DDE9084715468846202A05DA202CA7
:102220000FDACDE9004711481CE0202C05DB203CEB
:10223000A2F1200520B22AB211E0254614469846A4
:102240000E46CDE9004733462A4641460748FFF788
:1022500001FE203C203D20B233462AB24146CDE962
:1022600000070348FFF7F6FDBDE8FC816803002086
:102270008C0500202DE9FC479946DDE90A7801EB41
:1022800009000E46D11900B214460DB2864200DD97
:102290000646AC4201DD2C461546CDE900784B469A
:1022A000224631460748FFF72BFE202D08DBCDE9FB
:1022B0000078203C4B4622B231460348FFF720FE0F
:1022C000BDE8FC87680300208C0500202DE9FC4751
:1022D0009946DDE90A7801EB09000E46D11900B2F2
:1022E00014460DB2864200DD0646AC4201DD2C46A6
:1022F0001546CDE900784B46224631460748FFF7A0
:102300002FFE202D08DBCDE90078203C4B4622B281
:1023100031460348FFF724FEBDE8FC876803002030
:102320008C050020202A01DA034802E0203A12B28C
:10233000024800F09EBA0000680300208C050020CF
:1023400080210180402242808180C280002141742E
:1023500001814181012202748281C18182747047AE
:102360004FF40073002200F1240100F055BA000080
:1023700038B504460C4800228B1885182344521C9B
:1023800093F82430D2B26B70802AF5D310250095D3
:1023900094F91700812381B2034A206AFEF7B4FA48
:1023A0000028F4D138BD00001200002070B5467D31
:1023B000049C00F12405AEB1012E04D0022E07D0FA
:1023C000032E0FD135E08688B21A521E12B236E0C3
:1023D0008688711AC688491EB21A521EC91A491C2B
:1023E00012B209B2002A7DDBB0F9066096427FDDA9
:1023F000002902DA19440BB20021B0F90400CE180A
:10240000864201DD401A03B2002B71DDD01702EBCA
:102410005070C01005EBC010084402F00702012103
:102420009140C9B2002C7FD0012C79D0022C5FD111
:1024300089E0C688711A491EC91A491C09B2002AC6
:1024400056DBB0F90460964252DD002902DA1944E5
:102450000BB20021B0F90600CE18864201DD401A09
:1024600003B2002B44DDCEB2F00805EBC0101044DF
:10247000D9B216F007021DD0C2F10803344A9942BE
:10248000D25C03D25E1AFF25F5402A403CB1012CF4
:1024900002D0022C09D105E00578154304E0057847
:1024A000954301E0057855400570994220D3C91A3B
:1024B000C9B2803008290BD3022C1AD0012C21D0AC
:1024C0005FF000020839C9B200F8802B0829F9D260
:1024D00000290DD01F4A01F00701515CCCB1012C3D
:1024E00014D000E004E0022C02D102784A400270CD
:1024F00070BD02780839D243C9B200F8802B082990
:10250000F7D2E5E7FF22DDE70EE009E002780A43B3
:10251000EDE702788A43EAE702780A4300F8012BE4
:102520005B1E1BB2F8D270BDC943C9B203E002788A
:102530000A4000F8012B5B1E1BB2F8D270BD027876
:102540004A4000F8012B5B1E1BB2F8D270BD0000A0
:10255000930200209B02002070B5467D049C00F190
:102560002405BEB1012E04D0022E09D0032E11D1B4
:102570003DE08688B21A521ED21A521C12B23AE0BC
:102580008688711AC688491EB21A521ED21A521C67
:1025900009B212B200295CDBB0F904608E4258DD4A
:1025A000002A02DA1A4413B20022B0F90600D61843
:1025B000864201DD801A03B2002B4ADDD6B2F00854
:1025C00005EBC0100844DAB216F0070163D0C1F180
:1025D000080347499A42C95C03D29E1AFF25F54079
:1025E000294074B3012C48D0022C4FD14BE0C6884F
:1025F000711A491E09B200292BDBB0F906608E4220
:1026000027DD002A02DA1A4413B20022B0F90400CE
:10261000D618864201DD801A03B2002B19DDC817D7
:1026200001EB5070C01005EBC010104401F0070220
:1026300001219140C9B26CB1012C07D0022C08D104
:1026400017E01DE002780A4300F8012B5B1E1BB265
:10265000F8D270BDC943C9B203E002780A4000F85D
:10266000012B5B1E1BB2F8D270BD02784A4000F805
:10267000012B5B1E1BB2F8D270BD05780D4304E040
:1026800005788D4301E005784D4005709A42F3D3FB
:10269000D11ACAB28030082A0AD3022C17D0012CD2
:1026A0001ED00021083AD2B200F8801B082AF9D2C5
:1026B000002AE1D002F007010E4A515CACB1012CB6
:1026C00010D0022CD8D102784A40027070BD017837
:1026D000083AC943D2B200F8801B082AF7D2E7E7CC
:1026E000FF21DFE702780A43EFE702788A43ECE74D
:1026F000930200209B02002009B1A72100E0A6213F
:10270000AFF3008038B504460748102541700095A6
:1027100094F91700022381B2034A206AFEF7F4F805
:102720000028F4D138BD00001000002070B50176FB
:102730000C460546C275AE21FFF7E4FFD5212846B9
:10274000FFF7E0FF80212846FFF7DCFFA82128469D
:10275000FFF7D8FF1F212846FFF7D4FFD3212846D3
:10276000FFF7D0FF00212846FFF7CCFF4021284685
:10277000FFF7C8FF8D212846FFF7C4FF012C47D083
:1027800014212846FFF7BEFF20212846FFF7BAFF95
:1027900000212846FFF7B6FFA1212846FFF7B2FF28
:1027A000C8212846FFF7AEFFDA212846FFF7AAFF27
:1027B00002212846FFF7A6FF81212846FFF7A2FF46
:1027C0008F212846FFF79EFFD9212846FFF79AFF61
:1027D000012C1FD0F1212846FFF794FFDB2128466A
:1027E000FFF790FF40212846FFF78CFFA4212846E1
:1027F000FFF788FFA6212846FFF784FF2E212846F1
:10280000FFF780FF2846BDE87040AF21FFF77ABF91
:102810001021B6E72221DEE7002002E08854521C96
:1028200092B29A42FAD3704770B506462121FFF75B
:1028300069FF00213046FFF765FF7F213046FFF733
:1028400061FF22213046FFF75DFF00213046FFF790
:1028500059FF03213046FFF755FF00244FF4007560
:1028600021463046FFF784FD8034A4B2AC42F7D352
:1028700070BD2DE9F0411F4614460D0006463ED4BA
:1028800000F033FAA8423ADD002C38DB304600F085
:102890002FFAA04233DD304600F025FA012804D09B
:1028A000022809D0032814D10DE02046B1882C4617
:1028B000081A401E05B20CE0B088401B401E05B24D
:1028C000F088001B03E02846F1882546081A401EC0
:1028D00004B201202FB3012F13D0022F0FD1E11723
:1028E00004EB5171C91005EBC1118A1902F12401E1
:1028F00092F8242004F00703984042400A70BDE893
:10290000F081E11704EB5171C91005EBC1118A196F
:1029100002F1240192F8242004F0070398400243B6
:10292000ECE7E11704EB5171C91005EBC1118A19ED
:1029300002F1240192F8242004F007039840824316
:10294000DCE7000070B514460D4620228021FFF719
:102950001FFB0B490160FF2141764177C1768176EB
:102960000849047701F5007300F12402056203E0D1
:1029700011F8014B02F8014B9942F9D170BD0000EA
:102980009C2F0008930000202DE9F04387B04FF4FE
:1029900070470125DFF8B49000242D4E14216846BD
:1029A000FDF7FBFC2B48016841F001010160016863
:1029B00001F001010591016841F002010160016827
:1029C00001F002010591016841F008010160006811
:1029D000002200F008000590B84639463046FDF761
:1029E000C4FE0095CDE901944F4669461A48FDF7AB
:1029F000D9FD4FF47060CDE9000769460294304676
:102A0000FDF7D0FDCDF80080CDE901546946304690
:102A10000394FDF7C7FD002211460620FEF7CAF811
:102A20000620FEF7B9F8002211461720FEF7C2F87B
:102A30001720FEF7B1F8002211462820FEF7BAF859
:102A40002820FEF7A9F807B0BDE8F08300001110B8
:102A5000000C02403038024000000240F8B5044645
:102A6000C06A1E460D461746082807D0012805D023
:102A700010F5803F02D0206B122804D12068016835
:102A800041F480710160134600224FF0011120468D
:102A9000009600F049F840B120680068C00502D5F2
:102AA0004FF4007020640320F8BD2069B0F5804F1A
:102AB0000ED00620216800EAD51040F0F000086131
:102AC00033463A460B49204600F0B2F878B902E0A6
:102AD00005F0FE0000E0E8B22168086105493346D0
:102AE0003A46891F204600F0A3F80028DCD00120D8
:102AF000F8BD00000800010001684A69D243520590
:102B00000FD46FF480624A61002140F8301F202208
:102B100042738173026942F0040202610173012071
:102B200070470020704700002DE9F047984617468F
:102B30000D460446C1F30746DDF820900CE000BFC7
:102B4000B8F1FF3F08D0FDF715FEA0EB09014145A4
:102B500011D8B8F1000F0ED02068012E18D080696E
:102B600025EA00000004000C14D00020B842E7D091
:102B70000020BDE8F087002044F8300F2021617369
:102B8000A073216941F02001216120730120F0E749
:102B90004069E5E70120E9E770B516460D460446B1
:102BA0000DE02046FFF7A8FF08B1012070BD681CAA
:102BB00005D0FDF7DFFD801BA84207D835B120689E
:102BC0004069C0434007ECD4002070BD002044F8A9
:102BD000300F20216173A073216941F02001216130
:102BE0002073E2E770B516460D4604460DE0204618
:102BF000FFF782FF08B1012070BD681C05D0FDF70A
:102C0000B9FD801BA84207D835B120684069C04390
:102C10000006ECD4002070BD002044F8300F2021C5
:102C20006173A073216941F0200121612073E2E703
:102C30002DE9F0479A4691460E46044600254FF08E
:102C40002008C1F3074725E020684069C0434005DC
:102C500014D42068016841F40071016021686FF4A8
:102C600080604861256384F83D8084F83E50206C84
:102C700040F00400206484F83C501FE0B9F1FF3FAD
:102C800008D0FDF777FDA0EB0A0149450CD8B9F152
:102C9000000F09D02068012F13D0806926EA0000B8
:102CA0000004000C0BD0CFE744F8305F84F80D80AF
:102CB000A573206940F02000206125730120BDE844
:102CC000F0874069EAE70907090E002804DB00F1F4
:102CD000E02080F80014704700F00F0000F1E020C1
:102CE00080F8141D7047407D7047B0F908007047A8
:102CF000B0F90A007047B0F904007047B0F9060057
:102D000070470020FDF786BB10B500220549064834
:102D1000FFF718FEBDE81040002204490448FFF701
:102D200011BE0000A402002068030020F802002069
:102D30008C0500200148FFF703BB00004C03002076
:102D40002DE9FE430024724E4FF48045FDF7D2FE7C
:102D5000FEF7D0FCFFF718FE6F486E490160C0E92E
:102D60000164C0E9034544618461C4610462FDF704
:102D700007FD6948694954300160C0E90164C0E950
:102D8000034544618461C4610462FDF7F9FC624853
:102D900001274FF4FA644FF4FA7866103B46782224
:102DA0000221A830FFF710FA5B48A830FFF720FA9D
:102DB0003046FDF7C7FB5848A830FFF75FF9FEF72C
:102DC000E3F95548A830FFF713FA2046FDF7BAFBA0
:102DD0005148A830FFF752F9FEF7CCFA4E48A83018
:102DE000FFF706FA2046FDF7ADFB4B48A830FFF78A
:102DF00045F9FEF7EDFA4848A830FFF7F9F9204603
:102E0000FDF7A0FB4448A830FFF738F9FEF712FBA6
:102E10004148A830FFF7ECF92046FDF793FB3E4808
:102E2000A830FFF72BF93C48A830FFF767FF814631
:102E30003948A830FFF75FFF09EBD9714A1000EB62
:102E4000D070411034480A23A8300097FFF700F9EA
:102E50003148A830FFF7CCF92046FDF773FB2E4828
:102E6000A830FFF70BF9FEF7CFFB2046FDF76AFB12
:102E70002948A830FFF702F9FEF7FEFB2046FDF7D0
:102E800061FB2548A830FFF7F9F8FEF7F9FA20466C
:102E9000FDF758FB2048A830FFF7F0F8FEF750FB8D
:102EA0002046FDF74FFB1C48A830FFF7E7F81A480B
:102EB000A830FFF7E3F810200090CDE901070246A3
:102EC0001548174B1E21A830FFF776F81248A83096
:102ED000FFF78EF944464046FDF734FB114F294673
:102EE0003846FDF73BFC2046FDF72CFB0A48012144
:102EF000A830FFF759F93046FDF724FB06480021BA
:102F0000A830FFF751F93046FDF71CFBE7E700005A
:102F1000A086010000540040A40200200058004098
:102F2000322F0008000C02404FF04070E1EE100A12
:102F3000704700000020006000E000E0EECC7ECE94
:102F40007FDE7FFF3FFB3B331127000E000E000C9E
:102F5000000000000000000000000102030406075A
:102F60000809000000000102030400000000000046
:102F700000000000032D0008551E0008BD1A0008BF
:102F8000A71A0008011F0008611F000800000000C8
:102F9000000000000000000000000000732800088E
:102FA000551E000859250008AD230008011F000820
:102FB000611F00080000000000000000E42F00086E
:102FC00000000020A4020000C4010008E83000084E
:102FD000A40200206C0B00002002000859FDFFFF36
:102FE00029FDFFFF320182103324F40281401606CE
:102FF0000AFE0AE612F012F8B2FCC78448FE32B4A8
:10300000482DFE060A1201F40A06FEC0098602785F
:1030100084A4680286E00A0E7A8684B4A4A67A0E96
:103020008F7848FE82BABA03E94BB15301014CE0F4
:10303000F03001480C3131F1E10101E1F131313180
:10304000117BF0E02A4920491622F0790F2B31310B
:103050000F011D1440C0C01CC0C040081C4040C02F
:103060000621390D39074193FFFF290B6CFFFF60E3
:1030700001391A2B0E0EE2791449167BE0E00F534A
:103080007F7F6B80800459055904100A8080203F9F
:10309000033C033F201E203F222730061B030C0D5C
:1030A00011651F20201F8B3F7F4CFA3F0F11CC076B
:1030B00007078029718A7F254B6060E6167F04042C
:1030C0007F401E3F4040403F0D1C0778070E1640D2
:1030D0007F444E61100880C0E0F0F8FCFE1008014B
:0830E00003070F1F3F7F0000F2
:040000050800018965
:00000001FF
